{
  "_format": "hh-sol-artifact-1",
  "contractName": "SubscriptionEscrow",
  "sourceName": "contracts/SubscriptionEscrow.sol",
  "abi": [
    {
      "anonymous": false,
      "inputs": [
        {
          "indexed": true,
          "internalType": "uint256",
          "name": "subscriptionId",
          "type": "uint256"
        },
        {
          "indexed": true,
          "internalType": "uint256",
          "name": "cycleNumber",
          "type": "uint256"
        },
        {
          "indexed": false,
          "internalType": "uint256",
          "name": "amount",
          "type": "uint256"
        },
        {
          "indexed": false,
          "internalType": "uint256",
          "name": "releasedAt",
          "type": "uint256"
        },
        {
          "indexed": false,
          "internalType": "address",
          "name": "triggeredBy",
          "type": "address"
        }
      ],
      "name": "CycleReleased",
      "type": "event"
    },
    {
      "anonymous": false,
      "inputs": [
        {
          "indexed": true,
          "internalType": "uint256",
          "name": "subscriptionId",
          "type": "uint256"
        },
        {
          "indexed": false,
          "internalType": "uint256",
          "name": "refundAmount",
          "type": "uint256"
        },
        {
          "indexed": false,
          "internalType": "uint256",
          "name": "cancelledAt",
          "type": "uint256"
        }
      ],
      "name": "SubscriptionCancelled",
      "type": "event"
    },
    {
      "anonymous": false,
      "inputs": [
        {
          "indexed": true,
          "internalType": "uint256",
          "name": "subscriptionId",
          "type": "uint256"
        },
        {
          "indexed": false,
          "internalType": "uint256",
          "name": "totalReleased",
          "type": "uint256"
        },
        {
          "indexed": false,
          "internalType": "uint256",
          "name": "completedAt",
          "type": "uint256"
        }
      ],
      "name": "SubscriptionCompleted",
      "type": "event"
    },
    {
      "anonymous": false,
      "inputs": [
        {
          "indexed": true,
          "internalType": "uint256",
          "name": "subscriptionId",
          "type": "uint256"
        },
        {
          "indexed": true,
          "internalType": "address",
          "name": "buyer",
          "type": "address"
        },
        {
          "indexed": true,
          "internalType": "address",
          "name": "seller",
          "type": "address"
        },
        {
          "indexed": false,
          "internalType": "uint256",
          "name": "amountPerCycle",
          "type": "uint256"
        },
        {
          "indexed": false,
          "internalType": "uint256",
          "name": "totalCycles",
          "type": "uint256"
        },
        {
          "indexed": false,
          "internalType": "uint256",
          "name": "intervalSeconds",
          "type": "uint256"
        },
        {
          "indexed": false,
          "internalType": "uint256",
          "name": "nextReleaseAt",
          "type": "uint256"
        },
        {
          "indexed": false,
          "internalType": "string",
          "name": "description",
          "type": "string"
        }
      ],
      "name": "SubscriptionCreated",
      "type": "event"
    },
    {
      "anonymous": false,
      "inputs": [
        {
          "indexed": true,
          "internalType": "uint256",
          "name": "subscriptionId",
          "type": "uint256"
        },
        {
          "indexed": false,
          "internalType": "uint256",
          "name": "addedCycles",
          "type": "uint256"
        },
        {
          "indexed": false,
          "internalType": "uint256",
          "name": "newTotalCycles",
          "type": "uint256"
        },
        {
          "indexed": false,
          "internalType": "uint256",
          "name": "newVaultBalance",
          "type": "uint256"
        }
      ],
      "name": "SubscriptionToppedUp",
      "type": "event"
    },
    {
      "inputs": [],
      "name": "MAX_CYCLES",
      "outputs": [
        {
          "internalType": "uint256",
          "name": "",
          "type": "uint256"
        }
      ],
      "stateMutability": "view",
      "type": "function"
    },
    {
      "inputs": [],
      "name": "MAX_INTERVAL",
      "outputs": [
        {
          "internalType": "uint256",
          "name": "",
          "type": "uint256"
        }
      ],
      "stateMutability": "view",
      "type": "function"
    },
    {
      "inputs": [],
      "name": "MIN_CYCLE_AMOUNT",
      "outputs": [
        {
          "internalType": "uint256",
          "name": "",
          "type": "uint256"
        }
      ],
      "stateMutability": "view",
      "type": "function"
    },
    {
      "inputs": [],
      "name": "MIN_INTERVAL",
      "outputs": [
        {
          "internalType": "uint256",
          "name": "",
          "type": "uint256"
        }
      ],
      "stateMutability": "view",
      "type": "function"
    },
    {
      "inputs": [
        {
          "internalType": "address",
          "name": "",
          "type": "address"
        },
        {
          "internalType": "uint256",
          "name": "",
          "type": "uint256"
        }
      ],
      "name": "buyerSubscriptions",
      "outputs": [
        {
          "internalType": "uint256",
          "name": "",
          "type": "uint256"
        }
      ],
      "stateMutability": "view",
      "type": "function"
    },
    {
      "inputs": [
        {
          "internalType": "uint256",
          "name": "_subId",
          "type": "uint256"
        }
      ],
      "name": "cancelSubscription",
      "outputs": [],
      "stateMutability": "nonpayable",
      "type": "function"
    },
    {
      "inputs": [
        {
          "internalType": "address",
          "name": "_seller",
          "type": "address"
        },
        {
          "internalType": "uint256",
          "name": "_cycles",
          "type": "uint256"
        },
        {
          "internalType": "uint256",
          "name": "_intervalSeconds",
          "type": "uint256"
        },
        {
          "internalType": "string",
          "name": "_description",
          "type": "string"
        }
      ],
      "name": "createSubscription",
      "outputs": [],
      "stateMutability": "payable",
      "type": "function"
    },
    {
      "inputs": [
        {
          "internalType": "address",
          "name": "_buyer",
          "type": "address"
        }
      ],
      "name": "getActiveSubscriptions",
      "outputs": [
        {
          "internalType": "uint256[]",
          "name": "",
          "type": "uint256[]"
        }
      ],
      "stateMutability": "view",
      "type": "function"
    },
    {
      "inputs": [
        {
          "internalType": "address",
          "name": "_buyer",
          "type": "address"
        }
      ],
      "name": "getBuyerSubscriptions",
      "outputs": [
        {
          "internalType": "uint256[]",
          "name": "",
          "type": "uint256[]"
        }
      ],
      "stateMutability": "view",
      "type": "function"
    },
    {
      "inputs": [
        {
          "internalType": "uint256",
          "name": "_subId",
          "type": "uint256"
        }
      ],
      "name": "getProgressBps",
      "outputs": [
        {
          "internalType": "uint256",
          "name": "",
          "type": "uint256"
        }
      ],
      "stateMutability": "view",
      "type": "function"
    },
    {
      "inputs": [
        {
          "internalType": "uint256",
          "name": "_withinSeconds",
          "type": "uint256"
        }
      ],
      "name": "getReleasableSubscriptions",
      "outputs": [
        {
          "internalType": "uint256[]",
          "name": "",
          "type": "uint256[]"
        }
      ],
      "stateMutability": "view",
      "type": "function"
    },
    {
      "inputs": [
        {
          "internalType": "address",
          "name": "_seller",
          "type": "address"
        }
      ],
      "name": "getSellerSubscriptions",
      "outputs": [
        {
          "internalType": "uint256[]",
          "name": "",
          "type": "uint256[]"
        }
      ],
      "stateMutability": "view",
      "type": "function"
    },
    {
      "inputs": [
        {
          "internalType": "uint256",
          "name": "_subId",
          "type": "uint256"
        }
      ],
      "name": "getSubscription",
      "outputs": [
        {
          "components": [
            {
              "internalType": "uint256",
              "name": "id",
              "type": "uint256"
            },
            {
              "internalType": "address",
              "name": "buyer",
              "type": "address"
            },
            {
              "internalType": "address",
              "name": "seller",
              "type": "address"
            },
            {
              "internalType": "uint256",
              "name": "amountPerCycle",
              "type": "uint256"
            },
            {
              "internalType": "uint256",
              "name": "totalCycles",
              "type": "uint256"
            },
            {
              "internalType": "uint256",
              "name": "cyclesCompleted",
              "type": "uint256"
            },
            {
              "internalType": "uint256",
              "name": "nextReleaseAt",
              "type": "uint256"
            },
            {
              "internalType": "uint256",
              "name": "intervalSeconds",
              "type": "uint256"
            },
            {
              "internalType": "uint256",
              "name": "vaultBalance",
              "type": "uint256"
            },
            {
              "internalType": "enum SubscriptionEscrow.SubscriptionStatus",
              "name": "status",
              "type": "uint8"
            },
            {
              "internalType": "string",
              "name": "description",
              "type": "string"
            },
            {
              "internalType": "uint256",
              "name": "createdAt",
              "type": "uint256"
            }
          ],
          "internalType": "struct SubscriptionEscrow.Subscription",
          "name": "",
          "type": "tuple"
        }
      ],
      "stateMutability": "view",
      "type": "function"
    },
    {
      "inputs": [
        {
          "internalType": "uint256",
          "name": "_start",
          "type": "uint256"
        },
        {
          "internalType": "uint256",
          "name": "_count",
          "type": "uint256"
        }
      ],
      "name": "getSubscriptionsPaginated",
      "outputs": [
        {
          "components": [
            {
              "internalType": "uint256",
              "name": "id",
              "type": "uint256"
            },
            {
              "internalType": "address",
              "name": "buyer",
              "type": "address"
            },
            {
              "internalType": "address",
              "name": "seller",
              "type": "address"
            },
            {
              "internalType": "uint256",
              "name": "amountPerCycle",
              "type": "uint256"
            },
            {
              "internalType": "uint256",
              "name": "totalCycles",
              "type": "uint256"
            },
            {
              "internalType": "uint256",
              "name": "cyclesCompleted",
              "type": "uint256"
            },
            {
              "internalType": "uint256",
              "name": "nextReleaseAt",
              "type": "uint256"
            },
            {
              "internalType": "uint256",
              "name": "intervalSeconds",
              "type": "uint256"
            },
            {
              "internalType": "uint256",
              "name": "vaultBalance",
              "type": "uint256"
            },
            {
              "internalType": "enum SubscriptionEscrow.SubscriptionStatus",
              "name": "status",
              "type": "uint8"
            },
            {
              "internalType": "string",
              "name": "description",
              "type": "string"
            },
            {
              "internalType": "uint256",
              "name": "createdAt",
              "type": "uint256"
            }
          ],
          "internalType": "struct SubscriptionEscrow.Subscription[]",
          "name": "",
          "type": "tuple[]"
        }
      ],
      "stateMutability": "view",
      "type": "function"
    },
    {
      "inputs": [
        {
          "internalType": "uint256",
          "name": "_subId",
          "type": "uint256"
        }
      ],
      "name": "getTimeUntilNextRelease",
      "outputs": [
        {
          "internalType": "uint256",
          "name": "",
          "type": "uint256"
        }
      ],
      "stateMutability": "view",
      "type": "function"
    },
    {
      "inputs": [
        {
          "internalType": "uint256",
          "name": "_subId",
          "type": "uint256"
        }
      ],
      "name": "isReleaseReady",
      "outputs": [
        {
          "internalType": "bool",
          "name": "",
          "type": "bool"
        }
      ],
      "stateMutability": "view",
      "type": "function"
    },
    {
      "inputs": [
        {
          "internalType": "address",
          "name": "",
          "type": "address"
        },
        {
          "internalType": "uint256",
          "name": "",
          "type": "uint256"
        }
      ],
      "name": "sellerSubscriptions",
      "outputs": [
        {
          "internalType": "uint256",
          "name": "",
          "type": "uint256"
        }
      ],
      "stateMutability": "view",
      "type": "function"
    },
    {
      "inputs": [],
      "name": "subscriptionCount",
      "outputs": [
        {
          "internalType": "uint256",
          "name": "",
          "type": "uint256"
        }
      ],
      "stateMutability": "view",
      "type": "function"
    },
    {
      "inputs": [
        {
          "internalType": "uint256",
          "name": "",
          "type": "uint256"
        }
      ],
      "name": "subscriptions",
      "outputs": [
        {
          "internalType": "uint256",
          "name": "id",
          "type": "uint256"
        },
        {
          "internalType": "address",
          "name": "buyer",
          "type": "address"
        },
        {
          "internalType": "address",
          "name": "seller",
          "type": "address"
        },
        {
          "internalType": "uint256",
          "name": "amountPerCycle",
          "type": "uint256"
        },
        {
          "internalType": "uint256",
          "name": "totalCycles",
          "type": "uint256"
        },
        {
          "internalType": "uint256",
          "name": "cyclesCompleted",
          "type": "uint256"
        },
        {
          "internalType": "uint256",
          "name": "nextReleaseAt",
          "type": "uint256"
        },
        {
          "internalType": "uint256",
          "name": "intervalSeconds",
          "type": "uint256"
        },
        {
          "internalType": "uint256",
          "name": "vaultBalance",
          "type": "uint256"
        },
        {
          "internalType": "enum SubscriptionEscrow.SubscriptionStatus",
          "name": "status",
          "type": "uint8"
        },
        {
          "internalType": "string",
          "name": "description",
          "type": "string"
        },
        {
          "internalType": "uint256",
          "name": "createdAt",
          "type": "uint256"
        }
      ],
      "stateMutability": "view",
      "type": "function"
    },
    {
      "inputs": [
        {
          "internalType": "uint256",
          "name": "_subId",
          "type": "uint256"
        }
      ],
      "name": "topUpSubscription",
      "outputs": [],
      "stateMutability": "payable",
      "type": "function"
    },
    {
      "inputs": [
        {
          "internalType": "uint256",
          "name": "_subId",
          "type": "uint256"
        }
      ],
      "name": "triggerRelease",
      "outputs": [],
      "stateMutability": "nonpayable",
      "type": "function"
    }
  ],
  "bytecode": "0x608060405234801561001057600080fd5b50612813806100206000396000f3fe60806040526004361061012a5760003560e01c8063852ead0a116100ab578063c03687401161006f578063c036874014610332578063c419ae7b14610349578063c70eba2a14610369578063d2e1bc2614610389578063dc311dd3146103a9578063fede6114146103d657600080fd5b8063852ead0a146102aa57806386850e93146102d75780638ae40200146102ea578063b796f2d6146102fd578063b8e4f91f1461031d57600080fd5b80632f464405116100f25780632f464405146101f257806330c07407146102125780634fb449b81461023f57806363775ace1461026f5780636a7ba9071461028a57600080fd5b80630abb6f471461012f578063173b6d90146101625780632123508314610178578063217f2c731461019a5780632d5bbf60146101ba575b600080fd5b34801561013b57600080fd5b5061014f61014a36600461212e565b6103ee565b6040519081526020015b60405180910390f35b34801561016e57600080fd5b5061014f60005481565b34801561018457600080fd5b5061019861019336600461212e565b6105cf565b005b3480156101a657600080fd5b5061014f6101b5366004612163565b6107a7565b3480156101c657600080fd5b506101da6101d536600461212e565b6107d8565b6040516101599c9b9a9998979695949392919061220b565b3480156101fe57600080fd5b5061019861020d36600461212e565b6108d2565b34801561021e57600080fd5b5061023261022d36600461228c565b610cd1565b6040516101599190612370565b34801561024b57600080fd5b5061025f61025a36600461212e565b610fbc565b6040519015158152602001610159565b34801561027b57600080fd5b5061014f66038d7ea4c6800081565b34801561029657600080fd5b5061014f6102a536600461212e565b611185565b3480156102b657600080fd5b506102ca6102c536600461212e565b61133e565b60405161015991906123d2565b6101986102e536600461212e565b6114f1565b6101986102f836600461242c565b611778565b34801561030957600080fd5b506102ca610318366004612501565b611c5b565b34801561032957600080fd5b5061014f606481565b34801561033e57600080fd5b5061014f6201518081565b34801561035557600080fd5b506102ca610364366004612501565b611cc7565b34801561037557600080fd5b506102ca610384366004612501565b611d31565b34801561039557600080fd5b5061014f6103a4366004612163565b611f0e565b3480156103b557600080fd5b506103c96103c436600461212e565b611f2a565b6040516101599190612523565b3480156103e257600080fd5b5061014f6301e1338081565b600081815260016020526040812054829082036104265760405162461bcd60e51b815260040161041d90612536565b60405180910390fd5b600083815260016020818152604080842081516101808101835281548152938101546001600160a01b0390811693850193909352600280820154909316918401919091526003810154606084015260048101546080840152600581015460a0840152600681015460c0840152600781015460e084015260088101546101008401526009810154909161012084019160ff16908111156104c7576104c761218d565b60028111156104d8576104d861218d565b8152602001600a820180546104ec9061256d565b80601f01602080910402602001604051908101604052809291908181526020018280546105189061256d565b80156105655780601f1061053a57610100808354040283529160200191610565565b820191906000526020600020905b81548152906001019060200180831161054857829003601f168201915b5050509183525050600b91909101546020909101529050600081610120015160028111156105955761059561218d565b1415806105a657508060c001514210155b156105b55760009250506105c9565b428160c001516105c591906125b7565b9250505b50919050565b6000818152600160205260408120548291036105fd5760405162461bcd60e51b815260040161041d90612536565b6000828152600160208190526040909120015482906001600160a01b0316331461065f5760405162461bcd60e51b815260206004820152601360248201527213db9b1e48189d5e595c8818d85b8818d85b1b606a1b604482015260640161041d565b826000808281526001602052604090206009015460ff1660028111156106875761068761218d565b146106a45760405162461bcd60e51b815260040161041d906125ca565b60008481526001602081905260408083206008810180549085905560098201805460ff1916851790559281015491519093916001600160a01b03169083908381818185875af1925050503d806000811461071a576040519150601f19603f3d011682016040523d82523d6000602084013e61071f565b606091505b50509050806107645760405162461bcd60e51b8152602060048201526011602482015270115512081c99599d5b990819985a5b1959607a1b604482015260640161041d565b6040805183815242602082015288917f69c19d0a066006389d434367f76ae40cf8590ec0c4a8ae417820a6953dd54845910160405180910390a250505050505050565b600260205281600052604060002081815481106107c357600080fd5b90600052602060002001600091509150505481565b600160208190526000918252604090912080549181015460028201546003830154600484015460058501546006860154600787015460088801546009890154600a8a0180546001600160a01b039a8b169b9a9099169997989697959694959394929360ff909216926108499061256d565b80601f01602080910402602001604051908101604052809291908181526020018280546108759061256d565b80156108c25780601f10610897576101008083540402835291602001916108c2565b820191906000526020600020905b8154815290600101906020018083116108a557829003601f168201915b50505050509080600b015490508c565b6000818152600160205260408120548291036109005760405162461bcd60e51b815260040161041d90612536565b816000808281526001602052604090206009015460ff1660028111156109285761092861218d565b146109455760405162461bcd60e51b815260040161041d906125ca565b600083815260016020526040902060068101544210156109a75760405162461bcd60e51b815260206004820152601860248201527f4e6f742074696d6520666f722072656c65617365207965740000000000000000604482015260640161041d565b80600401548160050154106109f55760405162461bcd60e51b8152602060048201526014602482015273105b1b0818de58db195cc818dbdb5c1b195d195960621b604482015260640161041d565b806003015481600801541015610a4d5760405162461bcd60e51b815260206004820152601a60248201527f496e73756666696369656e74207661756c742062616c616e6365000000000000604482015260640161041d565b600581018054906000610a5f83612601565b91905055508060030154816008016000828254610a7c91906125b7565b9091555050600481015460058201541015610aaa576007810154610aa0904261261a565b6006820155610aba565b60098101805460ff191660021790555b600281015460038201546040516000926001600160a01b031691908381818185875af1925050503d8060008114610b0d576040519150601f19603f3d011682016040523d82523d6000602084013e610b12565b606091505b5050905080610b635760405162461bcd60e51b815260206004820152601d60248201527f455448207472616e7366657220746f2073656c6c6572206661696c6564000000604482015260640161041d565b6005820154600383015460408051918252426020830152339082015286907f772feaa3f23cae501c34d8717b596318e073287f602a9fb7ddf28561bb983cf39060600160405180910390a36002600983015460ff166002811115610bc957610bc961218d565b03610cca57847f46879e792c049c167699bcb5f057e63b989d98f46393ac42340fd178972d631783600401548460030154610c04919061262d565b604080519182524260208301520160405180910390a2600882015415610cca5760088201805460009182905560018401546040519192916001600160a01b039091169083908381818185875af1925050503d8060008114610c81576040519150601f19603f3d011682016040523d82523d6000602084013e610c86565b606091505b5050905080610cc75760405162461bcd60e51b815260206004820152600d60248201526c1499599d5b990819985a5b1959609a1b604482015260640161041d565b50505b5050505050565b606060018310158015610ce657506000548311155b610d225760405162461bcd60e51b815260206004820152600d60248201526c125b9d985b1a59081cdd185c9d609a1b604482015260640161041d565b600082118015610d33575060648211155b610d755760405162461bcd60e51b81526020600482015260136024820152720436f756e74206d75737420626520312d31303606c1b604482015260640161041d565b60006001610d83848661261a565b610d8d91906125b7565b9050600054811115610d9e57506000545b6000610daa85836125b7565b610db590600161261a565b905060008167ffffffffffffffff811115610dd257610dd2612416565b604051908082528060200260200182016040528015610e0b57816020015b610df86120aa565b815260200190600190039081610df05790505b50905060005b82811015610fb05760016000610e27838a61261a565b815260208082019290925260409081016000208151610180810183528154815260018201546001600160a01b0390811694820194909452600280830154909416928101929092526003810154606083015260048101546080830152600581015460a0830152600681015460c0830152600781015460e0830152600881015461010083015260098101549192909161012084019160ff90911690811115610ecf57610ecf61218d565b6002811115610ee057610ee061218d565b8152602001600a82018054610ef49061256d565b80601f0160208091040260200160405190810160405280929190818152602001828054610f209061256d565b8015610f6d5780601f10610f4257610100808354040283529160200191610f6d565b820191906000526020600020905b815481529060010190602001808311610f5057829003601f168201915b50505050508152602001600b82015481525050828281518110610f9257610f92612644565b60200260200101819052508080610fa890612601565b915050610e11565b50925050505b92915050565b60008181526001602052604081205482908203610feb5760405162461bcd60e51b815260040161041d90612536565b600083815260016020818152604080842081516101808101835281548152938101546001600160a01b0390811693850193909352600280820154909316918401919091526003810154606084015260048101546080840152600581015460a0840152600681015460c0840152600781015460e084015260088101546101008401526009810154909161012084019160ff169081111561108c5761108c61218d565b600281111561109d5761109d61218d565b8152602001600a820180546110b19061256d565b80601f01602080910402602001604051908101604052809291908181526020018280546110dd9061256d565b801561112a5780601f106110ff5761010080835404028352916020019161112a565b820191906000526020600020905b81548152906001019060200180831161110d57829003601f168201915b5050509183525050600b919091015460209091015290506000816101200151600281111561115a5761115a61218d565b14801561116b57508060c001514210155b80156105c55750608081015160a090910151109392505050565b600081815260016020526040812054829082036111b45760405162461bcd60e51b815260040161041d90612536565b600083815260016020818152604080842081516101808101835281548152938101546001600160a01b0390811693850193909352600280820154909316918401919091526003810154606084015260048101546080840152600581015460a0840152600681015460c0840152600781015460e084015260088101546101008401526009810154909161012084019160ff16908111156112555761125561218d565b60028111156112665761126661218d565b8152602001600a8201805461127a9061256d565b80601f01602080910402602001604051908101604052809291908181526020018280546112a69061256d565b80156112f35780601f106112c8576101008083540402835291602001916112f3565b820191906000526020600020905b8154815290600101906020018083116112d657829003601f168201915b50505050508152602001600b820154815250509050806080015160000361131e5760009250506105c9565b608081015160a08201516113349061271061262d565b6105c59190612670565b6060600061134c834261261a565b9050600060015b60005481116113e75760008181526001602052604081206009015460ff1660028111156113825761138261218d565b1480156113a057506000818152600160205260409020600601548310155b80156113c2575060008181526001602052604090206004810154600590910154105b156113d557816113d181612601565b9250505b806113df81612601565b915050611353565b5060008167ffffffffffffffff81111561140357611403612416565b60405190808252806020026020018201604052801561142c578160200160208202803683370190505b509050600060015b60005481116114e65760008181526001602052604081206009015460ff1660028111156114635761146361218d565b14801561148157506000818152600160205260409020600601548510155b80156114a3575060008181526001602052604090206004810154600590910154105b156114d457808383815181106114bb576114bb612644565b6020908102919091010152816114d081612601565b9250505b806114de81612601565b915050611434565b509095945050505050565b60008181526001602052604081205482910361151f5760405162461bcd60e51b815260040161041d90612536565b6000828152600160208190526040909120015482906001600160a01b031633146115815760405162461bcd60e51b815260206004820152601360248201527213db9b1e48189d5e595c8818d85b8818d85b1b606a1b604482015260640161041d565b826000808281526001602052604090206009015460ff1660028111156115a9576115a961218d565b146115c65760405162461bcd60e51b815260040161041d906125ca565b6000848152600160205260409020346116115760405162461bcd60e51b815260206004820152600d60248201526c09aeae6e840e6cadcc8408aa89609b1b604482015260640161041d565b60038101546116209034612684565b1561167d5760405162461bcd60e51b815260206004820152602760248201527f416d6f756e74206d757374206265206d756c7469706c65206f66206379636c6560448201526608185b5bdd5b9d60ca1b606482015260840161041d565b600081600301543461168f9190612670565b905060648183600401546116a3919061261a565b11156116f15760405162461bcd60e51b815260206004820152601760248201527f576f756c6420657863656564206d6178206379636c6573000000000000000000604482015260640161041d565b80826004016000828254611705919061261a565b9250508190555034826008016000828254611720919061261a565b90915550506004820154600883015460408051848152602081019390935282015286907fcdfe282987e237250ccc92c5ba599ca7652f61c4ac74dd32855e7ce11972ac769060600160405180910390a2505050505050565b6001600160a01b0384166117ce5760405162461bcd60e51b815260206004820152601d60248201527f53656c6c65722063616e6e6f74206265207a65726f2061646472657373000000604482015260640161041d565b336001600160a01b038516036118265760405162461bcd60e51b815260206004820152601c60248201527f43616e6e6f742073756273637269626520746f20796f757273656c6600000000604482015260640161041d565b600083118015611837575060648311155b61187a5760405162461bcd60e51b815260206004820152601460248201527304379636c6573206d75737420626520312d3130360641b604482015260640161041d565b62015180821015801561189157506301e133808211155b6118dd5760405162461bcd60e51b815260206004820181905260248201527f496e74657276616c206d75737420626520312064617920746f20312079656172604482015260640161041d565b6000341161191d5760405162461bcd60e51b815260206004820152600d60248201526c09aeae6e840e6cadcc8408aa89609b1b604482015260640161041d565b61192e8366038d7ea4c6800061262d565b34101561197d5760405162461bcd60e51b815260206004820152601b60248201527f416d6f756e7420746f6f20736d616c6c20666f72206379636c65730000000000604482015260640161041d565b6119878334612684565b156119df5760405162461bcd60e51b815260206004820152602260248201527f416d6f756e74206d75737420626520646976697369626c65206279206379636c604482015261657360f01b606482015260840161041d565b60006119eb8434612670565b905066038d7ea4c68000811015611a445760405162461bcd60e51b815260206004820152601a60248201527f416d6f756e7420706572206379636c6520746f6f20736d616c6c000000000000604482015260640161041d565b600080549080611a5383612601565b9091555060009050611a65844261261a565b90506040518061018001604052806000548152602001336001600160a01b03168152602001876001600160a01b031681526020018381526020018681526020016000815260200182815260200185815260200134815260200160006002811115611ad157611ad161218d565b8152602080820186905242604092830152600080548152600180835290839020845181559184015182820180546001600160a01b039283166001600160a01b03199182161790915593850151600280850180549290931691909516179055606084015160038301556080840151600483015560a0840151600583015560c0840151600683015560e08401516007830155610100840151600883015561012084015160098301805493949193909260ff19909116918490811115611b9657611b9661218d565b0217905550610140820151600a820190611bb090826126e7565b506101609190910151600b90910155336000818152600260209081526040808320835481546001818101845592865284862001556001600160a01b038b16808552600384528285208554815493840182559086529385209091019290925591549151909291907f61f3987d817e9a733e23f29a3624d86dbe7a88087ad868e5b16a327294052a5d90611c4b9087908b908b9089908c906127a7565b60405180910390a4505050505050565b6001600160a01b038116600090815260026020908152604091829020805483518184028101840190945280845260609392830182828015611cbb57602002820191906000526020600020905b815481526020019060010190808311611ca7575b50505050509050919050565b6001600160a01b038116600090815260036020908152604091829020805483518184028101840190945280845260609392830182828015611cbb5760200282019190600052602060002090815481526020019060010190808311611ca75750505050509050919050565b6001600160a01b0381166000908152600260209081526040808320805482518185028101850190935280835260609493830182828015611d9057602002820191906000526020600020905b815481526020019060010190808311611d7c575b505050505090506000805b8251811015611e1357600060016000858481518110611dbc57611dbc612644565b60209081029190910181015182528101919091526040016000206009015460ff166002811115611dee57611dee61218d565b03611e015781611dfd81612601565b9250505b80611e0b81612601565b915050611d9b565b5060008167ffffffffffffffff811115611e2f57611e2f612416565b604051908082528060200260200182016040528015611e58578160200160208202803683370190505b5090506000805b84518110156114e657600060016000878481518110611e8057611e80612644565b60209081029190910181015182528101919091526040016000206009015460ff166002811115611eb257611eb261218d565b03611efc57848181518110611ec957611ec9612644565b6020026020010151838381518110611ee357611ee3612644565b602090810291909101015281611ef881612601565b9250505b80611f0681612601565b915050611e5f565b600360205281600052604060002081815481106107c357600080fd5b611f326120aa565b600082815260016020818152604080842081516101808101835281548152938101546001600160a01b0390811693850193909352600280820154909316918401919091526003810154606084015260048101546080840152600581015460a0840152600681015460c0840152600781015460e084015260088101546101008401526009810154909161012084019160ff1690811115611fd357611fd361218d565b6002811115611fe457611fe461218d565b8152602001600a82018054611ff89061256d565b80601f01602080910402602001604051908101604052809291908181526020018280546120249061256d565b80156120715780601f1061204657610100808354040283529160200191612071565b820191906000526020600020905b81548152906001019060200180831161205457829003601f168201915b50505050508152602001600b8201548152505090508060000151600003610fb65760405162461bcd60e51b815260040161041d90612536565b6040518061018001604052806000815260200160006001600160a01b0316815260200160006001600160a01b031681526020016000815260200160008152602001600081526020016000815260200160008152602001600081526020016000600281111561211a5761211a61218d565b815260200160608152602001600081525090565b60006020828403121561214057600080fd5b5035919050565b80356001600160a01b038116811461215e57600080fd5b919050565b6000806040838503121561217657600080fd5b61217f83612147565b946020939093013593505050565b634e487b7160e01b600052602160045260246000fd5b600381106121c157634e487b7160e01b600052602160045260246000fd5b9052565b6000815180845260005b818110156121eb576020818501810151868301820152016121cf565b506000602082860101526020601f19601f83011685010191505092915050565b60006101808e835260018060a01b03808f166020850152808e166040850152508b60608401528a60808401528960a08401528860c08401528760e08401528661010084015261225e6101208401876121a3565b80610140840152612271818401866121c5565b915050826101608301529d9c50505050505050505050505050565b6000806040838503121561229f57600080fd5b50508035926020909101359150565b60006101808251845260208301516122d160208601826001600160a01b03169052565b5060408301516122ec60408601826001600160a01b03169052565b50606083015160608501526080830151608085015260a083015160a085015260c083015160c085015260e083015160e08501526101008084015181860152506101208084015161233e828701826121a3565b5050610140808401518282870152612358838701826121c5565b61016095860151969095019590955250919392505050565b6000602080830181845280855180835260408601915060408160051b870101925083870160005b828110156123c557603f198886030184526123b38583516122ae565b94509285019290850190600101612397565b5092979650505050505050565b6020808252825182820181905260009190848201906040850190845b8181101561240a578351835292840192918401916001016123ee565b50909695505050505050565b634e487b7160e01b600052604160045260246000fd5b6000806000806080858703121561244257600080fd5b61244b85612147565b93506020850135925060408501359150606085013567ffffffffffffffff8082111561247657600080fd5b818701915087601f83011261248a57600080fd5b81358181111561249c5761249c612416565b604051601f8201601f19908116603f011681019083821181831017156124c4576124c4612416565b816040528281528a60208487010111156124dd57600080fd5b82602086016020830137600060208483010152809550505050505092959194509250565b60006020828403121561251357600080fd5b61251c82612147565b9392505050565b60208152600061251c60208301846122ae565b6020808252601b908201527f537562736372697074696f6e20646f6573206e6f742065786973740000000000604082015260600190565b600181811c9082168061258157607f821691505b6020821081036105c957634e487b7160e01b600052602260045260246000fd5b634e487b7160e01b600052601160045260246000fd5b81810381811115610fb657610fb66125a1565b60208082526017908201527f537562736372697074696f6e206e6f7420616374697665000000000000000000604082015260600190565b600060018201612613576126136125a1565b5060010190565b80820180821115610fb657610fb66125a1565b8082028115828204841417610fb657610fb66125a1565b634e487b7160e01b600052603260045260246000fd5b634e487b7160e01b600052601260045260246000fd5b60008261267f5761267f61265a565b500490565b6000826126935761269361265a565b500690565b601f8211156126e257600081815260208120601f850160051c810160208610156126bf5750805b601f850160051c820191505b818110156126de578281556001016126cb565b5050505b505050565b815167ffffffffffffffff81111561270157612701612416565b6127158161270f845461256d565b84612698565b602080601f83116001811461274a57600084156127325750858301515b600019600386901b1c1916600185901b1785556126de565b600085815260208120601f198616915b828110156127795788860151825594840194600190910190840161275a565b50858210156127975787850151600019600388901b60f8161c191681555b5050505050600190811b01905550565b85815284602082015283604082015282606082015260a0608082015260006127d260a08301846121c5565b97965050505050505056fea264697066735822122080c752f97d4773ac7ed55f24a4c33223fc6a6b812834aa305450c736567b8de464736f6c63430008140033",
  "linkReferences": {},
  "deployedLinkReferences": {}
}