{"contracts/Escrow.sol":{"EscrowMarketplace":{"abi":[{"anonymous":false,"inputs":[{"indexed":true,"internalType":"uint256","name":"escrowId","type":"uint256"},{"indexed":true,"internalType":"address","name":"buyer","type":"address"},{"indexed":true,"internalType":"address","name":"seller","type":"address"},{"indexed":false,"internalType":"uint256","name":"amount","type":"uint256"},{"indexed":false,"internalType":"string","name":"description","type":"string"},{"indexed":false,"internalType":"uint256","name":"createdAt","type":"uint256"}],"name":"EscrowCreated","type":"event"},{"anonymous":false,"inputs":[{"indexed":true,"internalType":"uint256","name":"escrowId","type":"uint256"},{"indexed":true,"internalType":"address","name":"buyer","type":"address"},{"indexed":false,"internalType":"uint256","name":"amount","type":"uint256"},{"indexed":false,"internalType":"uint256","name":"refundedAt","type":"uint256"}],"name":"ExpiredRefundClaimed","type":"event"},{"anonymous":false,"inputs":[{"indexed":true,"internalType":"uint256","name":"escrowId","type":"uint256"},{"indexed":true,"internalType":"address","name":"buyer","type":"address"},{"indexed":false,"internalType":"uint256","name":"amount","type":"uint256"},{"indexed":false,"internalType":"uint256","name":"refundedAt","type":"uint256"}],"name":"PaymentRefunded","type":"event"},{"anonymous":false,"inputs":[{"indexed":true,"internalType":"uint256","name":"escrowId","type":"uint256"},{"indexed":true,"internalType":"address","name":"buyer","type":"address"},{"indexed":true,"internalType":"address","name":"seller","type":"address"},{"indexed":false,"internalType":"uint256","name":"amount","type":"uint256"},{"indexed":false,"internalType":"uint256","name":"releasedAt","type":"uint256"}],"name":"PaymentReleased","type":"event"},{"inputs":[{"internalType":"uint256","name":"_escrowId","type":"uint256"}],"name":"claimExpiredRefund","outputs":[],"stateMutability":"nonpayable","type":"function"},{"inputs":[{"internalType":"address","name":"_seller","type":"address"},{"internalType":"string","name":"_description","type":"string"}],"name":"createEscrow","outputs":[],"stateMutability":"payable","type":"function"},{"inputs":[{"internalType":"address","name":"_seller","type":"address"},{"internalType":"string","name":"_description","type":"string"},{"internalType":"uint256","name":"_deadlineDays","type":"uint256"}],"name":"createEscrowWithDeadline","outputs":[],"stateMutability":"payable","type":"function"},{"inputs":[],"name":"escrowCount","outputs":[{"internalType":"uint256","name":"","type":"uint256"}],"stateMutability":"view","type":"function"},{"inputs":[{"internalType":"uint256","name":"","type":"uint256"}],"name":"escrows","outputs":[{"internalType":"uint256","name":"id","type":"uint256"},{"internalType":"address","name":"buyer","type":"address"},{"internalType":"address","name":"seller","type":"address"},{"internalType":"uint256","name":"amount","type":"uint256"},{"internalType":"string","name":"description","type":"string"},{"internalType":"uint256","name":"createdAt","type":"uint256"},{"internalType":"uint256","name":"deadline","type":"uint256"},{"internalType":"enum EscrowMarketplace.EscrowStatus","name":"status","type":"uint8"}],"stateMutability":"view","type":"function"},{"inputs":[],"name":"getAllEscrows","outputs":[{"components":[{"internalType":"uint256","name":"id","type":"uint256"},{"internalType":"address","name":"buyer","type":"address"},{"internalType":"address","name":"seller","type":"address"},{"internalType":"uint256","name":"amount","type":"uint256"},{"internalType":"string","name":"description","type":"string"},{"internalType":"uint256","name":"createdAt","type":"uint256"},{"internalType":"uint256","name":"deadline","type":"uint256"},{"internalType":"enum EscrowMarketplace.EscrowStatus","name":"status","type":"uint8"}],"internalType":"struct EscrowMarketplace.Escrow[]","name":"","type":"tuple[]"}],"stateMutability":"view","type":"function"},{"inputs":[{"internalType":"uint256","name":"_escrowId","type":"uint256"}],"name":"getEscrow","outputs":[{"components":[{"internalType":"uint256","name":"id","type":"uint256"},{"internalType":"address","name":"buyer","type":"address"},{"internalType":"address","name":"seller","type":"address"},{"internalType":"uint256","name":"amount","type":"uint256"},{"internalType":"string","name":"description","type":"string"},{"internalType":"uint256","name":"createdAt","type":"uint256"},{"internalType":"uint256","name":"deadline","type":"uint256"},{"internalType":"enum EscrowMarketplace.EscrowStatus","name":"status","type":"uint8"}],"internalType":"struct EscrowMarketplace.Escrow","name":"","type":"tuple"}],"stateMutability":"view","type":"function"},{"inputs":[{"internalType":"uint256","name":"_escrowId","type":"uint256"}],"name":"isExpired","outputs":[{"internalType":"bool","name":"","type":"bool"}],"stateMutability":"view","type":"function"},{"inputs":[{"internalType":"uint256","name":"_escrowId","type":"uint256"}],"name":"refundBuyer","outputs":[],"stateMutability":"nonpayable","type":"function"},{"inputs":[{"internalType":"uint256","name":"_escrowId","type":"uint256"}],"name":"releasePayment","outputs":[],"stateMutability":"nonpayable","type":"function"}],"evm":{"bytecode":{"linkReferences":{},"object":"608060405234801561001057600080fd5b50611681806100206000396000f3fe6080604052600436106100915760003560e01c806388685cd91161005957806388685cd9146101595780639a6ac36f14610179578063bcfcc8d51461019b578063d9548e53146101bb578063ecf0c7b5146101eb57600080fd5b8063012f52ee1461009657806339292763146100d35780633f407b4f146100f5578063675ac67a146101085780637d19e5961461012c575b600080fd5b3480156100a257600080fd5b506100b66100b13660046110b0565b6101fe565b6040516100ca989796959493929190611147565b60405180910390f35b3480156100df57600080fd5b506100f36100ee3660046110b0565b6102db565b005b6100f3610103366004611269565b6104b3565b34801561011457600080fd5b5061011e60005481565b6040519081526020016100ca565b34801561013857600080fd5b5061014c6101473660046110b0565b6104c3565b6040516100ca9190611334565b34801561016557600080fd5b506100f36101743660046110b0565b61061c565b34801561018557600080fd5b5061018e6107fc565b6040516100ca9190611347565b3480156101a757600080fd5b506100f36101b63660046110b0565b6109d0565b3480156101c757600080fd5b506101db6101d63660046110b0565b610c1b565b60405190151581526020016100ca565b6100f36101f93660046113a9565b610da9565b6001602081905260009182526040909120805491810154600282015460038301546004840180546001600160a01b03948516959490931693919261024190611400565b80601f016020809104026020016040519081016040528092919081815260200182805461026d90611400565b80156102ba5780601f1061028f576101008083540402835291602001916102ba565b820191906000526020600020905b81548152906001019060200180831161029d57829003601f168201915b50505050600583015460068401546007909401549293909290915060ff1688565b600081815260016020526040812080549091036103135760405162461bcd60e51b815260040161030a90611434565b60405180910390fd5b60018101546001600160a01b031633146103675760405162461bcd60e51b815260206004820152601560248201527413db9b1e48189d5e595c8818d85b881c99599d5b99605a1b604482015260640161030a565b6000600782015460ff1660028111156103825761038261110f565b1461039f5760405162461bcd60e51b815260040161030a90611463565b60078101805460ff1916600217905560038101805460009182905560018301546040519192916001600160a01b039091169083908381818185875af1925050503d806000811461040b576040519150601f19603f3d011682016040523d82523d6000602084013e610410565b606091505b50509050806104615760405162461bcd60e51b815260206004820152601a60248201527f45544820726566756e6420746f206275796572206661696c6564000000000000604482015260640161030a565b6001830154604080518481524260208201526001600160a01b039092169186917fe0a935fcd7105f5f86626c3f7a4a5d24ace8ba46cbc49b85035bf98b130d3b1f91015b60405180910390a350505050565b6104bf82826000610db9565b5050565b6104cb611049565b600082815260016020818152604080842081516101008101835281548152938101546001600160a01b03908116938501939093526002810154909216908301526003810154606083015260048101805460808401919061052a90611400565b80601f016020809104026020016040519081016040528092919081815260200182805461055690611400565b80156105a35780601f10610578576101008083540402835291602001916105a3565b820191906000526020600020905b81548152906001019060200180831161058657829003601f168201915b50505091835250506005820154602082015260068201546040820152600782015460609091019060ff1660028111156105de576105de61110f565b60028111156105ef576105ef61110f565b90525080519091506000036106165760405162461bcd60e51b815260040161030a90611434565b92915050565b6000818152600160205260408120805490910361064b5760405162461bcd60e51b815260040161030a90611434565b60018101546001600160a01b031633146106a75760405162461bcd60e51b815260206004820152601e60248201527f4f6e6c792062757965722063616e2072656c65617365207061796d656e740000604482015260640161030a565b6000600782015460ff1660028111156106c2576106c261110f565b146106df5760405162461bcd60e51b815260040161030a90611463565b60078101805460ff1916600117905560038101805460009182905560028301546040519192916001600160a01b039091169083908381818185875af1925050503d806000811461074b576040519150601f19603f3d011682016040523d82523d6000602084013e610750565b606091505b50509050806107a15760405162461bcd60e51b815260206004820152601d60248201527f455448207472616e7366657220746f2073656c6c6572206661696c6564000000604482015260640161030a565b60028301546001840154604080518581524260208201526001600160a01b03938416939092169187917fd6879b8e4639bf88a9ca9e3122b381ed4a48625f051842c7e6885f72ef00f47991015b60405180910390a450505050565b60606000805467ffffffffffffffff81111561081a5761081a6111c6565b60405190808252806020026020018201604052801561085357816020015b610840611049565b8152602001906001900390816108385790505b50905060015b60005481116109ca5760008181526001602081815260409283902083516101008101855281548152928101546001600160a01b0390811692840192909252600281015490911692820192909252600382015460608201526004820180549192916080840191906108c890611400565b80601f01602080910402602001604051908101604052809291908181526020018280546108f490611400565b80156109415780601f1061091657610100808354040283529160200191610941565b820191906000526020600020905b81548152906001019060200180831161092457829003601f168201915b50505091835250506005820154602082015260068201546040820152600782015460609091019060ff16600281111561097c5761097c61110f565b600281111561098d5761098d61110f565b9052508261099c6001846114a8565b815181106109ac576109ac6114bb565b602002602001018190525080806109c2906114d1565b915050610859565b50919050565b600081815260016020526040812080549091036109ff5760405162461bcd60e51b815260040161030a90611434565b6000600782015460ff166002811115610a1a57610a1a61110f565b14610a375760405162461bcd60e51b815260040161030a90611463565b6000816006015411610a7d5760405162461bcd60e51b815260206004820152600f60248201526e139bc8191958591b1a5b99481cd95d608a1b604482015260640161030a565b8060060154421015610ac65760405162461bcd60e51b8152602060048201526012602482015271115cd8dc9bddc81b9bdd08195e1c1a5c995960721b604482015260640161030a565b60078101805460ff1916600217905560038101805460009182905560018301546040519192916001600160a01b039091169083908381818185875af1925050503d8060008114610b32576040519150601f19603f3d011682016040523d82523d6000602084013e610b37565b606091505b5050905080610b885760405162461bcd60e51b815260206004820152601a60248201527f45544820726566756e6420746f206275796572206661696c6564000000000000604482015260640161030a565b6001830154604080518481524260208201526001600160a01b039092169186917fe0a935fcd7105f5f86626c3f7a4a5d24ace8ba46cbc49b85035bf98b130d3b1f910160405180910390a36001830154604080518481524260208201526001600160a01b039092169186917fcd18df019a83a0b54e163a95ed35f839543d788500c3c719630f5784fad0b35b91016104a5565b600081815260016020818152604080842081516101008101835281548152938101546001600160a01b039081169385019390935260028101549092169083015260038101546060830152600481018054849392916080840191610c7d90611400565b80601f0160208091040260200160405190810160405280929190818152602001828054610ca990611400565b8015610cf65780601f10610ccb57610100808354040283529160200191610cf6565b820191906000526020600020905b815481529060010190602001808311610cd957829003601f168201915b50505091835250506005820154602082015260068201546040820152600782015460609091019060ff166002811115610d3157610d3161110f565b6002811115610d4257610d4261110f565b9052508051909150600003610d695760405162461bcd60e51b815260040161030a90611434565b60008160e001516002811115610d8157610d8161110f565b148015610d92575060008160c00151115b8015610da257508060c001514210155b9392505050565b610db4838383610db9565b505050565b6001600160a01b038316610e0f5760405162461bcd60e51b815260206004820152601d60248201527f53656c6c65722063616e6e6f74206265207a65726f2061646472657373000000604482015260640161030a565b336001600160a01b03841603610e675760405162461bcd60e51b815260206004820152601f60248201527f427579657220616e642073656c6c65722063616e6e6f742062652073616d6500604482015260640161030a565b60003411610eb75760405162461bcd60e51b815260206004820181905260248201527f416d6f756e74206d7573742062652067726561746572207468616e207a65726f604482015260640161030a565b6001600080828254610ec991906114ea565b90915550600090508115610ef157610ee482620151806114fd565b610eee90426114ea565b90505b6040518061010001604052806000548152602001336001600160a01b03168152602001856001600160a01b0316815260200134815260200184815260200142815260200182815260200160006002811115610f4e57610f4e61110f565b905260008054815260016020818152604092839020845181559084015191810180546001600160a01b039384166001600160a01b031991821617909155928401516002820180549190931693169290921790556060820151600382015560808201516004820190610fbf9082611562565b5060a0820151600582015560c0820151600682015560e082015160078201805460ff19166001836002811115610ff757610ff761110f565b0217905550905050836001600160a01b0316336001600160a01b03166000547fc6900c839781d123b52b6ec7716e349576dfd3df9e75bd66fa44e49823f59fff3487426040516107ee93929190611622565b6040518061010001604052806000815260200160006001600160a01b0316815260200160006001600160a01b0316815260200160008152602001606081526020016000815260200160008152602001600060028111156110ab576110ab61110f565b905290565b6000602082840312156110c257600080fd5b5035919050565b6000815180845260005b818110156110ef576020818501810151868301820152016110d3565b506000602082860101526020601f19601f83011685010191505092915050565b634e487b7160e01b600052602160045260246000fd5b6003811061114357634e487b7160e01b600052602160045260246000fd5b9052565b8881526001600160a01b038881166020830152871660408201526060810186905261010060808201819052600090611181838201886110c9565b9150508460a08301528360c083015261119d60e0830184611125565b9998505050505050505050565b80356001600160a01b03811681146111c157600080fd5b919050565b634e487b7160e01b600052604160045260246000fd5b600082601f8301126111ed57600080fd5b813567ffffffffffffffff80821115611208576112086111c6565b604051601f8301601f19908116603f01168101908282118183101715611230576112306111c6565b8160405283815286602085880101111561124957600080fd5b836020870160208301376000602085830101528094505050505092915050565b6000806040838503121561127c57600080fd5b611285836111aa565b9150602083013567ffffffffffffffff8111156112a157600080fd5b6112ad858286016111dc565b9150509250929050565b600061010082518452602083015160018060a01b0380821660208701528060408601511660408701525050606083015160608501526080830151816080860152611303828601826110c9565b91505060a083015160a085015260c083015160c085015260e083015161132c60e0860182611125565b509392505050565b602081526000610da260208301846112b7565b6000602080830181845280855180835260408601915060408160051b870101925083870160005b8281101561139c57603f1988860301845261138a8583516112b7565b9450928501929085019060010161136e565b5092979650505050505050565b6000806000606084860312156113be57600080fd5b6113c7846111aa565b9250602084013567ffffffffffffffff8111156113e357600080fd5b6113ef868287016111dc565b925050604084013590509250925092565b600181811c9082168061141457607f821691505b6020821081036109ca57634e487b7160e01b600052602260045260246000fd5b602080825260159082015274115cd8dc9bddc8191bd95cc81b9bdd08195e1a5cdd605a1b604082015260600190565b602080825260159082015274457363726f77206973206e6f742070656e64696e6760581b604082015260600190565b634e487b7160e01b600052601160045260246000fd5b8181038181111561061657610616611492565b634e487b7160e01b600052603260045260246000fd5b6000600182016114e3576114e3611492565b5060010190565b8082018082111561061657610616611492565b808202811582820484141761061657610616611492565b601f821115610db457600081815260208120601f850160051c8101602086101561153b5750805b601f850160051c820191505b8181101561155a57828155600101611547565b505050505050565b815167ffffffffffffffff81111561157c5761157c6111c6565b6115908161158a8454611400565b84611514565b602080601f8311600181146115c557600084156115ad5750858301515b600019600386901b1c1916600185901b17855561155a565b600085815260208120601f198616915b828110156115f4578886015182559484019460019091019084016115d5565b50858210156116125787850151600019600388901b60f8161c191681555b5050505050600190811b01905550565b83815260606020820152600061163b60608301856110c9565b905082604083015294935050505056fea264697066735822122073cf44baa565a7c4c7b746c8a18ae7b61ce1eb086a9f394e6d00f3f3b8aa42ba64736f6c63430008140033","opcodes":"PUSH1 0x80 PUSH1 0x40 MSTORE CALLVALUE DUP1 ISZERO PUSH2 0x10 JUMPI PUSH1 0x0 DUP1 REVERT JUMPDEST POP PUSH2 0x1681 DUP1 PUSH2 0x20 PUSH1 0x0 CODECOPY PUSH1 0x0 RETURN INVALID PUSH1 0x80 PUSH1 0x40 MSTORE PUSH1 0x4 CALLDATASIZE LT PUSH2 0x91 JUMPI PUSH1 0x0 CALLDATALOAD PUSH1 0xE0 SHR DUP1 PUSH4 0x88685CD9 GT PUSH2 0x59 JUMPI DUP1 PUSH4 0x88685CD9 EQ PUSH2 0x159 JUMPI DUP1 PUSH4 0x9A6AC36F EQ PUSH2 0x179 JUMPI DUP1 PUSH4 0xBCFCC8D5 EQ PUSH2 0x19B JUMPI DUP1 PUSH4 0xD9548E53 EQ PUSH2 0x1BB JUMPI DUP1 PUSH4 0xECF0C7B5 EQ PUSH2 0x1EB JUMPI PUSH1 0x0 DUP1 REVERT JUMPDEST DUP1 PUSH4 0x12F52EE EQ PUSH2 0x96 JUMPI DUP1 PUSH4 0x39292763 EQ PUSH2 0xD3 JUMPI DUP1 PUSH4 0x3F407B4F EQ PUSH2 0xF5 JUMPI DUP1 PUSH4 0x675AC67A EQ PUSH2 0x108 JUMPI DUP1 PUSH4 0x7D19E596 EQ PUSH2 0x12C JUMPI JUMPDEST PUSH1 0x0 DUP1 REVERT JUMPDEST CALLVALUE DUP1 ISZERO PUSH2 0xA2 JUMPI PUSH1 0x0 DUP1 REVERT JUMPDEST POP PUSH2 0xB6 PUSH2 0xB1 CALLDATASIZE PUSH1 0x4 PUSH2 0x10B0 JUMP JUMPDEST PUSH2 0x1FE JUMP JUMPDEST PUSH1 0x40 MLOAD PUSH2 0xCA SWAP9 SWAP8 SWAP7 SWAP6 SWAP5 SWAP4 SWAP3 SWAP2 SWAP1 PUSH2 0x1147 JUMP JUMPDEST PUSH1 0x40 MLOAD DUP1 SWAP2 SUB SWAP1 RETURN JUMPDEST CALLVALUE DUP1 ISZERO PUSH2 0xDF JUMPI PUSH1 0x0 DUP1 REVERT JUMPDEST POP PUSH2 0xF3 PUSH2 0xEE CALLDATASIZE PUSH1 0x4 PUSH2 0x10B0 JUMP JUMPDEST PUSH2 0x2DB JUMP JUMPDEST STOP JUMPDEST PUSH2 0xF3 PUSH2 0x103 CALLDATASIZE PUSH1 0x4 PUSH2 0x1269 JUMP JUMPDEST PUSH2 0x4B3 JUMP JUMPDEST CALLVALUE DUP1 ISZERO PUSH2 0x114 JUMPI PUSH1 0x0 DUP1 REVERT JUMPDEST POP PUSH2 0x11E PUSH1 0x0 SLOAD DUP2 JUMP JUMPDEST PUSH1 0x40 MLOAD SWAP1 DUP2 MSTORE PUSH1 0x20 ADD PUSH2 0xCA JUMP JUMPDEST CALLVALUE DUP1 ISZERO PUSH2 0x138 JUMPI PUSH1 0x0 DUP1 REVERT JUMPDEST POP PUSH2 0x14C PUSH2 0x147 CALLDATASIZE PUSH1 0x4 PUSH2 0x10B0 JUMP JUMPDEST PUSH2 0x4C3 JUMP JUMPDEST PUSH1 0x40 MLOAD PUSH2 0xCA SWAP2 SWAP1 PUSH2 0x1334 JUMP JUMPDEST CALLVALUE DUP1 ISZERO PUSH2 0x165 JUMPI PUSH1 0x0 DUP1 REVERT JUMPDEST POP PUSH2 0xF3 PUSH2 0x174 CALLDATASIZE PUSH1 0x4 PUSH2 0x10B0 JUMP JUMPDEST PUSH2 0x61C JUMP JUMPDEST CALLVALUE DUP1 ISZERO PUSH2 0x185 JUMPI PUSH1 0x0 DUP1 REVERT JUMPDEST POP PUSH2 0x18E PUSH2 0x7FC JUMP JUMPDEST PUSH1 0x40 MLOAD PUSH2 0xCA SWAP2 SWAP1 PUSH2 0x1347 JUMP JUMPDEST CALLVALUE DUP1 ISZERO PUSH2 0x1A7 JUMPI PUSH1 0x0 DUP1 REVERT JUMPDEST POP PUSH2 0xF3 PUSH2 0x1B6 CALLDATASIZE PUSH1 0x4 PUSH2 0x10B0 JUMP JUMPDEST PUSH2 0x9D0 JUMP JUMPDEST CALLVALUE DUP1 ISZERO PUSH2 0x1C7 JUMPI PUSH1 0x0 DUP1 REVERT JUMPDEST POP PUSH2 0x1DB PUSH2 0x1D6 CALLDATASIZE PUSH1 0x4 PUSH2 0x10B0 JUMP JUMPDEST PUSH2 0xC1B JUMP JUMPDEST PUSH1 0x40 MLOAD SWAP1 ISZERO ISZERO DUP2 MSTORE PUSH1 0x20 ADD PUSH2 0xCA JUMP JUMPDEST PUSH2 0xF3 PUSH2 0x1F9 CALLDATASIZE PUSH1 0x4 PUSH2 0x13A9 JUMP JUMPDEST PUSH2 0xDA9 JUMP JUMPDEST PUSH1 0x1 PUSH1 0x20 DUP2 SWAP1 MSTORE PUSH1 0x0 SWAP2 DUP3 MSTORE PUSH1 0x40 SWAP1 SWAP2 KECCAK256 DUP1 SLOAD SWAP2 DUP2 ADD SLOAD PUSH1 0x2 DUP3 ADD SLOAD PUSH1 0x3 DUP4 ADD SLOAD PUSH1 0x4 DUP5 ADD DUP1 SLOAD PUSH1 0x1 PUSH1 0x1 PUSH1 0xA0 SHL SUB SWAP5 DUP6 AND SWAP6 SWAP5 SWAP1 SWAP4 AND SWAP4 SWAP2 SWAP3 PUSH2 0x241 SWAP1 PUSH2 0x1400 JUMP JUMPDEST DUP1 PUSH1 0x1F ADD PUSH1 0x20 DUP1 SWAP2 DIV MUL PUSH1 0x20 ADD PUSH1 0x40 MLOAD SWAP1 DUP2 ADD PUSH1 0x40 MSTORE DUP1 SWAP3 SWAP2 SWAP1 DUP2 DUP2 MSTORE PUSH1 0x20 ADD DUP3 DUP1 SLOAD PUSH2 0x26D SWAP1 PUSH2 0x1400 JUMP JUMPDEST DUP1 ISZERO PUSH2 0x2BA JUMPI DUP1 PUSH1 0x1F LT PUSH2 0x28F JUMPI PUSH2 0x100 DUP1 DUP4 SLOAD DIV MUL DUP4 MSTORE SWAP2 PUSH1 0x20 ADD SWAP2 PUSH2 0x2BA JUMP JUMPDEST DUP3 ADD SWAP2 SWAP1 PUSH1 0x0 MSTORE PUSH1 0x20 PUSH1 0x0 KECCAK256 SWAP1 JUMPDEST DUP2 SLOAD DUP2 MSTORE SWAP1 PUSH1 0x1 ADD SWAP1 PUSH1 0x20 ADD DUP1 DUP4 GT PUSH2 0x29D JUMPI DUP3 SWAP1 SUB PUSH1 0x1F AND DUP3 ADD SWAP2 JUMPDEST POP POP POP POP PUSH1 0x5 DUP4 ADD SLOAD PUSH1 0x6 DUP5 ADD SLOAD PUSH1 0x7 SWAP1 SWAP5 ADD SLOAD SWAP3 SWAP4 SWAP1 SWAP3 SWAP1 SWAP2 POP PUSH1 0xFF AND DUP9 JUMP JUMPDEST PUSH1 0x0 DUP2 DUP2 MSTORE PUSH1 0x1 PUSH1 0x20 MSTORE PUSH1 0x40 DUP2 KECCAK256 DUP1 SLOAD SWAP1 SWAP2 SUB PUSH2 0x313 JUMPI PUSH1 0x40 MLOAD PUSH3 0x461BCD PUSH1 0xE5 SHL DUP2 MSTORE PUSH1 0x4 ADD PUSH2 0x30A SWAP1 PUSH2 0x1434 JUMP JUMPDEST PUSH1 0x40 MLOAD DUP1 SWAP2 SUB SWAP1 REVERT JUMPDEST PUSH1 0x1 DUP2 ADD SLOAD PUSH1 0x1 PUSH1 0x1 PUSH1 0xA0 SHL SUB AND CALLER EQ PUSH2 0x367 JUMPI PUSH1 0x40 MLOAD PUSH3 0x461BCD PUSH1 0xE5 SHL DUP2 MSTORE PUSH1 0x20 PUSH1 0x4 DUP3 ADD MSTORE PUSH1 0x15 PUSH1 0x24 DUP3 ADD MSTORE PUSH21 0x13DB9B1E48189D5E595C8818D85B881C99599D5B99 PUSH1 0x5A SHL PUSH1 0x44 DUP3 ADD MSTORE PUSH1 0x64 ADD PUSH2 0x30A JUMP JUMPDEST PUSH1 0x0 PUSH1 0x7 DUP3 ADD SLOAD PUSH1 0xFF AND PUSH1 0x2 DUP2 GT ISZERO PUSH2 0x382 JUMPI PUSH2 0x382 PUSH2 0x110F JUMP JUMPDEST EQ PUSH2 0x39F JUMPI PUSH1 0x40 MLOAD PUSH3 0x461BCD PUSH1 0xE5 SHL DUP2 MSTORE PUSH1 0x4 ADD PUSH2 0x30A SWAP1 PUSH2 0x1463 JUMP JUMPDEST PUSH1 0x7 DUP2 ADD DUP1 SLOAD PUSH1 0xFF NOT AND PUSH1 0x2 OR SWAP1 SSTORE PUSH1 0x3 DUP2 ADD DUP1 SLOAD PUSH1 0x0 SWAP2 DUP3 SWAP1 SSTORE PUSH1 0x1 DUP4 ADD SLOAD PUSH1 0x40 MLOAD SWAP2 SWAP3 SWAP2 PUSH1 0x1 PUSH1 0x1 PUSH1 0xA0 SHL SUB SWAP1 SWAP2 AND SWAP1 DUP4 SWAP1 DUP4 DUP2 DUP2 DUP2 DUP6 DUP8 GAS CALL SWAP3 POP POP POP RETURNDATASIZE DUP1 PUSH1 0x0 DUP2 EQ PUSH2 0x40B JUMPI PUSH1 0x40 MLOAD SWAP2 POP PUSH1 0x1F NOT PUSH1 0x3F RETURNDATASIZE ADD AND DUP3 ADD PUSH1 0x40 MSTORE RETURNDATASIZE DUP3 MSTORE RETURNDATASIZE PUSH1 0x0 PUSH1 0x20 DUP5 ADD RETURNDATACOPY PUSH2 0x410 JUMP JUMPDEST PUSH1 0x60 SWAP2 POP JUMPDEST POP POP SWAP1 POP DUP1 PUSH2 0x461 JUMPI PUSH1 0x40 MLOAD PUSH3 0x461BCD PUSH1 0xE5 SHL DUP2 MSTORE PUSH1 0x20 PUSH1 0x4 DUP3 ADD MSTORE PUSH1 0x1A PUSH1 0x24 DUP3 ADD MSTORE PUSH32 0x45544820726566756E6420746F206275796572206661696C6564000000000000 PUSH1 0x44 DUP3 ADD MSTORE PUSH1 0x64 ADD PUSH2 0x30A JUMP JUMPDEST PUSH1 0x1 DUP4 ADD SLOAD PUSH1 0x40 DUP1 MLOAD DUP5 DUP2 MSTORE TIMESTAMP PUSH1 0x20 DUP3 ADD MSTORE PUSH1 0x1 PUSH1 0x1 PUSH1 0xA0 SHL SUB SWAP1 SWAP3 AND SWAP2 DUP7 SWAP2 PUSH32 0xE0A935FCD7105F5F86626C3F7A4A5D24ACE8BA46CBC49B85035BF98B130D3B1F SWAP2 ADD JUMPDEST PUSH1 0x40 MLOAD DUP1 SWAP2 SUB SWAP1 LOG3 POP POP POP POP JUMP JUMPDEST PUSH2 0x4BF DUP3 DUP3 PUSH1 0x0 PUSH2 0xDB9 JUMP JUMPDEST POP POP JUMP JUMPDEST PUSH2 0x4CB PUSH2 0x1049 JUMP JUMPDEST PUSH1 0x0 DUP3 DUP2 MSTORE PUSH1 0x1 PUSH1 0x20 DUP2 DUP2 MSTORE PUSH1 0x40 DUP1 DUP5 KECCAK256 DUP2 MLOAD PUSH2 0x100 DUP2 ADD DUP4 MSTORE DUP2 SLOAD DUP2 MSTORE SWAP4 DUP2 ADD SLOAD PUSH1 0x1 PUSH1 0x1 PUSH1 0xA0 SHL SUB SWAP1 DUP2 AND SWAP4 DUP6 ADD SWAP4 SWAP1 SWAP4 MSTORE PUSH1 0x2 DUP2 ADD SLOAD SWAP1 SWAP3 AND SWAP1 DUP4 ADD MSTORE PUSH1 0x3 DUP2 ADD SLOAD PUSH1 0x60 DUP4 ADD MSTORE PUSH1 0x4 DUP2 ADD DUP1 SLOAD PUSH1 0x80 DUP5 ADD SWAP2 SWAP1 PUSH2 0x52A SWAP1 PUSH2 0x1400 JUMP JUMPDEST DUP1 PUSH1 0x1F ADD PUSH1 0x20 DUP1 SWAP2 DIV MUL PUSH1 0x20 ADD PUSH1 0x40 MLOAD SWAP1 DUP2 ADD PUSH1 0x40 MSTORE DUP1 SWAP3 SWAP2 SWAP1 DUP2 DUP2 MSTORE PUSH1 0x20 ADD DUP3 DUP1 SLOAD PUSH2 0x556 SWAP1 PUSH2 0x1400 JUMP JUMPDEST DUP1 ISZERO PUSH2 0x5A3 JUMPI DUP1 PUSH1 0x1F LT PUSH2 0x578 JUMPI PUSH2 0x100 DUP1 DUP4 SLOAD DIV MUL DUP4 MSTORE SWAP2 PUSH1 0x20 ADD SWAP2 PUSH2 0x5A3 JUMP JUMPDEST DUP3 ADD SWAP2 SWAP1 PUSH1 0x0 MSTORE PUSH1 0x20 PUSH1 0x0 KECCAK256 SWAP1 JUMPDEST DUP2 SLOAD DUP2 MSTORE SWAP1 PUSH1 0x1 ADD SWAP1 PUSH1 0x20 ADD DUP1 DUP4 GT PUSH2 0x586 JUMPI DUP3 SWAP1 SUB PUSH1 0x1F AND DUP3 ADD SWAP2 JUMPDEST POP POP POP SWAP2 DUP4 MSTORE POP POP PUSH1 0x5 DUP3 ADD SLOAD PUSH1 0x20 DUP3 ADD MSTORE PUSH1 0x6 DUP3 ADD SLOAD PUSH1 0x40 DUP3 ADD MSTORE PUSH1 0x7 DUP3 ADD SLOAD PUSH1 0x60 SWAP1 SWAP2 ADD SWAP1 PUSH1 0xFF AND PUSH1 0x2 DUP2 GT ISZERO PUSH2 0x5DE JUMPI PUSH2 0x5DE PUSH2 0x110F JUMP JUMPDEST PUSH1 0x2 DUP2 GT ISZERO PUSH2 0x5EF JUMPI PUSH2 0x5EF PUSH2 0x110F JUMP JUMPDEST SWAP1 MSTORE POP DUP1 MLOAD SWAP1 SWAP2 POP PUSH1 0x0 SUB PUSH2 0x616 JUMPI PUSH1 0x40 MLOAD PUSH3 0x461BCD PUSH1 0xE5 SHL DUP2 MSTORE PUSH1 0x4 ADD PUSH2 0x30A SWAP1 PUSH2 0x1434 JUMP JUMPDEST SWAP3 SWAP2 POP POP JUMP JUMPDEST PUSH1 0x0 DUP2 DUP2 MSTORE PUSH1 0x1 PUSH1 0x20 MSTORE PUSH1 0x40 DUP2 KECCAK256 DUP1 SLOAD SWAP1 SWAP2 SUB PUSH2 0x64B JUMPI PUSH1 0x40 MLOAD PUSH3 0x461BCD PUSH1 0xE5 SHL DUP2 MSTORE PUSH1 0x4 ADD PUSH2 0x30A SWAP1 PUSH2 0x1434 JUMP JUMPDEST PUSH1 0x1 DUP2 ADD SLOAD PUSH1 0x1 PUSH1 0x1 PUSH1 0xA0 SHL SUB AND CALLER EQ PUSH2 0x6A7 JUMPI PUSH1 0x40 MLOAD PUSH3 0x461BCD PUSH1 0xE5 SHL DUP2 MSTORE PUSH1 0x20 PUSH1 0x4 DUP3 ADD MSTORE PUSH1 0x1E PUSH1 0x24 DUP3 ADD MSTORE PUSH32 0x4F6E6C792062757965722063616E2072656C65617365207061796D656E740000 PUSH1 0x44 DUP3 ADD MSTORE PUSH1 0x64 ADD PUSH2 0x30A JUMP JUMPDEST PUSH1 0x0 PUSH1 0x7 DUP3 ADD SLOAD PUSH1 0xFF AND PUSH1 0x2 DUP2 GT ISZERO PUSH2 0x6C2 JUMPI PUSH2 0x6C2 PUSH2 0x110F JUMP JUMPDEST EQ PUSH2 0x6DF JUMPI PUSH1 0x40 MLOAD PUSH3 0x461BCD PUSH1 0xE5 SHL DUP2 MSTORE PUSH1 0x4 ADD PUSH2 0x30A SWAP1 PUSH2 0x1463 JUMP JUMPDEST PUSH1 0x7 DUP2 ADD DUP1 SLOAD PUSH1 0xFF NOT AND PUSH1 0x1 OR SWAP1 SSTORE PUSH1 0x3 DUP2 ADD DUP1 SLOAD PUSH1 0x0 SWAP2 DUP3 SWAP1 SSTORE PUSH1 0x2 DUP4 ADD SLOAD PUSH1 0x40 MLOAD SWAP2 SWAP3 SWAP2 PUSH1 0x1 PUSH1 0x1 PUSH1 0xA0 SHL SUB SWAP1 SWAP2 AND SWAP1 DUP4 SWAP1 DUP4 DUP2 DUP2 DUP2 DUP6 DUP8 GAS CALL SWAP3 POP POP POP RETURNDATASIZE DUP1 PUSH1 0x0 DUP2 EQ PUSH2 0x74B JUMPI PUSH1 0x40 MLOAD SWAP2 POP PUSH1 0x1F NOT PUSH1 0x3F RETURNDATASIZE ADD AND DUP3 ADD PUSH1 0x40 MSTORE RETURNDATASIZE DUP3 MSTORE RETURNDATASIZE PUSH1 0x0 PUSH1 0x20 DUP5 ADD RETURNDATACOPY PUSH2 0x750 JUMP JUMPDEST PUSH1 0x60 SWAP2 POP JUMPDEST POP POP SWAP1 POP DUP1 PUSH2 0x7A1 JUMPI PUSH1 0x40 MLOAD PUSH3 0x461BCD PUSH1 0xE5 SHL DUP2 MSTORE PUSH1 0x20 PUSH1 0x4 DUP3 ADD MSTORE PUSH1 0x1D PUSH1 0x24 DUP3 ADD MSTORE PUSH32 0x455448207472616E7366657220746F2073656C6C6572206661696C6564000000 PUSH1 0x44 DUP3 ADD MSTORE PUSH1 0x64 ADD PUSH2 0x30A JUMP JUMPDEST PUSH1 0x2 DUP4 ADD SLOAD PUSH1 0x1 DUP5 ADD SLOAD PUSH1 0x40 DUP1 MLOAD DUP6 DUP2 MSTORE TIMESTAMP PUSH1 0x20 DUP3 ADD MSTORE PUSH1 0x1 PUSH1 0x1 PUSH1 0xA0 SHL SUB SWAP4 DUP5 AND SWAP4 SWAP1 SWAP3 AND SWAP2 DUP8 SWAP2 PUSH32 0xD6879B8E4639BF88A9CA9E3122B381ED4A48625F051842C7E6885F72EF00F479 SWAP2 ADD JUMPDEST PUSH1 0x40 MLOAD DUP1 SWAP2 SUB SWAP1 LOG4 POP POP POP POP JUMP JUMPDEST PUSH1 0x60 PUSH1 0x0 DUP1 SLOAD PUSH8 0xFFFFFFFFFFFFFFFF DUP2 GT ISZERO PUSH2 0x81A JUMPI PUSH2 0x81A PUSH2 0x11C6 JUMP JUMPDEST PUSH1 0x40 MLOAD SWAP1 DUP1 DUP3 MSTORE DUP1 PUSH1 0x20 MUL PUSH1 0x20 ADD DUP3 ADD PUSH1 0x40 MSTORE DUP1 ISZERO PUSH2 0x853 JUMPI DUP2 PUSH1 0x20 ADD JUMPDEST PUSH2 0x840 PUSH2 0x1049 JUMP JUMPDEST DUP2 MSTORE PUSH1 0x20 ADD SWAP1 PUSH1 0x1 SWAP1 SUB SWAP1 DUP2 PUSH2 0x838 JUMPI SWAP1 POP JUMPDEST POP SWAP1 POP PUSH1 0x1 JUMPDEST PUSH1 0x0 SLOAD DUP2 GT PUSH2 0x9CA JUMPI PUSH1 0x0 DUP2 DUP2 MSTORE PUSH1 0x1 PUSH1 0x20 DUP2 DUP2 MSTORE PUSH1 0x40 SWAP3 DUP4 SWAP1 KECCAK256 DUP4 MLOAD PUSH2 0x100 DUP2 ADD DUP6 MSTORE DUP2 SLOAD DUP2 MSTORE SWAP3 DUP2 ADD SLOAD PUSH1 0x1 PUSH1 0x1 PUSH1 0xA0 SHL SUB SWAP1 DUP2 AND SWAP3 DUP5 ADD SWAP3 SWAP1 SWAP3 MSTORE PUSH1 0x2 DUP2 ADD SLOAD SWAP1 SWAP2 AND SWAP3 DUP3 ADD SWAP3 SWAP1 SWAP3 MSTORE PUSH1 0x3 DUP3 ADD SLOAD PUSH1 0x60 DUP3 ADD MSTORE PUSH1 0x4 DUP3 ADD DUP1 SLOAD SWAP2 SWAP3 SWAP2 PUSH1 0x80 DUP5 ADD SWAP2 SWAP1 PUSH2 0x8C8 SWAP1 PUSH2 0x1400 JUMP JUMPDEST DUP1 PUSH1 0x1F ADD PUSH1 0x20 DUP1 SWAP2 DIV MUL PUSH1 0x20 ADD PUSH1 0x40 MLOAD SWAP1 DUP2 ADD PUSH1 0x40 MSTORE DUP1 SWAP3 SWAP2 SWAP1 DUP2 DUP2 MSTORE PUSH1 0x20 ADD DUP3 DUP1 SLOAD PUSH2 0x8F4 SWAP1 PUSH2 0x1400 JUMP JUMPDEST DUP1 ISZERO PUSH2 0x941 JUMPI DUP1 PUSH1 0x1F LT PUSH2 0x916 JUMPI PUSH2 0x100 DUP1 DUP4 SLOAD DIV MUL DUP4 MSTORE SWAP2 PUSH1 0x20 ADD SWAP2 PUSH2 0x941 JUMP JUMPDEST DUP3 ADD SWAP2 SWAP1 PUSH1 0x0 MSTORE PUSH1 0x20 PUSH1 0x0 KECCAK256 SWAP1 JUMPDEST DUP2 SLOAD DUP2 MSTORE SWAP1 PUSH1 0x1 ADD SWAP1 PUSH1 0x20 ADD DUP1 DUP4 GT PUSH2 0x924 JUMPI DUP3 SWAP1 SUB PUSH1 0x1F AND DUP3 ADD SWAP2 JUMPDEST POP POP POP SWAP2 DUP4 MSTORE POP POP PUSH1 0x5 DUP3 ADD SLOAD PUSH1 0x20 DUP3 ADD MSTORE PUSH1 0x6 DUP3 ADD SLOAD PUSH1 0x40 DUP3 ADD MSTORE PUSH1 0x7 DUP3 ADD SLOAD PUSH1 0x60 SWAP1 SWAP2 ADD SWAP1 PUSH1 0xFF AND PUSH1 0x2 DUP2 GT ISZERO PUSH2 0x97C JUMPI PUSH2 0x97C PUSH2 0x110F JUMP JUMPDEST PUSH1 0x2 DUP2 GT ISZERO PUSH2 0x98D JUMPI PUSH2 0x98D PUSH2 0x110F JUMP JUMPDEST SWAP1 MSTORE POP DUP3 PUSH2 0x99C PUSH1 0x1 DUP5 PUSH2 0x14A8 JUMP JUMPDEST DUP2 MLOAD DUP2 LT PUSH2 0x9AC JUMPI PUSH2 0x9AC PUSH2 0x14BB JUMP JUMPDEST PUSH1 0x20 MUL PUSH1 0x20 ADD ADD DUP2 SWAP1 MSTORE POP DUP1 DUP1 PUSH2 0x9C2 SWAP1 PUSH2 0x14D1 JUMP JUMPDEST SWAP2 POP POP PUSH2 0x859 JUMP JUMPDEST POP SWAP2 SWAP1 POP JUMP JUMPDEST PUSH1 0x0 DUP2 DUP2 MSTORE PUSH1 0x1 PUSH1 0x20 MSTORE PUSH1 0x40 DUP2 KECCAK256 DUP1 SLOAD SWAP1 SWAP2 SUB PUSH2 0x9FF JUMPI PUSH1 0x40 MLOAD PUSH3 0x461BCD PUSH1 0xE5 SHL DUP2 MSTORE PUSH1 0x4 ADD PUSH2 0x30A SWAP1 PUSH2 0x1434 JUMP JUMPDEST PUSH1 0x0 PUSH1 0x7 DUP3 ADD SLOAD PUSH1 0xFF AND PUSH1 0x2 DUP2 GT ISZERO PUSH2 0xA1A JUMPI PUSH2 0xA1A PUSH2 0x110F JUMP JUMPDEST EQ PUSH2 0xA37 JUMPI PUSH1 0x40 MLOAD PUSH3 0x461BCD PUSH1 0xE5 SHL DUP2 MSTORE PUSH1 0x4 ADD PUSH2 0x30A SWAP1 PUSH2 0x1463 JUMP JUMPDEST PUSH1 0x0 DUP2 PUSH1 0x6 ADD SLOAD GT PUSH2 0xA7D JUMPI PUSH1 0x40 MLOAD PUSH3 0x461BCD PUSH1 0xE5 SHL DUP2 MSTORE PUSH1 0x20 PUSH1 0x4 DUP3 ADD MSTORE PUSH1 0xF PUSH1 0x24 DUP3 ADD MSTORE PUSH15 0x139BC8191958591B1A5B99481CD95D PUSH1 0x8A SHL PUSH1 0x44 DUP3 ADD MSTORE PUSH1 0x64 ADD PUSH2 0x30A JUMP JUMPDEST DUP1 PUSH1 0x6 ADD SLOAD TIMESTAMP LT ISZERO PUSH2 0xAC6 JUMPI PUSH1 0x40 MLOAD PUSH3 0x461BCD PUSH1 0xE5 SHL DUP2 MSTORE PUSH1 0x20 PUSH1 0x4 DUP3 ADD MSTORE PUSH1 0x12 PUSH1 0x24 DUP3 ADD MSTORE PUSH18 0x115CD8DC9BDDC81B9BDD08195E1C1A5C9959 PUSH1 0x72 SHL PUSH1 0x44 DUP3 ADD MSTORE PUSH1 0x64 ADD PUSH2 0x30A JUMP JUMPDEST PUSH1 0x7 DUP2 ADD DUP1 SLOAD PUSH1 0xFF NOT AND PUSH1 0x2 OR SWAP1 SSTORE PUSH1 0x3 DUP2 ADD DUP1 SLOAD PUSH1 0x0 SWAP2 DUP3 SWAP1 SSTORE PUSH1 0x1 DUP4 ADD SLOAD PUSH1 0x40 MLOAD SWAP2 SWAP3 SWAP2 PUSH1 0x1 PUSH1 0x1 PUSH1 0xA0 SHL SUB SWAP1 SWAP2 AND SWAP1 DUP4 SWAP1 DUP4 DUP2 DUP2 DUP2 DUP6 DUP8 GAS CALL SWAP3 POP POP POP RETURNDATASIZE DUP1 PUSH1 0x0 DUP2 EQ PUSH2 0xB32 JUMPI PUSH1 0x40 MLOAD SWAP2 POP PUSH1 0x1F NOT PUSH1 0x3F RETURNDATASIZE ADD AND DUP3 ADD PUSH1 0x40 MSTORE RETURNDATASIZE DUP3 MSTORE RETURNDATASIZE PUSH1 0x0 PUSH1 0x20 DUP5 ADD RETURNDATACOPY PUSH2 0xB37 JUMP JUMPDEST PUSH1 0x60 SWAP2 POP JUMPDEST POP POP SWAP1 POP DUP1 PUSH2 0xB88 JUMPI PUSH1 0x40 MLOAD PUSH3 0x461BCD PUSH1 0xE5 SHL DUP2 MSTORE PUSH1 0x20 PUSH1 0x4 DUP3 ADD MSTORE PUSH1 0x1A PUSH1 0x24 DUP3 ADD MSTORE PUSH32 0x45544820726566756E6420746F206275796572206661696C6564000000000000 PUSH1 0x44 DUP3 ADD MSTORE PUSH1 0x64 ADD PUSH2 0x30A JUMP JUMPDEST PUSH1 0x1 DUP4 ADD SLOAD PUSH1 0x40 DUP1 MLOAD DUP5 DUP2 MSTORE TIMESTAMP PUSH1 0x20 DUP3 ADD MSTORE PUSH1 0x1 PUSH1 0x1 PUSH1 0xA0 SHL SUB SWAP1 SWAP3 AND SWAP2 DUP7 SWAP2 PUSH32 0xE0A935FCD7105F5F86626C3F7A4A5D24ACE8BA46CBC49B85035BF98B130D3B1F SWAP2 ADD PUSH1 0x40 MLOAD DUP1 SWAP2 SUB SWAP1 LOG3 PUSH1 0x1 DUP4 ADD SLOAD PUSH1 0x40 DUP1 MLOAD DUP5 DUP2 MSTORE TIMESTAMP PUSH1 0x20 DUP3 ADD MSTORE PUSH1 0x1 PUSH1 0x1 PUSH1 0xA0 SHL SUB SWAP1 SWAP3 AND SWAP2 DUP7 SWAP2 PUSH32 0xCD18DF019A83A0B54E163A95ED35F839543D788500C3C719630F5784FAD0B35B SWAP2 ADD PUSH2 0x4A5 JUMP JUMPDEST PUSH1 0x0 DUP2 DUP2 MSTORE PUSH1 0x1 PUSH1 0x20 DUP2 DUP2 MSTORE PUSH1 0x40 DUP1 DUP5 KECCAK256 DUP2 MLOAD PUSH2 0x100 DUP2 ADD DUP4 MSTORE DUP2 SLOAD DUP2 MSTORE SWAP4 DUP2 ADD SLOAD PUSH1 0x1 PUSH1 0x1 PUSH1 0xA0 SHL SUB SWAP1 DUP2 AND SWAP4 DUP6 ADD SWAP4 SWAP1 SWAP4 MSTORE PUSH1 0x2 DUP2 ADD SLOAD SWAP1 SWAP3 AND SWAP1 DUP4 ADD MSTORE PUSH1 0x3 DUP2 ADD SLOAD PUSH1 0x60 DUP4 ADD MSTORE PUSH1 0x4 DUP2 ADD DUP1 SLOAD DUP5 SWAP4 SWAP3 SWAP2 PUSH1 0x80 DUP5 ADD SWAP2 PUSH2 0xC7D SWAP1 PUSH2 0x1400 JUMP JUMPDEST DUP1 PUSH1 0x1F ADD PUSH1 0x20 DUP1 SWAP2 DIV MUL PUSH1 0x20 ADD PUSH1 0x40 MLOAD SWAP1 DUP2 ADD PUSH1 0x40 MSTORE DUP1 SWAP3 SWAP2 SWAP1 DUP2 DUP2 MSTORE PUSH1 0x20 ADD DUP3 DUP1 SLOAD PUSH2 0xCA9 SWAP1 PUSH2 0x1400 JUMP JUMPDEST DUP1 ISZERO PUSH2 0xCF6 JUMPI DUP1 PUSH1 0x1F LT PUSH2 0xCCB JUMPI PUSH2 0x100 DUP1 DUP4 SLOAD DIV MUL DUP4 MSTORE SWAP2 PUSH1 0x20 ADD SWAP2 PUSH2 0xCF6 JUMP JUMPDEST DUP3 ADD SWAP2 SWAP1 PUSH1 0x0 MSTORE PUSH1 0x20 PUSH1 0x0 KECCAK256 SWAP1 JUMPDEST DUP2 SLOAD DUP2 MSTORE SWAP1 PUSH1 0x1 ADD SWAP1 PUSH1 0x20 ADD DUP1 DUP4 GT PUSH2 0xCD9 JUMPI DUP3 SWAP1 SUB PUSH1 0x1F AND DUP3 ADD SWAP2 JUMPDEST POP POP POP SWAP2 DUP4 MSTORE POP POP PUSH1 0x5 DUP3 ADD SLOAD PUSH1 0x20 DUP3 ADD MSTORE PUSH1 0x6 DUP3 ADD SLOAD PUSH1 0x40 DUP3 ADD MSTORE PUSH1 0x7 DUP3 ADD SLOAD PUSH1 0x60 SWAP1 SWAP2 ADD SWAP1 PUSH1 0xFF AND PUSH1 0x2 DUP2 GT ISZERO PUSH2 0xD31 JUMPI PUSH2 0xD31 PUSH2 0x110F JUMP JUMPDEST PUSH1 0x2 DUP2 GT ISZERO PUSH2 0xD42 JUMPI PUSH2 0xD42 PUSH2 0x110F JUMP JUMPDEST SWAP1 MSTORE POP DUP1 MLOAD SWAP1 SWAP2 POP PUSH1 0x0 SUB PUSH2 0xD69 JUMPI PUSH1 0x40 MLOAD PUSH3 0x461BCD PUSH1 0xE5 SHL DUP2 MSTORE PUSH1 0x4 ADD PUSH2 0x30A SWAP1 PUSH2 0x1434 JUMP JUMPDEST PUSH1 0x0 DUP2 PUSH1 0xE0 ADD MLOAD PUSH1 0x2 DUP2 GT ISZERO PUSH2 0xD81 JUMPI PUSH2 0xD81 PUSH2 0x110F JUMP JUMPDEST EQ DUP1 ISZERO PUSH2 0xD92 JUMPI POP PUSH1 0x0 DUP2 PUSH1 0xC0 ADD MLOAD GT JUMPDEST DUP1 ISZERO PUSH2 0xDA2 JUMPI POP DUP1 PUSH1 0xC0 ADD MLOAD TIMESTAMP LT ISZERO JUMPDEST SWAP4 SWAP3 POP POP POP JUMP JUMPDEST PUSH2 0xDB4 DUP4 DUP4 DUP4 PUSH2 0xDB9 JUMP JUMPDEST POP POP POP JUMP JUMPDEST PUSH1 0x1 PUSH1 0x1 PUSH1 0xA0 SHL SUB DUP4 AND PUSH2 0xE0F JUMPI PUSH1 0x40 MLOAD PUSH3 0x461BCD PUSH1 0xE5 SHL DUP2 MSTORE PUSH1 0x20 PUSH1 0x4 DUP3 ADD MSTORE PUSH1 0x1D PUSH1 0x24 DUP3 ADD MSTORE PUSH32 0x53656C6C65722063616E6E6F74206265207A65726F2061646472657373000000 PUSH1 0x44 DUP3 ADD MSTORE PUSH1 0x64 ADD PUSH2 0x30A JUMP JUMPDEST CALLER PUSH1 0x1 PUSH1 0x1 PUSH1 0xA0 SHL SUB DUP5 AND SUB PUSH2 0xE67 JUMPI PUSH1 0x40 MLOAD PUSH3 0x461BCD PUSH1 0xE5 SHL DUP2 MSTORE PUSH1 0x20 PUSH1 0x4 DUP3 ADD MSTORE PUSH1 0x1F PUSH1 0x24 DUP3 ADD MSTORE PUSH32 0x427579657220616E642073656C6C65722063616E6E6F742062652073616D6500 PUSH1 0x44 DUP3 ADD MSTORE PUSH1 0x64 ADD PUSH2 0x30A JUMP JUMPDEST PUSH1 0x0 CALLVALUE GT PUSH2 0xEB7 JUMPI PUSH1 0x40 MLOAD PUSH3 0x461BCD PUSH1 0xE5 SHL DUP2 MSTORE PUSH1 0x20 PUSH1 0x4 DUP3 ADD DUP2 SWAP1 MSTORE PUSH1 0x24 DUP3 ADD MSTORE PUSH32 0x416D6F756E74206D7573742062652067726561746572207468616E207A65726F PUSH1 0x44 DUP3 ADD MSTORE PUSH1 0x64 ADD PUSH2 0x30A JUMP JUMPDEST PUSH1 0x1 PUSH1 0x0 DUP1 DUP3 DUP3 SLOAD PUSH2 0xEC9 SWAP2 SWAP1 PUSH2 0x14EA JUMP JUMPDEST SWAP1 SWAP2 SSTORE POP PUSH1 0x0 SWAP1 POP DUP2 ISZERO PUSH2 0xEF1 JUMPI PUSH2 0xEE4 DUP3 PUSH3 0x15180 PUSH2 0x14FD JUMP JUMPDEST PUSH2 0xEEE SWAP1 TIMESTAMP PUSH2 0x14EA JUMP JUMPDEST SWAP1 POP JUMPDEST PUSH1 0x40 MLOAD DUP1 PUSH2 0x100 ADD PUSH1 0x40 MSTORE DUP1 PUSH1 0x0 SLOAD DUP2 MSTORE PUSH1 0x20 ADD CALLER PUSH1 0x1 PUSH1 0x1 PUSH1 0xA0 SHL SUB AND DUP2 MSTORE PUSH1 0x20 ADD DUP6 PUSH1 0x1 PUSH1 0x1 PUSH1 0xA0 SHL SUB AND DUP2 MSTORE PUSH1 0x20 ADD CALLVALUE DUP2 MSTORE PUSH1 0x20 ADD DUP5 DUP2 MSTORE PUSH1 0x20 ADD TIMESTAMP DUP2 MSTORE PUSH1 0x20 ADD DUP3 DUP2 MSTORE PUSH1 0x20 ADD PUSH1 0x0 PUSH1 0x2 DUP2 GT ISZERO PUSH2 0xF4E JUMPI PUSH2 0xF4E PUSH2 0x110F JUMP JUMPDEST SWAP1 MSTORE PUSH1 0x0 DUP1 SLOAD DUP2 MSTORE PUSH1 0x1 PUSH1 0x20 DUP2 DUP2 MSTORE PUSH1 0x40 SWAP3 DUP4 SWAP1 KECCAK256 DUP5 MLOAD DUP2 SSTORE SWAP1 DUP5 ADD MLOAD SWAP2 DUP2 ADD DUP1 SLOAD PUSH1 0x1 PUSH1 0x1 PUSH1 0xA0 SHL SUB SWAP4 DUP5 AND PUSH1 0x1 PUSH1 0x1 PUSH1 0xA0 SHL SUB NOT SWAP2 DUP3 AND OR SWAP1 SWAP2 SSTORE SWAP3 DUP5 ADD MLOAD PUSH1 0x2 DUP3 ADD DUP1 SLOAD SWAP2 SWAP1 SWAP4 AND SWAP4 AND SWAP3 SWAP1 SWAP3 OR SWAP1 SSTORE PUSH1 0x60 DUP3 ADD MLOAD PUSH1 0x3 DUP3 ADD SSTORE PUSH1 0x80 DUP3 ADD MLOAD PUSH1 0x4 DUP3 ADD SWAP1 PUSH2 0xFBF SWAP1 DUP3 PUSH2 0x1562 JUMP JUMPDEST POP PUSH1 0xA0 DUP3 ADD MLOAD PUSH1 0x5 DUP3 ADD SSTORE PUSH1 0xC0 DUP3 ADD MLOAD PUSH1 0x6 DUP3 ADD SSTORE PUSH1 0xE0 DUP3 ADD MLOAD PUSH1 0x7 DUP3 ADD DUP1 SLOAD PUSH1 0xFF NOT AND PUSH1 0x1 DUP4 PUSH1 0x2 DUP2 GT ISZERO PUSH2 0xFF7 JUMPI PUSH2 0xFF7 PUSH2 0x110F JUMP JUMPDEST MUL OR SWAP1 SSTORE POP SWAP1 POP POP DUP4 PUSH1 0x1 PUSH1 0x1 PUSH1 0xA0 SHL SUB AND CALLER PUSH1 0x1 PUSH1 0x1 PUSH1 0xA0 SHL SUB AND PUSH1 0x0 SLOAD PUSH32 0xC6900C839781D123B52B6EC7716E349576DFD3DF9E75BD66FA44E49823F59FFF CALLVALUE DUP8 TIMESTAMP PUSH1 0x40 MLOAD PUSH2 0x7EE SWAP4 SWAP3 SWAP2 SWAP1 PUSH2 0x1622 JUMP JUMPDEST PUSH1 0x40 MLOAD DUP1 PUSH2 0x100 ADD PUSH1 0x40 MSTORE DUP1 PUSH1 0x0 DUP2 MSTORE PUSH1 0x20 ADD PUSH1 0x0 PUSH1 0x1 PUSH1 0x1 PUSH1 0xA0 SHL SUB AND DUP2 MSTORE PUSH1 0x20 ADD PUSH1 0x0 PUSH1 0x1 PUSH1 0x1 PUSH1 0xA0 SHL SUB AND DUP2 MSTORE PUSH1 0x20 ADD PUSH1 0x0 DUP2 MSTORE PUSH1 0x20 ADD PUSH1 0x60 DUP2 MSTORE PUSH1 0x20 ADD PUSH1 0x0 DUP2 MSTORE PUSH1 0x20 ADD PUSH1 0x0 DUP2 MSTORE PUSH1 0x20 ADD PUSH1 0x0 PUSH1 0x2 DUP2 GT ISZERO PUSH2 0x10AB JUMPI PUSH2 0x10AB PUSH2 0x110F JUMP JUMPDEST SWAP1 MSTORE SWAP1 JUMP JUMPDEST PUSH1 0x0 PUSH1 0x20 DUP3 DUP5 SUB SLT ISZERO PUSH2 0x10C2 JUMPI PUSH1 0x0 DUP1 REVERT JUMPDEST POP CALLDATALOAD SWAP2 SWAP1 POP JUMP JUMPDEST PUSH1 0x0 DUP2 MLOAD DUP1 DUP5 MSTORE PUSH1 0x0 JUMPDEST DUP2 DUP2 LT ISZERO PUSH2 0x10EF JUMPI PUSH1 0x20 DUP2 DUP6 ADD DUP2 ADD MLOAD DUP7 DUP4 ADD DUP3 ADD MSTORE ADD PUSH2 0x10D3 JUMP JUMPDEST POP PUSH1 0x0 PUSH1 0x20 DUP3 DUP7 ADD ADD MSTORE PUSH1 0x20 PUSH1 0x1F NOT PUSH1 0x1F DUP4 ADD AND DUP6 ADD ADD SWAP2 POP POP SWAP3 SWAP2 POP POP JUMP JUMPDEST PUSH4 0x4E487B71 PUSH1 0xE0 SHL PUSH1 0x0 MSTORE PUSH1 0x21 PUSH1 0x4 MSTORE PUSH1 0x24 PUSH1 0x0 REVERT JUMPDEST PUSH1 0x3 DUP2 LT PUSH2 0x1143 JUMPI PUSH4 0x4E487B71 PUSH1 0xE0 SHL PUSH1 0x0 MSTORE PUSH1 0x21 PUSH1 0x4 MSTORE PUSH1 0x24 PUSH1 0x0 REVERT JUMPDEST SWAP1 MSTORE JUMP JUMPDEST DUP9 DUP2 MSTORE PUSH1 0x1 PUSH1 0x1 PUSH1 0xA0 SHL SUB DUP9 DUP2 AND PUSH1 0x20 DUP4 ADD MSTORE DUP8 AND PUSH1 0x40 DUP3 ADD MSTORE PUSH1 0x60 DUP2 ADD DUP7 SWAP1 MSTORE PUSH2 0x100 PUSH1 0x80 DUP3 ADD DUP2 SWAP1 MSTORE PUSH1 0x0 SWAP1 PUSH2 0x1181 DUP4 DUP3 ADD DUP9 PUSH2 0x10C9 JUMP JUMPDEST SWAP2 POP POP DUP5 PUSH1 0xA0 DUP4 ADD MSTORE DUP4 PUSH1 0xC0 DUP4 ADD MSTORE PUSH2 0x119D PUSH1 0xE0 DUP4 ADD DUP5 PUSH2 0x1125 JUMP JUMPDEST SWAP10 SWAP9 POP POP POP POP POP POP POP POP POP JUMP JUMPDEST DUP1 CALLDATALOAD PUSH1 0x1 PUSH1 0x1 PUSH1 0xA0 SHL SUB DUP2 AND DUP2 EQ PUSH2 0x11C1 JUMPI PUSH1 0x0 DUP1 REVERT JUMPDEST SWAP2 SWAP1 POP JUMP JUMPDEST PUSH4 0x4E487B71 PUSH1 0xE0 SHL PUSH1 0x0 MSTORE PUSH1 0x41 PUSH1 0x4 MSTORE PUSH1 0x24 PUSH1 0x0 REVERT JUMPDEST PUSH1 0x0 DUP3 PUSH1 0x1F DUP4 ADD SLT PUSH2 0x11ED JUMPI PUSH1 0x0 DUP1 REVERT JUMPDEST DUP2 CALLDATALOAD PUSH8 0xFFFFFFFFFFFFFFFF DUP1 DUP3 GT ISZERO PUSH2 0x1208 JUMPI PUSH2 0x1208 PUSH2 0x11C6 JUMP JUMPDEST PUSH1 0x40 MLOAD PUSH1 0x1F DUP4 ADD PUSH1 0x1F NOT SWAP1 DUP2 AND PUSH1 0x3F ADD AND DUP2 ADD SWAP1 DUP3 DUP3 GT DUP2 DUP4 LT OR ISZERO PUSH2 0x1230 JUMPI PUSH2 0x1230 PUSH2 0x11C6 JUMP JUMPDEST DUP2 PUSH1 0x40 MSTORE DUP4 DUP2 MSTORE DUP7 PUSH1 0x20 DUP6 DUP9 ADD ADD GT ISZERO PUSH2 0x1249 JUMPI PUSH1 0x0 DUP1 REVERT JUMPDEST DUP4 PUSH1 0x20 DUP8 ADD PUSH1 0x20 DUP4 ADD CALLDATACOPY PUSH1 0x0 PUSH1 0x20 DUP6 DUP4 ADD ADD MSTORE DUP1 SWAP5 POP POP POP POP POP SWAP3 SWAP2 POP POP JUMP JUMPDEST PUSH1 0x0 DUP1 PUSH1 0x40 DUP4 DUP6 SUB SLT ISZERO PUSH2 0x127C JUMPI PUSH1 0x0 DUP1 REVERT JUMPDEST PUSH2 0x1285 DUP4 PUSH2 0x11AA JUMP JUMPDEST SWAP2 POP PUSH1 0x20 DUP4 ADD CALLDATALOAD PUSH8 0xFFFFFFFFFFFFFFFF DUP2 GT ISZERO PUSH2 0x12A1 JUMPI PUSH1 0x0 DUP1 REVERT JUMPDEST PUSH2 0x12AD DUP6 DUP3 DUP7 ADD PUSH2 0x11DC JUMP JUMPDEST SWAP2 POP POP SWAP3 POP SWAP3 SWAP1 POP JUMP JUMPDEST PUSH1 0x0 PUSH2 0x100 DUP3 MLOAD DUP5 MSTORE PUSH1 0x20 DUP4 ADD MLOAD PUSH1 0x1 DUP1 PUSH1 0xA0 SHL SUB DUP1 DUP3 AND PUSH1 0x20 DUP8 ADD MSTORE DUP1 PUSH1 0x40 DUP7 ADD MLOAD AND PUSH1 0x40 DUP8 ADD MSTORE POP POP PUSH1 0x60 DUP4 ADD MLOAD PUSH1 0x60 DUP6 ADD MSTORE PUSH1 0x80 DUP4 ADD MLOAD DUP2 PUSH1 0x80 DUP7 ADD MSTORE PUSH2 0x1303 DUP3 DUP7 ADD DUP3 PUSH2 0x10C9 JUMP JUMPDEST SWAP2 POP POP PUSH1 0xA0 DUP4 ADD MLOAD PUSH1 0xA0 DUP6 ADD MSTORE PUSH1 0xC0 DUP4 ADD MLOAD PUSH1 0xC0 DUP6 ADD MSTORE PUSH1 0xE0 DUP4 ADD MLOAD PUSH2 0x132C PUSH1 0xE0 DUP7 ADD DUP3 PUSH2 0x1125 JUMP JUMPDEST POP SWAP4 SWAP3 POP POP POP JUMP JUMPDEST PUSH1 0x20 DUP2 MSTORE PUSH1 0x0 PUSH2 0xDA2 PUSH1 0x20 DUP4 ADD DUP5 PUSH2 0x12B7 JUMP JUMPDEST PUSH1 0x0 PUSH1 0x20 DUP1 DUP4 ADD DUP2 DUP5 MSTORE DUP1 DUP6 MLOAD DUP1 DUP4 MSTORE PUSH1 0x40 DUP7 ADD SWAP2 POP PUSH1 0x40 DUP2 PUSH1 0x5 SHL DUP8 ADD ADD SWAP3 POP DUP4 DUP8 ADD PUSH1 0x0 JUMPDEST DUP3 DUP2 LT ISZERO PUSH2 0x139C JUMPI PUSH1 0x3F NOT DUP9 DUP7 SUB ADD DUP5 MSTORE PUSH2 0x138A DUP6 DUP4 MLOAD PUSH2 0x12B7 JUMP JUMPDEST SWAP5 POP SWAP3 DUP6 ADD SWAP3 SWAP1 DUP6 ADD SWAP1 PUSH1 0x1 ADD PUSH2 0x136E JUMP JUMPDEST POP SWAP3 SWAP8 SWAP7 POP POP POP POP POP POP POP JUMP JUMPDEST PUSH1 0x0 DUP1 PUSH1 0x0 PUSH1 0x60 DUP5 DUP7 SUB SLT ISZERO PUSH2 0x13BE JUMPI PUSH1 0x0 DUP1 REVERT JUMPDEST PUSH2 0x13C7 DUP5 PUSH2 0x11AA JUMP JUMPDEST SWAP3 POP PUSH1 0x20 DUP5 ADD CALLDATALOAD PUSH8 0xFFFFFFFFFFFFFFFF DUP2 GT ISZERO PUSH2 0x13E3 JUMPI PUSH1 0x0 DUP1 REVERT JUMPDEST PUSH2 0x13EF DUP7 DUP3 DUP8 ADD PUSH2 0x11DC JUMP JUMPDEST SWAP3 POP POP PUSH1 0x40 DUP5 ADD CALLDATALOAD SWAP1 POP SWAP3 POP SWAP3 POP SWAP3 JUMP JUMPDEST PUSH1 0x1 DUP2 DUP2 SHR SWAP1 DUP3 AND DUP1 PUSH2 0x1414 JUMPI PUSH1 0x7F DUP3 AND SWAP2 POP JUMPDEST PUSH1 0x20 DUP3 LT DUP2 SUB PUSH2 0x9CA JUMPI PUSH4 0x4E487B71 PUSH1 0xE0 SHL PUSH1 0x0 MSTORE PUSH1 0x22 PUSH1 0x4 MSTORE PUSH1 0x24 PUSH1 0x0 REVERT JUMPDEST PUSH1 0x20 DUP1 DUP3 MSTORE PUSH1 0x15 SWAP1 DUP3 ADD MSTORE PUSH21 0x115CD8DC9BDDC8191BD95CC81B9BDD08195E1A5CDD PUSH1 0x5A SHL PUSH1 0x40 DUP3 ADD MSTORE PUSH1 0x60 ADD SWAP1 JUMP JUMPDEST PUSH1 0x20 DUP1 DUP3 MSTORE PUSH1 0x15 SWAP1 DUP3 ADD MSTORE PUSH21 0x457363726F77206973206E6F742070656E64696E67 PUSH1 0x58 SHL PUSH1 0x40 DUP3 ADD MSTORE PUSH1 0x60 ADD SWAP1 JUMP JUMPDEST PUSH4 0x4E487B71 PUSH1 0xE0 SHL PUSH1 0x0 MSTORE PUSH1 0x11 PUSH1 0x4 MSTORE PUSH1 0x24 PUSH1 0x0 REVERT JUMPDEST DUP2 DUP2 SUB DUP2 DUP2 GT ISZERO PUSH2 0x616 JUMPI PUSH2 0x616 PUSH2 0x1492 JUMP JUMPDEST PUSH4 0x4E487B71 PUSH1 0xE0 SHL PUSH1 0x0 MSTORE PUSH1 0x32 PUSH1 0x4 MSTORE PUSH1 0x24 PUSH1 0x0 REVERT JUMPDEST PUSH1 0x0 PUSH1 0x1 DUP3 ADD PUSH2 0x14E3 JUMPI PUSH2 0x14E3 PUSH2 0x1492 JUMP JUMPDEST POP PUSH1 0x1 ADD SWAP1 JUMP JUMPDEST DUP1 DUP3 ADD DUP1 DUP3 GT ISZERO PUSH2 0x616 JUMPI PUSH2 0x616 PUSH2 0x1492 JUMP JUMPDEST DUP1 DUP3 MUL DUP2 ISZERO DUP3 DUP3 DIV DUP5 EQ OR PUSH2 0x616 JUMPI PUSH2 0x616 PUSH2 0x1492 JUMP JUMPDEST PUSH1 0x1F DUP3 GT ISZERO PUSH2 0xDB4 JUMPI PUSH1 0x0 DUP2 DUP2 MSTORE PUSH1 0x20 DUP2 KECCAK256 PUSH1 0x1F DUP6 ADD PUSH1 0x5 SHR DUP2 ADD PUSH1 0x20 DUP7 LT ISZERO PUSH2 0x153B JUMPI POP DUP1 JUMPDEST PUSH1 0x1F DUP6 ADD PUSH1 0x5 SHR DUP3 ADD SWAP2 POP JUMPDEST DUP2 DUP2 LT ISZERO PUSH2 0x155A JUMPI DUP3 DUP2 SSTORE PUSH1 0x1 ADD PUSH2 0x1547 JUMP JUMPDEST POP POP POP POP POP POP JUMP JUMPDEST DUP2 MLOAD PUSH8 0xFFFFFFFFFFFFFFFF DUP2 GT ISZERO PUSH2 0x157C JUMPI PUSH2 0x157C PUSH2 0x11C6 JUMP JUMPDEST PUSH2 0x1590 DUP2 PUSH2 0x158A DUP5 SLOAD PUSH2 0x1400 JUMP JUMPDEST DUP5 PUSH2 0x1514 JUMP JUMPDEST PUSH1 0x20 DUP1 PUSH1 0x1F DUP4 GT PUSH1 0x1 DUP2 EQ PUSH2 0x15C5 JUMPI PUSH1 0x0 DUP5 ISZERO PUSH2 0x15AD JUMPI POP DUP6 DUP4 ADD MLOAD JUMPDEST PUSH1 0x0 NOT PUSH1 0x3 DUP7 SWAP1 SHL SHR NOT AND PUSH1 0x1 DUP6 SWAP1 SHL OR DUP6 SSTORE PUSH2 0x155A JUMP JUMPDEST PUSH1 0x0 DUP6 DUP2 MSTORE PUSH1 0x20 DUP2 KECCAK256 PUSH1 0x1F NOT DUP7 AND SWAP2 JUMPDEST DUP3 DUP2 LT ISZERO PUSH2 0x15F4 JUMPI DUP9 DUP7 ADD MLOAD DUP3 SSTORE SWAP5 DUP5 ADD SWAP5 PUSH1 0x1 SWAP1 SWAP2 ADD SWAP1 DUP5 ADD PUSH2 0x15D5 JUMP JUMPDEST POP DUP6 DUP3 LT ISZERO PUSH2 0x1612 JUMPI DUP8 DUP6 ADD MLOAD PUSH1 0x0 NOT PUSH1 0x3 DUP9 SWAP1 SHL PUSH1 0xF8 AND SHR NOT AND DUP2 SSTORE JUMPDEST POP POP POP POP POP PUSH1 0x1 SWAP1 DUP2 SHL ADD SWAP1 SSTORE POP JUMP JUMPDEST DUP4 DUP2 MSTORE PUSH1 0x60 PUSH1 0x20 DUP3 ADD MSTORE PUSH1 0x0 PUSH2 0x163B PUSH1 0x60 DUP4 ADD DUP6 PUSH2 0x10C9 JUMP JUMPDEST SWAP1 POP DUP3 PUSH1 0x40 DUP4 ADD MSTORE SWAP5 SWAP4 POP POP POP POP JUMP INVALID LOG2 PUSH5 0x6970667358 0x22 SLT KECCAK256 PUSH20 0xCF44BAA565A7C4C7B746C8A18AE7B61CE1EB086A SWAP16 CODECOPY 0x4E PUSH14 0xF3F3B8AA42BA64736F6C634300 ADDMOD EQ STOP CALLER "},"methodIdentifiers":{"claimExpiredRefund(uint256)":"bcfcc8d5","createEscrow(address,string)":"3f407b4f","createEscrowWithDeadline(address,string,uint256)":"ecf0c7b5","escrowCount()":"675ac67a","escrows(uint256)":"012f52ee","getAllEscrows()":"9a6ac36f","getEscrow(uint256)":"7d19e596","isExpired(uint256)":"d9548e53","refundBuyer(uint256)":"39292763","releasePayment(uint256)":"88685cd9"}}}}}