{
  "_format": "hh-sol-artifact-1",
  "contractName": "EscrowInsurance",
  "sourceName": "contracts/EscrowInsurance.sol",
  "abi": [
    {
      "inputs": [],
      "stateMutability": "nonpayable",
      "type": "constructor"
    },
    {
      "anonymous": false,
      "inputs": [
        {
          "indexed": true,
          "internalType": "uint256",
          "name": "claimId",
          "type": "uint256"
        },
        {
          "indexed": true,
          "internalType": "uint256",
          "name": "policyId",
          "type": "uint256"
        },
        {
          "indexed": true,
          "internalType": "address",
          "name": "buyer",
          "type": "address"
        },
        {
          "indexed": false,
          "internalType": "uint256",
          "name": "amountRequested",
          "type": "uint256"
        }
      ],
      "name": "ClaimFiled",
      "type": "event"
    },
    {
      "anonymous": false,
      "inputs": [
        {
          "indexed": true,
          "internalType": "uint256",
          "name": "claimId",
          "type": "uint256"
        },
        {
          "indexed": false,
          "internalType": "enum EscrowInsurance.ClaimStatus",
          "name": "status",
          "type": "uint8"
        },
        {
          "indexed": false,
          "internalType": "uint256",
          "name": "payoutAmount",
          "type": "uint256"
        }
      ],
      "name": "ClaimResolved",
      "type": "event"
    },
    {
      "anonymous": false,
      "inputs": [
        {
          "indexed": true,
          "internalType": "uint256",
          "name": "claimId",
          "type": "uint256"
        },
        {
          "indexed": true,
          "internalType": "address",
          "name": "verifier",
          "type": "address"
        },
        {
          "indexed": false,
          "internalType": "bool",
          "name": "approved",
          "type": "bool"
        }
      ],
      "name": "ClaimVoted",
      "type": "event"
    },
    {
      "anonymous": false,
      "inputs": [
        {
          "indexed": true,
          "internalType": "uint256",
          "name": "policyId",
          "type": "uint256"
        },
        {
          "indexed": true,
          "internalType": "address",
          "name": "buyer",
          "type": "address"
        },
        {
          "indexed": true,
          "internalType": "uint256",
          "name": "escrowId",
          "type": "uint256"
        },
        {
          "indexed": false,
          "internalType": "uint256",
          "name": "coverageAmount",
          "type": "uint256"
        },
        {
          "indexed": false,
          "internalType": "uint256",
          "name": "premium",
          "type": "uint256"
        }
      ],
      "name": "PolicyCreated",
      "type": "event"
    },
    {
      "anonymous": false,
      "inputs": [
        {
          "indexed": true,
          "internalType": "address",
          "name": "staker",
          "type": "address"
        },
        {
          "indexed": false,
          "internalType": "uint256",
          "name": "amount",
          "type": "uint256"
        }
      ],
      "name": "RewardsClaimed",
      "type": "event"
    },
    {
      "anonymous": false,
      "inputs": [
        {
          "indexed": true,
          "internalType": "address",
          "name": "staker",
          "type": "address"
        },
        {
          "indexed": false,
          "internalType": "uint256",
          "name": "amount",
          "type": "uint256"
        },
        {
          "indexed": false,
          "internalType": "uint256",
          "name": "totalStaked",
          "type": "uint256"
        }
      ],
      "name": "Staked",
      "type": "event"
    },
    {
      "anonymous": false,
      "inputs": [
        {
          "indexed": true,
          "internalType": "address",
          "name": "staker",
          "type": "address"
        },
        {
          "indexed": false,
          "internalType": "uint256",
          "name": "amount",
          "type": "uint256"
        },
        {
          "indexed": false,
          "internalType": "uint256",
          "name": "rewards",
          "type": "uint256"
        }
      ],
      "name": "Unstaked",
      "type": "event"
    },
    {
      "inputs": [],
      "name": "CLAIM_WINDOW_DAYS",
      "outputs": [
        {
          "internalType": "uint256",
          "name": "",
          "type": "uint256"
        }
      ],
      "stateMutability": "view",
      "type": "function"
    },
    {
      "inputs": [],
      "name": "MAX_COVERAGE_BPS",
      "outputs": [
        {
          "internalType": "uint256",
          "name": "",
          "type": "uint256"
        }
      ],
      "stateMutability": "view",
      "type": "function"
    },
    {
      "inputs": [],
      "name": "MIN_STAKE",
      "outputs": [
        {
          "internalType": "uint256",
          "name": "",
          "type": "uint256"
        }
      ],
      "stateMutability": "view",
      "type": "function"
    },
    {
      "inputs": [],
      "name": "MIN_VERIFIER_VOTES",
      "outputs": [
        {
          "internalType": "uint256",
          "name": "",
          "type": "uint256"
        }
      ],
      "stateMutability": "view",
      "type": "function"
    },
    {
      "inputs": [],
      "name": "PREMIUM_RATE_BPS",
      "outputs": [
        {
          "internalType": "uint256",
          "name": "",
          "type": "uint256"
        }
      ],
      "stateMutability": "view",
      "type": "function"
    },
    {
      "inputs": [],
      "name": "REWARD_RATE_BPS",
      "outputs": [
        {
          "internalType": "uint256",
          "name": "",
          "type": "uint256"
        }
      ],
      "stateMutability": "view",
      "type": "function"
    },
    {
      "inputs": [
        {
          "internalType": "address",
          "name": "_verifier",
          "type": "address"
        }
      ],
      "name": "addVerifier",
      "outputs": [],
      "stateMutability": "nonpayable",
      "type": "function"
    },
    {
      "inputs": [],
      "name": "claimCount",
      "outputs": [
        {
          "internalType": "uint256",
          "name": "",
          "type": "uint256"
        }
      ],
      "stateMutability": "view",
      "type": "function"
    },
    {
      "inputs": [],
      "name": "claimRewards",
      "outputs": [],
      "stateMutability": "nonpayable",
      "type": "function"
    },
    {
      "inputs": [
        {
          "internalType": "uint256",
          "name": "",
          "type": "uint256"
        }
      ],
      "name": "claims",
      "outputs": [
        {
          "internalType": "uint256",
          "name": "id",
          "type": "uint256"
        },
        {
          "internalType": "uint256",
          "name": "policyId",
          "type": "uint256"
        },
        {
          "internalType": "string",
          "name": "reason",
          "type": "string"
        },
        {
          "internalType": "string",
          "name": "evidenceHash",
          "type": "string"
        },
        {
          "internalType": "uint256",
          "name": "amountRequested",
          "type": "uint256"
        },
        {
          "internalType": "enum EscrowInsurance.ClaimStatus",
          "name": "status",
          "type": "uint8"
        },
        {
          "internalType": "uint256",
          "name": "votesFor",
          "type": "uint256"
        },
        {
          "internalType": "uint256",
          "name": "votesAgainst",
          "type": "uint256"
        },
        {
          "internalType": "uint256",
          "name": "createdAt",
          "type": "uint256"
        },
        {
          "internalType": "uint256",
          "name": "resolvedAt",
          "type": "uint256"
        }
      ],
      "stateMutability": "view",
      "type": "function"
    },
    {
      "inputs": [
        {
          "internalType": "uint256",
          "name": "_amount",
          "type": "uint256"
        }
      ],
      "name": "emergencyWithdraw",
      "outputs": [],
      "stateMutability": "nonpayable",
      "type": "function"
    },
    {
      "inputs": [
        {
          "internalType": "uint256",
          "name": "_policyId",
          "type": "uint256"
        },
        {
          "internalType": "string",
          "name": "_reason",
          "type": "string"
        },
        {
          "internalType": "string",
          "name": "_evidenceHash",
          "type": "string"
        },
        {
          "internalType": "uint256",
          "name": "_amountRequested",
          "type": "uint256"
        }
      ],
      "name": "fileClaim",
      "outputs": [],
      "stateMutability": "nonpayable",
      "type": "function"
    },
    {
      "inputs": [
        {
          "internalType": "uint256",
          "name": "_claimId",
          "type": "uint256"
        }
      ],
      "name": "getClaim",
      "outputs": [
        {
          "components": [
            {
              "internalType": "uint256",
              "name": "id",
              "type": "uint256"
            },
            {
              "internalType": "uint256",
              "name": "policyId",
              "type": "uint256"
            },
            {
              "internalType": "string",
              "name": "reason",
              "type": "string"
            },
            {
              "internalType": "string",
              "name": "evidenceHash",
              "type": "string"
            },
            {
              "internalType": "uint256",
              "name": "amountRequested",
              "type": "uint256"
            },
            {
              "internalType": "enum EscrowInsurance.ClaimStatus",
              "name": "status",
              "type": "uint8"
            },
            {
              "internalType": "uint256",
              "name": "votesFor",
              "type": "uint256"
            },
            {
              "internalType": "uint256",
              "name": "votesAgainst",
              "type": "uint256"
            },
            {
              "internalType": "uint256",
              "name": "createdAt",
              "type": "uint256"
            },
            {
              "internalType": "uint256",
              "name": "resolvedAt",
              "type": "uint256"
            }
          ],
          "internalType": "struct EscrowInsurance.Claim",
          "name": "",
          "type": "tuple"
        }
      ],
      "stateMutability": "view",
      "type": "function"
    },
    {
      "inputs": [],
      "name": "getPendingClaims",
      "outputs": [
        {
          "internalType": "uint256[]",
          "name": "",
          "type": "uint256[]"
        }
      ],
      "stateMutability": "view",
      "type": "function"
    },
    {
      "inputs": [
        {
          "internalType": "uint256",
          "name": "_policyId",
          "type": "uint256"
        }
      ],
      "name": "getPolicy",
      "outputs": [
        {
          "components": [
            {
              "internalType": "uint256",
              "name": "id",
              "type": "uint256"
            },
            {
              "internalType": "address",
              "name": "buyer",
              "type": "address"
            },
            {
              "internalType": "uint256",
              "name": "escrowId",
              "type": "uint256"
            },
            {
              "internalType": "address",
              "name": "escrowContract",
              "type": "address"
            },
            {
              "internalType": "uint256",
              "name": "coverageAmount",
              "type": "uint256"
            },
            {
              "internalType": "uint256",
              "name": "premiumPaid",
              "type": "uint256"
            },
            {
              "internalType": "uint256",
              "name": "expiryDate",
              "type": "uint256"
            },
            {
              "internalType": "bool",
              "name": "claimed",
              "type": "bool"
            },
            {
              "internalType": "bool",
              "name": "isActive",
              "type": "bool"
            }
          ],
          "internalType": "struct EscrowInsurance.Policy",
          "name": "",
          "type": "tuple"
        }
      ],
      "stateMutability": "view",
      "type": "function"
    },
    {
      "inputs": [],
      "name": "getPoolStats",
      "outputs": [
        {
          "internalType": "uint256",
          "name": "totalStakedAmount",
          "type": "uint256"
        },
        {
          "internalType": "uint256",
          "name": "poolBalance",
          "type": "uint256"
        },
        {
          "internalType": "uint256",
          "name": "policyCountTotal",
          "type": "uint256"
        },
        {
          "internalType": "uint256",
          "name": "claimCountTotal",
          "type": "uint256"
        },
        {
          "internalType": "uint256",
          "name": "verifierCount",
          "type": "uint256"
        }
      ],
      "stateMutability": "view",
      "type": "function"
    },
    {
      "inputs": [
        {
          "internalType": "address",
          "name": "_staker",
          "type": "address"
        }
      ],
      "name": "getStakerInfo",
      "outputs": [
        {
          "internalType": "uint256",
          "name": "amount",
          "type": "uint256"
        },
        {
          "internalType": "uint256",
          "name": "accumulatedRewards",
          "type": "uint256"
        },
        {
          "internalType": "uint256",
          "name": "pendingRewards",
          "type": "uint256"
        },
        {
          "internalType": "uint256",
          "name": "total",
          "type": "uint256"
        }
      ],
      "stateMutability": "view",
      "type": "function"
    },
    {
      "inputs": [
        {
          "internalType": "address",
          "name": "_buyer",
          "type": "address"
        },
        {
          "internalType": "uint256",
          "name": "_escrowId",
          "type": "uint256"
        }
      ],
      "name": "hasPolicyForEscrow",
      "outputs": [
        {
          "internalType": "bool",
          "name": "",
          "type": "bool"
        }
      ],
      "stateMutability": "view",
      "type": "function"
    },
    {
      "inputs": [
        {
          "internalType": "uint256",
          "name": "",
          "type": "uint256"
        },
        {
          "internalType": "address",
          "name": "",
          "type": "address"
        }
      ],
      "name": "hasVoted",
      "outputs": [
        {
          "internalType": "bool",
          "name": "",
          "type": "bool"
        }
      ],
      "stateMutability": "view",
      "type": "function"
    },
    {
      "inputs": [
        {
          "internalType": "address",
          "name": "",
          "type": "address"
        }
      ],
      "name": "isVerifier",
      "outputs": [
        {
          "internalType": "bool",
          "name": "",
          "type": "bool"
        }
      ],
      "stateMutability": "view",
      "type": "function"
    },
    {
      "inputs": [],
      "name": "owner",
      "outputs": [
        {
          "internalType": "address",
          "name": "",
          "type": "address"
        }
      ],
      "stateMutability": "view",
      "type": "function"
    },
    {
      "inputs": [
        {
          "internalType": "uint256",
          "name": "",
          "type": "uint256"
        }
      ],
      "name": "policies",
      "outputs": [
        {
          "internalType": "uint256",
          "name": "id",
          "type": "uint256"
        },
        {
          "internalType": "address",
          "name": "buyer",
          "type": "address"
        },
        {
          "internalType": "uint256",
          "name": "escrowId",
          "type": "uint256"
        },
        {
          "internalType": "address",
          "name": "escrowContract",
          "type": "address"
        },
        {
          "internalType": "uint256",
          "name": "coverageAmount",
          "type": "uint256"
        },
        {
          "internalType": "uint256",
          "name": "premiumPaid",
          "type": "uint256"
        },
        {
          "internalType": "uint256",
          "name": "expiryDate",
          "type": "uint256"
        },
        {
          "internalType": "bool",
          "name": "claimed",
          "type": "bool"
        },
        {
          "internalType": "bool",
          "name": "isActive",
          "type": "bool"
        }
      ],
      "stateMutability": "view",
      "type": "function"
    },
    {
      "inputs": [],
      "name": "policyCount",
      "outputs": [
        {
          "internalType": "uint256",
          "name": "",
          "type": "uint256"
        }
      ],
      "stateMutability": "view",
      "type": "function"
    },
    {
      "inputs": [
        {
          "internalType": "uint256",
          "name": "_escrowId",
          "type": "uint256"
        },
        {
          "internalType": "address",
          "name": "_escrowContract",
          "type": "address"
        },
        {
          "internalType": "uint256",
          "name": "_escrowAmount",
          "type": "uint256"
        }
      ],
      "name": "purchasePolicy",
      "outputs": [],
      "stateMutability": "payable",
      "type": "function"
    },
    {
      "inputs": [
        {
          "internalType": "address",
          "name": "_verifier",
          "type": "address"
        }
      ],
      "name": "removeVerifier",
      "outputs": [],
      "stateMutability": "nonpayable",
      "type": "function"
    },
    {
      "inputs": [],
      "name": "stake",
      "outputs": [],
      "stateMutability": "payable",
      "type": "function"
    },
    {
      "inputs": [
        {
          "internalType": "address",
          "name": "",
          "type": "address"
        }
      ],
      "name": "stakers",
      "outputs": [
        {
          "internalType": "uint256",
          "name": "amount",
          "type": "uint256"
        },
        {
          "internalType": "uint256",
          "name": "stakedAt",
          "type": "uint256"
        },
        {
          "internalType": "uint256",
          "name": "lastRewardCalc",
          "type": "uint256"
        },
        {
          "internalType": "uint256",
          "name": "accumulatedRewards",
          "type": "uint256"
        }
      ],
      "stateMutability": "view",
      "type": "function"
    },
    {
      "inputs": [],
      "name": "totalPoolBalance",
      "outputs": [
        {
          "internalType": "uint256",
          "name": "",
          "type": "uint256"
        }
      ],
      "stateMutability": "view",
      "type": "function"
    },
    {
      "inputs": [],
      "name": "totalStaked",
      "outputs": [
        {
          "internalType": "uint256",
          "name": "",
          "type": "uint256"
        }
      ],
      "stateMutability": "view",
      "type": "function"
    },
    {
      "inputs": [
        {
          "internalType": "uint256",
          "name": "_amount",
          "type": "uint256"
        }
      ],
      "name": "unstake",
      "outputs": [],
      "stateMutability": "nonpayable",
      "type": "function"
    },
    {
      "inputs": [
        {
          "internalType": "uint256",
          "name": "",
          "type": "uint256"
        }
      ],
      "name": "verifiers",
      "outputs": [
        {
          "internalType": "address",
          "name": "",
          "type": "address"
        }
      ],
      "stateMutability": "view",
      "type": "function"
    },
    {
      "inputs": [
        {
          "internalType": "uint256",
          "name": "_claimId",
          "type": "uint256"
        },
        {
          "internalType": "bool",
          "name": "_approve",
          "type": "bool"
        }
      ],
      "name": "voteOnClaim",
      "outputs": [],
      "stateMutability": "nonpayable",
      "type": "function"
    },
    {
      "stateMutability": "payable",
      "type": "receive"
    }
  ],
  "bytecode": "0x608060405234801561001057600080fd5b50600a80546001600160a01b0319163317905561293f806100326000396000f3fe6080604052600436106101e65760003560e01c80639000b3d611610102578063bbb8518811610095578063cd37e6e811610064578063cd37e6e81461061e578063d3e8948314610633578063de54d429146106fb578063fb3fff9d1461071157600080fd5b8063bbb851881461057e578063c8dd96dc146105c2578063ca2dfd0a146105e2578063cb1c2b5c1461060257600080fd5b8063a888c2cd116100d1578063a888c2cd146104f2578063a90e3f7b14610528578063ac1eff681461053e578063b2871fce1461055e57600080fd5b80639000b3d6146104645780639168ae72146104845780639b4dc3ad146104c65780639da1a863146104dc57600080fd5b8063438596321161017a578063733bdef011610149578063733bdef0146103c0578063817b1cd2146104005780638da4d3c9146104165780638da5cb5b1461042c57600080fd5b806343859632146103145780635026d63e1461034f5780635312ea8e146103735780635aef24471461039357600080fd5b80632e17de78116101b65780632e17de781461029757806333105218146102b7578063372500ab146102f75780633a4b66f11461030c57600080fd5b80628179701461020a5780630132b588146102355780630ed6a89c1461024a5780632b07fce31461026a57600080fd5b366102055734600360008282546101fd919061226b565b925050819055005b600080fd5b34801561021657600080fd5b5061021f610726565b60405161022c919061227e565b60405180910390f35b6102486102433660046122de565b610849565b005b34801561025657600080fd5b50610248610265366004612313565b610b82565b34801561027657600080fd5b5061028a610285366004612348565b610da7565b60405161022c9190612361565b3480156102a357600080fd5b506102486102b2366004612348565b610ee4565b3480156102c357600080fd5b506102e76102d23660046123dd565b60086020526000908152604090205460ff1681565b604051901515815260200161022c565b34801561030357600080fd5b5061024861110d565b6102486112a4565b34801561032057600080fd5b506102e761032f3660046123ff565b600760209081526000928352604080842090915290825290205460ff1681565b34801561035b57600080fd5b5061036560035481565b60405190815260200161022c565b34801561037f57600080fd5b5061024861038e366004612348565b61139e565b34801561039f57600080fd5b506103b36103ae366004612348565b6114bd565b60405161022c91906124a9565b3480156103cc57600080fd5b506103e06103db3660046123dd565b6116ce565b60408051948552602085019390935291830152606082015260800161022c565b34801561040c57600080fd5b5061036560025481565b34801561042257600080fd5b5061036560015481565b34801561043857600080fd5b50600a5461044c906001600160a01b031681565b6040516001600160a01b03909116815260200161022c565b34801561047057600080fd5b5061024861047f3660046123dd565b6117a9565b34801561049057600080fd5b506103e061049f3660046123dd565b60066020526000908152604090208054600182015460028301546003909301549192909184565b3480156104d257600080fd5b506103656103e881565b3480156104e857600080fd5b5061036561138881565b3480156104fe57600080fd5b5061051261050d366004612348565b6118dd565b60405161022c9a99989796959493929190612552565b34801561053457600080fd5b506103656101f481565b34801561054a57600080fd5b5061044c610559366004612348565b611a41565b34801561056a57600080fd5b50610248610579366004612668565b611a6b565b34801561058a57600080fd5b50600254600354600054600154600954604080519586526020860194909452928401919091526060830152608082015260a00161022c565b3480156105ce57600080fd5b506102e76105dd3660046126dd565b611e3b565b3480156105ee57600080fd5b506102486105fd3660046123dd565b611ed2565b34801561060e57600080fd5b5061036567016345785d8a000081565b34801561062a57600080fd5b50610365601e81565b34801561063f57600080fd5b506106aa61064e366004612348565b60046020819052600091825260409091208054600182015460028301546003840154948401546005850154600686015460079096015494966001600160a01b039485169693959416939192909160ff8082169161010090041689565b60408051998a526001600160a01b0398891660208b0152890196909652959093166060870152608086019190915260a085015260c084015290151560e083015215156101008201526101200161022c565b34801561070757600080fd5b5061036560005481565b34801561071d57600080fd5b50610365600381565b6060600060015b60015481116107815760008181526005602081905260408220015460ff16600381111561075c5761075c612471565b0361076f578161076b81612707565b9250505b8061077981612707565b91505061072d565b5060008167ffffffffffffffff81111561079d5761079d6125c5565b6040519080825280602002602001820160405280156107c6578160200160208202803683370190505b509050600060015b60015481116108405760008181526005602081905260408220015460ff1660038111156107fd576107fd612471565b0361082e578083838151811061081557610815612720565b60209081029190910101528161082a81612707565b9250505b8061083881612707565b9150506107ce565b50909392505050565b600081116108965760405162461bcd60e51b8152602060048201526015602482015274125b9d985b1a5908195cd8dc9bddc8185b5bdd5b9d605a1b60448201526064015b60405180910390fd5b60006127106108a761138884612736565b6108b1919061274d565b905060006127106108c46101f484612736565b6108ce919061274d565b9050803410156109175760405162461bcd60e51b8152602060048201526014602482015273496e73756666696369656e74207072656d69756d60601b604482015260640161088d565b66038d7ea4c680008110156109625760405162461bcd60e51b8152602060048201526011602482015270141c995b5a5d5b481d1bdbc81cdb585b1b607a1b604482015260640161088d565b60008054908061097183612707565b91905055506040518061012001604052806000548152602001336001600160a01b03168152602001868152602001856001600160a01b03168152602001838152602001828152602001426276a7006109c9919061226b565b81526000602080830182905260016040938401819052825483526004808352848420865181559286015191830180546001600160a01b039384166001600160a01b03199182161790915594860151600284015560608601516003808501805492909416919096161790915560808501519082015560a0840151600582015560c0840151600682015560e08401516007909101805461010095860151151590950261ff00199215159290921661ffff1990951694909417179092558054839290610a9390849061226b565b9091555060009050610aa5823461276f565b90508015610b3757604051600090339083908381818185875af1925050503d8060008114610aef576040519150601f19603f3d011682016040523d82523d6000602084013e610af4565b606091505b5050905080610b355760405162461bcd60e51b815260206004820152600d60248201526c1499599d5b990819985a5b1959609a1b604482015260640161088d565b505b60005460408051858152602081018590528892339290917fdd4dcb2ef94f82921d5c77e9cf4e5c8dd423fb1de1310a243115b95316f2577791015b60405180910390a4505050505050565b3360009081526008602052604090205460ff16610bd15760405162461bcd60e51b815260206004820152600d60248201526c27b7363c903b32b934b334b2b960991b604482015260640161088d565b60008281526005602052604081208054909103610c275760405162461bcd60e51b815260206004820152601460248201527310db185a5b48191bd95cc81b9bdd08195e1a5cdd60621b604482015260640161088d565b6000600582015460ff166003811115610c4257610c42612471565b14610c835760405162461bcd60e51b8152602060048201526011602482015270436c61696d206e6f742070656e64696e6760781b604482015260640161088d565b600083815260076020908152604080832033845290915290205460ff1615610cdd5760405162461bcd60e51b815260206004820152600d60248201526c105b1c9958591e481d9bdd1959609a1b604482015260640161088d565b60008381526007602090815260408083203384529091529020805460ff191660011790558115610d2357600681018054906000610d1983612707565b9190505550610d3b565b600781018054906000610d3583612707565b91905055505b6040518215158152339084907fa1e955912100c483315820679942eee328fcd8cb60cede1485dc4c03ed7c428e9060200160405180910390a36003816006015410610d9057610d8b836001611f76565b505050565b6003816007015410610d8b57610d8b836000611f76565b610e0c6040518061012001604052806000815260200160006001600160a01b031681526020016000815260200160006001600160a01b031681526020016000815260200160008152602001600081526020016000151581526020016000151581525090565b6000828152600460208181526040808420815161012081018352815480825260018301546001600160a01b039081169583019590955260028301549382019390935260038201549093166060840152928301546080830152600583015460a0830152600683015460c083015260079092015460ff808216151560e084015261010091829004161515908201529103610ede5760405162461bcd60e51b8152602060048201526015602482015274141bdb1a58de48191bd95cc81b9bdd08195e1a5cdd605a1b604482015260640161088d565b92915050565b3360009081526006602052604090208054821115610f395760405162461bcd60e51b8152602060048201526012602482015271496e73756666696369656e74207374616b6560701b604482015260640161088d565b60008211610f7a5760405162461bcd60e51b815260206004820152600e60248201526d125b9d985b1a5908185b5bdd5b9d60921b604482015260640161088d565b610f8333612147565b60038101546000610f94828561226b565b9050806003541015610fe85760405162461bcd60e51b815260206004820152601b60248201527f496e73756666696369656e7420706f6f6c206c69717569646974790000000000604482015260640161088d565b83836000016000828254610ffc919061276f565b909155505060006003840181905542600280860191909155805486929061102490849061276f565b92505081905550806003600082825461103d919061276f565b9091555050604051600090339083908381818185875af1925050503d8060008114611084576040519150601f19603f3d011682016040523d82523d6000602084013e611089565b606091505b50509050806110cb5760405162461bcd60e51b815260206004820152600e60248201526d155b9cdd185ad94819985a5b195960921b604482015260640161088d565b604080518681526020810185905233917f7fc4727e062e336010f2c282598ef5f14facb3de68cf8195c2f23e1454b2b74e910160405180910390a25050505050565b61111633612147565b33600090815260066020526040902060038101548061116d5760405162461bcd60e51b81526020600482015260136024820152724e6f207265776172647320746f20636c61696d60681b604482015260640161088d565b8060035410156111bb5760405162461bcd60e51b8152602060048201526019602482015278496e73756666696369656e7420706f6f6c2062616c616e636560381b604482015260640161088d565b6000826003018190555080600360008282546111d7919061276f565b9091555050604051600090339083908381818185875af1925050503d806000811461121e576040519150601f19603f3d011682016040523d82523d6000602084013e611223565b606091505b505090508061126a5760405162461bcd60e51b815260206004820152601360248201527214995dd85c990818db185a5b4819985a5b1959606a1b604482015260640161088d565b60405182815233907ffc30cddea38e2bf4d6ea7d3f9ed3b6ad7f176419f4963bd81318067a4aee73fe9060200160405180910390a2505050565b67016345785d8a00003410156112ee5760405162461bcd60e51b815260206004820152600f60248201526e09ad2dcd2daeada40605c62408aa89608b1b604482015260640161088d565b6112f733612147565b33600090815260066020526040812080549091349183919061131a90849061226b565b90915550504260018201556002805434919060009061133a90849061226b565b925050819055503460036000828254611353919061226b565b9091555050805460405133917f1449c6dd7851abc30abf37f57715f492010519147cc2652fbc38202c18a6ee909161139391348252602082015260400190565b60405180910390a250565b600a546001600160a01b031633146113c85760405162461bcd60e51b815260040161088d90612782565b6003546113d5904761276f565b8111156114245760405162461bcd60e51b815260206004820152601c60248201527f43616e6e6f74207769746864726177207374616b65642066756e647300000000604482015260640161088d565b600a546040516000916001600160a01b03169083908381818185875af1925050503d8060008114611471576040519150601f19603f3d011682016040523d82523d6000602084013e611476565b606091505b50509050806114b95760405162461bcd60e51b815260206004820152600f60248201526e15da5d1a191c985dc819985a5b1959608a1b604482015260640161088d565b5050565b6114c56121f1565b60006005600084815260200190815260200160002060405180610140016040529081600082015481526020016001820154815260200160028201805461150a906127a6565b80601f0160208091040260200160405190810160405280929190818152602001828054611536906127a6565b80156115835780601f1061155857610100808354040283529160200191611583565b820191906000526020600020905b81548152906001019060200180831161156657829003601f168201915b5050505050815260200160038201805461159c906127a6565b80601f01602080910402602001604051908101604052809291908181526020018280546115c8906127a6565b80156116155780601f106115ea57610100808354040283529160200191611615565b820191906000526020600020905b8154815290600101906020018083116115f857829003601f168201915b505050918352505060048201546020820152600582015460409091019060ff16600381111561164657611646612471565b600381111561165757611657612471565b81526006820154602082015260078201546040820152600882015460608201526009909101546080909101528051909150600003610ede5760405162461bcd60e51b815260206004820152601460248201527310db185a5b48191bd95cc81b9bdd08195e1a5cdd60621b604482015260640161088d565b6001600160a01b038116600090815260066020908152604080832081516080810183528154808252600183015494820194909452600282015492810192909252600301546060820152829182918291829015801590611731575060008260400151115b1561177b576000826040015142611748919061276f565b905064496cebb800816103e885600001516117639190612736565b61176d9190612736565b611777919061274d565b9150505b81516060830151828061178e838561226b565b611798919061226b565b955095509550955050509193509193565b600a546001600160a01b031633146117d35760405162461bcd60e51b815260040161088d90612782565b6001600160a01b03811661181b5760405162461bcd60e51b815260206004820152600f60248201526e496e76616c6964206164647265737360881b604482015260640161088d565b6001600160a01b03811660009081526008602052604090205460ff16156118775760405162461bcd60e51b815260206004820152601060248201526f20b63932b0b23c903b32b934b334b2b960811b604482015260640161088d565b6001600160a01b03166000818152600860205260408120805460ff191660019081179091556009805491820181559091527f6e1540171b6c0c960b71a7020d9f60077f6af931a8bbf590da0223dacf75c7af0180546001600160a01b0319169091179055565b60056020526000908152604090208054600182015460028301805492939192611905906127a6565b80601f0160208091040260200160405190810160405280929190818152602001828054611931906127a6565b801561197e5780601f106119535761010080835404028352916020019161197e565b820191906000526020600020905b81548152906001019060200180831161196157829003601f168201915b505050505090806003018054611993906127a6565b80601f01602080910402602001604051908101604052809291908181526020018280546119bf906127a6565b8015611a0c5780601f106119e157610100808354040283529160200191611a0c565b820191906000526020600020905b8154815290600101906020018083116119ef57829003601f168201915b505050600484015460058501546006860154600787015460088801546009909801549697939660ff909316955090935091908a565b60098181548110611a5157600080fd5b6000918252602090912001546001600160a01b0316905081565b600084815260046020526040812054859103611ac15760405162461bcd60e51b8152602060048201526015602482015274141bdb1a58de48191bd95cc81b9bdd08195e1a5cdd605a1b604482015260640161088d565b600085815260046020526040902060018101546001600160a01b03163314611b1f5760405162461bcd60e51b815260206004820152601160248201527027b7363c903837b634b1bc90313abcb2b960791b604482015260640161088d565b6007810154610100900460ff16611b6c5760405162461bcd60e51b8152602060048201526011602482015270506f6c696379206e6f742061637469766560781b604482015260640161088d565b600781015460ff1615611bb35760405162461bcd60e51b815260206004820152600f60248201526e105b1c9958591e4818db185a5b5959608a1b604482015260640161088d565b8060060154421115611bf85760405162461bcd60e51b815260206004820152600e60248201526d141bdb1a58de48195e1c1a5c995960921b604482015260640161088d565b8060040154831115611c4c5760405162461bcd60e51b815260206004820152601860248201527f52657175657374206578636565647320636f7665726167650000000000000000604482015260640161088d565b60008311611c8d5760405162461bcd60e51b815260206004820152600e60248201526d125b9d985b1a5908185b5bdd5b9d60921b604482015260640161088d565b6000855111611cd05760405162461bcd60e51b815260206004820152600f60248201526e1499585cdbdb881c995c5d5a5c9959608a1b604482015260640161088d565b60078101805460ff191660019081179091558054906000611cf083612707565b9190505550604051806101400160405280600154815260200187815260200186815260200185815260200184815260200160006003811115611d3457611d34612471565b81526020016000815260200160008152602001428152602001600081525060056000600154815260200190815260200160002060008201518160000155602082015181600101556040820151816002019081611d90919061282e565b5060608201516003820190611da5908261282e565b506080820151600482015560a082015160058201805460ff19166001836003811115611dd357611dd3612471565b021790555060c0820151600682015560e08201516007820155610100820151600882015561012090910151600990910155600154604051848152339188917fc8603914e3f1abd8480f6cf59c1bbb877eb88842504f04a6f61ee53c8423baf990602001610b72565b600060015b6000548111611ec8576000818152600460205260409020600101546001600160a01b038581169116148015611e85575060008181526004602052604090206002015483145b8015611ea75750600081815260046020526040902060070154610100900460ff165b15611eb6576001915050610ede565b80611ec081612707565b915050611e40565b5060009392505050565b600a546001600160a01b03163314611efc5760405162461bcd60e51b815260040161088d90612782565b6001600160a01b03811660009081526008602052604090205460ff16611f555760405162461bcd60e51b815260206004820152600e60248201526d2737ba1030903b32b934b334b2b960911b604482015260640161088d565b6001600160a01b03166000908152600860205260409020805460ff19169055565b600082815260056020908152604080832060018101548452600490925290912082611fa2576002611fa5565b60015b60058301805460ff19166001836003811115611fc357611fc3612471565b021790555042600983015582156120ed5760058201805460ff191660039081179091556004830154905410156120375760405162461bcd60e51b8152602060048201526019602482015278496e73756666696369656e7420706f6f6c2062616c616e636560381b604482015260640161088d565b81600401546003600082825461204d919061276f565b9091555050600181015460048301546040516000926001600160a01b031691908381818185875af1925050503d80600081146120a5576040519150601f19603f3d011682016040523d82523d6000602084013e6120aa565b606091505b50509050806120eb5760405162461bcd60e51b815260206004820152600d60248201526c14185e5bdd5d0819985a5b1959609a1b604482015260640161088d565b505b600582015484907f0c036026cb1c908cd801e22f82db00b648a20768f1ac4d3422ddc557fd9fb7eb9060ff168561212557600061212b565b84600401545b6040516121399291906128ee565b60405180910390a250505050565b6001600160a01b03811660009081526006602052604090208054158061216f57506002810154155b1561217e574260029091015550565b6000816002015442612190919061276f565b905060006103e89050600064496cebb800838386600001546121b29190612736565b6121bc9190612736565b6121c6919061274d565b9050808460030160008282546121dc919061226b565b90915550504260029094019390935550505050565b60405180610140016040528060008152602001600081526020016060815260200160608152602001600081526020016000600381111561223357612233612471565b8152602001600081526020016000815260200160008152602001600081525090565b634e487b7160e01b600052601160045260246000fd5b80820180821115610ede57610ede612255565b6020808252825182820181905260009190848201906040850190845b818110156122b65783518352928401929184019160010161229a565b50909695505050505050565b80356001600160a01b03811681146122d957600080fd5b919050565b6000806000606084860312156122f357600080fd5b83359250612303602085016122c2565b9150604084013590509250925092565b6000806040838503121561232657600080fd5b823591506020830135801515811461233d57600080fd5b809150509250929050565b60006020828403121561235a57600080fd5b5035919050565b60006101208201905082518252602083015160018060a01b0380821660208501526040850151604085015280606086015116606085015250506080830151608083015260a083015160a083015260c083015160c083015260e08301516123cb60e084018215159052565b50610100928301511515919092015290565b6000602082840312156123ef57600080fd5b6123f8826122c2565b9392505050565b6000806040838503121561241257600080fd5b82359150612422602084016122c2565b90509250929050565b6000815180845260005b8181101561245157602081850181015186830182015201612435565b506000602082860101526020601f19601f83011685010191505092915050565b634e487b7160e01b600052602160045260246000fd5b600481106124a557634e487b7160e01b600052602160045260246000fd5b9052565b602081528151602082015260208201516040820152600060408301516101408060608501526124dc61016085018361242b565b91506060850151601f198584030160808601526124f9838261242b565b925050608085015160a085015260a085015161251860c0860182612487565b5060c085015160e0858101919091528501516101008086019190915285015161012080860191909152909401519390920192909252919050565b60006101408c83528b60208401528060408401526125728184018c61242b565b90508281036060840152612586818b61242b565b91505087608083015261259c60a0830188612487565b8560c08301528460e083015283610100830152826101208301529b9a5050505050505050505050565b634e487b7160e01b600052604160045260246000fd5b600082601f8301126125ec57600080fd5b813567ffffffffffffffff80821115612607576126076125c5565b604051601f8301601f19908116603f0116810190828211818310171561262f5761262f6125c5565b8160405283815286602085880101111561264857600080fd5b836020870160208301376000602085830101528094505050505092915050565b6000806000806080858703121561267e57600080fd5b84359350602085013567ffffffffffffffff8082111561269d57600080fd5b6126a9888389016125db565b945060408701359150808211156126bf57600080fd5b506126cc878288016125db565b949793965093946060013593505050565b600080604083850312156126f057600080fd5b6126f9836122c2565b946020939093013593505050565b60006001820161271957612719612255565b5060010190565b634e487b7160e01b600052603260045260246000fd5b8082028115828204841417610ede57610ede612255565b60008261276a57634e487b7160e01b600052601260045260246000fd5b500490565b81810381811115610ede57610ede612255565b6020808252600a908201526927b7363c9037bbb732b960b11b604082015260600190565b600181811c908216806127ba57607f821691505b6020821081036127da57634e487b7160e01b600052602260045260246000fd5b50919050565b601f821115610d8b57600081815260208120601f850160051c810160208610156128075750805b601f850160051c820191505b8181101561282657828155600101612813565b505050505050565b815167ffffffffffffffff811115612848576128486125c5565b61285c8161285684546127a6565b846127e0565b602080601f83116001811461289157600084156128795750858301515b600019600386901b1c1916600185901b178555612826565b600085815260208120601f198616915b828110156128c0578886015182559484019460019091019084016128a1565b50858210156128de5787850151600019600388901b60f8161c191681555b5050505050600190811b01905550565b604081016128fc8285612487565b826020830152939250505056fea264697066735822122050b57d23ad94c695a8312b3cbbfee38dadcf73d553a51388a7320651c3b3d80b64736f6c63430008140033",
  "linkReferences": {},
  "deployedLinkReferences": {}
}