{
  "_format": "hh-sol-artifact-1",
  "contractName": "TrustGraph",
  "sourceName": "contracts/TrustGraph.sol",
  "abi": [
    {
      "inputs": [],
      "stateMutability": "nonpayable",
      "type": "constructor"
    },
    {
      "anonymous": false,
      "inputs": [
        {
          "indexed": true,
          "internalType": "address",
          "name": "escrowContract",
          "type": "address"
        }
      ],
      "name": "EscrowContractAuthorized",
      "type": "event"
    },
    {
      "anonymous": false,
      "inputs": [
        {
          "indexed": true,
          "internalType": "address",
          "name": "from",
          "type": "address"
        },
        {
          "indexed": true,
          "internalType": "address",
          "name": "to",
          "type": "address"
        },
        {
          "indexed": false,
          "internalType": "uint8",
          "name": "weight",
          "type": "uint8"
        },
        {
          "indexed": false,
          "internalType": "uint256",
          "name": "escrowId",
          "type": "uint256"
        },
        {
          "indexed": false,
          "internalType": "uint256",
          "name": "timestamp",
          "type": "uint256"
        }
      ],
      "name": "TrustEdgeRecorded",
      "type": "event"
    },
    {
      "anonymous": false,
      "inputs": [
        {
          "indexed": true,
          "internalType": "address",
          "name": "user",
          "type": "address"
        },
        {
          "indexed": false,
          "internalType": "uint256",
          "name": "newScore",
          "type": "uint256"
        },
        {
          "indexed": false,
          "internalType": "uint256",
          "name": "totalDeals",
          "type": "uint256"
        }
      ],
      "name": "TrustScoreUpdated",
      "type": "event"
    },
    {
      "inputs": [],
      "name": "COMPLETED_WEIGHT",
      "outputs": [
        {
          "internalType": "uint256",
          "name": "",
          "type": "uint256"
        }
      ],
      "stateMutability": "view",
      "type": "function"
    },
    {
      "inputs": [],
      "name": "DISPUTED_WEIGHT",
      "outputs": [
        {
          "internalType": "uint256",
          "name": "",
          "type": "uint256"
        }
      ],
      "stateMutability": "view",
      "type": "function"
    },
    {
      "inputs": [],
      "name": "MAX_SCORE",
      "outputs": [
        {
          "internalType": "uint256",
          "name": "",
          "type": "uint256"
        }
      ],
      "stateMutability": "view",
      "type": "function"
    },
    {
      "inputs": [],
      "name": "MIN_SCORE",
      "outputs": [
        {
          "internalType": "uint256",
          "name": "",
          "type": "uint256"
        }
      ],
      "stateMutability": "view",
      "type": "function"
    },
    {
      "inputs": [],
      "name": "REFUNDED_WEIGHT",
      "outputs": [
        {
          "internalType": "uint256",
          "name": "",
          "type": "uint256"
        }
      ],
      "stateMutability": "view",
      "type": "function"
    },
    {
      "inputs": [
        {
          "internalType": "address",
          "name": "_contract",
          "type": "address"
        }
      ],
      "name": "authorizeEscrowContract",
      "outputs": [],
      "stateMutability": "nonpayable",
      "type": "function"
    },
    {
      "inputs": [
        {
          "internalType": "address",
          "name": "",
          "type": "address"
        }
      ],
      "name": "authorizedEscrowContracts",
      "outputs": [
        {
          "internalType": "bool",
          "name": "",
          "type": "bool"
        }
      ],
      "stateMutability": "view",
      "type": "function"
    },
    {
      "inputs": [
        {
          "internalType": "address",
          "name": "_from",
          "type": "address"
        },
        {
          "internalType": "address",
          "name": "_to",
          "type": "address"
        }
      ],
      "name": "getConnectionStrength",
      "outputs": [
        {
          "internalType": "uint256",
          "name": "strength",
          "type": "uint256"
        }
      ],
      "stateMutability": "view",
      "type": "function"
    },
    {
      "inputs": [
        {
          "internalType": "address",
          "name": "_user",
          "type": "address"
        }
      ],
      "name": "getDealStats",
      "outputs": [
        {
          "internalType": "uint256",
          "name": "completed",
          "type": "uint256"
        },
        {
          "internalType": "uint256",
          "name": "refunded",
          "type": "uint256"
        },
        {
          "internalType": "uint256",
          "name": "disputed",
          "type": "uint256"
        }
      ],
      "stateMutability": "view",
      "type": "function"
    },
    {
      "inputs": [
        {
          "internalType": "address",
          "name": "_user",
          "type": "address"
        }
      ],
      "name": "getIncomingEdges",
      "outputs": [
        {
          "components": [
            {
              "internalType": "address",
              "name": "from",
              "type": "address"
            },
            {
              "internalType": "address",
              "name": "to",
              "type": "address"
            },
            {
              "internalType": "uint8",
              "name": "weight",
              "type": "uint8"
            },
            {
              "internalType": "uint256",
              "name": "timestamp",
              "type": "uint256"
            },
            {
              "internalType": "uint256",
              "name": "escrowId",
              "type": "uint256"
            }
          ],
          "internalType": "struct TrustGraph.TrustEdge[]",
          "name": "",
          "type": "tuple[]"
        }
      ],
      "stateMutability": "view",
      "type": "function"
    },
    {
      "inputs": [
        {
          "internalType": "address",
          "name": "_user",
          "type": "address"
        }
      ],
      "name": "getOutgoingEdges",
      "outputs": [
        {
          "components": [
            {
              "internalType": "address",
              "name": "from",
              "type": "address"
            },
            {
              "internalType": "address",
              "name": "to",
              "type": "address"
            },
            {
              "internalType": "uint8",
              "name": "weight",
              "type": "uint8"
            },
            {
              "internalType": "uint256",
              "name": "timestamp",
              "type": "uint256"
            },
            {
              "internalType": "uint256",
              "name": "escrowId",
              "type": "uint256"
            }
          ],
          "internalType": "struct TrustGraph.TrustEdge[]",
          "name": "",
          "type": "tuple[]"
        }
      ],
      "stateMutability": "view",
      "type": "function"
    },
    {
      "inputs": [
        {
          "internalType": "uint256",
          "name": "_count",
          "type": "uint256"
        }
      ],
      "name": "getTopTrusted",
      "outputs": [
        {
          "internalType": "address[]",
          "name": "",
          "type": "address[]"
        },
        {
          "internalType": "uint256[]",
          "name": "",
          "type": "uint256[]"
        }
      ],
      "stateMutability": "view",
      "type": "function"
    },
    {
      "inputs": [
        {
          "internalType": "address",
          "name": "_from",
          "type": "address"
        },
        {
          "internalType": "address",
          "name": "_to",
          "type": "address"
        }
      ],
      "name": "getTrustPath",
      "outputs": [
        {
          "internalType": "bool",
          "name": "connected",
          "type": "bool"
        },
        {
          "internalType": "uint8",
          "name": "avgTrust",
          "type": "uint8"
        }
      ],
      "stateMutability": "view",
      "type": "function"
    },
    {
      "inputs": [
        {
          "internalType": "address",
          "name": "_user",
          "type": "address"
        }
      ],
      "name": "getTrustScore",
      "outputs": [
        {
          "internalType": "uint256",
          "name": "score",
          "type": "uint256"
        },
        {
          "internalType": "uint256",
          "name": "deals",
          "type": "uint256"
        }
      ],
      "stateMutability": "view",
      "type": "function"
    },
    {
      "inputs": [
        {
          "internalType": "address",
          "name": "_user",
          "type": "address"
        }
      ],
      "name": "getTrustTier",
      "outputs": [
        {
          "internalType": "string",
          "name": "tier",
          "type": "string"
        }
      ],
      "stateMutability": "view",
      "type": "function"
    },
    {
      "inputs": [
        {
          "internalType": "address",
          "name": "",
          "type": "address"
        },
        {
          "internalType": "address",
          "name": "",
          "type": "address"
        }
      ],
      "name": "hasMutualConnection",
      "outputs": [
        {
          "internalType": "bool",
          "name": "",
          "type": "bool"
        }
      ],
      "stateMutability": "view",
      "type": "function"
    },
    {
      "inputs": [
        {
          "internalType": "address",
          "name": "",
          "type": "address"
        },
        {
          "internalType": "uint256",
          "name": "",
          "type": "uint256"
        }
      ],
      "name": "incomingEdges",
      "outputs": [
        {
          "internalType": "address",
          "name": "from",
          "type": "address"
        },
        {
          "internalType": "address",
          "name": "to",
          "type": "address"
        },
        {
          "internalType": "uint8",
          "name": "weight",
          "type": "uint8"
        },
        {
          "internalType": "uint256",
          "name": "timestamp",
          "type": "uint256"
        },
        {
          "internalType": "uint256",
          "name": "escrowId",
          "type": "uint256"
        }
      ],
      "stateMutability": "view",
      "type": "function"
    },
    {
      "inputs": [
        {
          "internalType": "address",
          "name": "",
          "type": "address"
        },
        {
          "internalType": "uint256",
          "name": "",
          "type": "uint256"
        }
      ],
      "name": "outgoingEdges",
      "outputs": [
        {
          "internalType": "address",
          "name": "from",
          "type": "address"
        },
        {
          "internalType": "address",
          "name": "to",
          "type": "address"
        },
        {
          "internalType": "uint8",
          "name": "weight",
          "type": "uint8"
        },
        {
          "internalType": "uint256",
          "name": "timestamp",
          "type": "uint256"
        },
        {
          "internalType": "uint256",
          "name": "escrowId",
          "type": "uint256"
        }
      ],
      "stateMutability": "view",
      "type": "function"
    },
    {
      "inputs": [],
      "name": "owner",
      "outputs": [
        {
          "internalType": "address",
          "name": "",
          "type": "address"
        }
      ],
      "stateMutability": "view",
      "type": "function"
    },
    {
      "inputs": [
        {
          "internalType": "address",
          "name": "_from",
          "type": "address"
        },
        {
          "internalType": "address",
          "name": "_to",
          "type": "address"
        },
        {
          "internalType": "uint8",
          "name": "_weight",
          "type": "uint8"
        },
        {
          "internalType": "uint256",
          "name": "_escrowId",
          "type": "uint256"
        }
      ],
      "name": "recordTrustEdge",
      "outputs": [],
      "stateMutability": "nonpayable",
      "type": "function"
    },
    {
      "inputs": [
        {
          "internalType": "address",
          "name": "_contract",
          "type": "address"
        }
      ],
      "name": "revokeEscrowContract",
      "outputs": [],
      "stateMutability": "nonpayable",
      "type": "function"
    },
    {
      "inputs": [
        {
          "internalType": "address",
          "name": "",
          "type": "address"
        }
      ],
      "name": "totalDeals",
      "outputs": [
        {
          "internalType": "uint256",
          "name": "",
          "type": "uint256"
        }
      ],
      "stateMutability": "view",
      "type": "function"
    },
    {
      "inputs": [
        {
          "internalType": "address",
          "name": "",
          "type": "address"
        }
      ],
      "name": "trustScore",
      "outputs": [
        {
          "internalType": "uint256",
          "name": "",
          "type": "uint256"
        }
      ],
      "stateMutability": "view",
      "type": "function"
    }
  ],
  "bytecode": "0x608060405234801561001057600080fd5b50600680546001600160a01b031916331790556119e4806100326000396000f3fe608060405234801561001057600080fd5b506004361061014d5760003560e01c80638a6c3945116100c3578063ae8ce1dc1161007c578063ae8ce1dc146103a9578063bbf1bb5f146103bc578063db2db177146103cf578063ddbe3582146103d7578063eaeb6fae146103ea578063ecd731fb1461040b57600080fd5b80638a6c3945146102a35780638da5cb5b146102f15780639e0cbdb6146101d55780639f5987571461031c578063a1b11b7b14610348578063a9909bcf1461038657600080fd5b80634aaea179116101155780634aaea179146101dd5780634b15bb43146101fd578063534a84651461021d57806353c8db4e1461023d5780635e09eea114610250578063763ab3f91461029b57600080fd5b8063051aa8f614610152578063054bbe861461017b57806327ff6223146101905780633e65de43146101a757806340b89270146101d5575b600080fd5b6101656101603660046116cd565b61041e565b60405161017291906116ef565b60405180910390f35b61018e61018936600461173d565b6104e3565b005b6101996103e881565b604051908152602001610172565b6101ba6101b53660046116cd565b6108bc565b60408051938452602084019290925290820152606001610172565b610199600081565b6101996101eb3660046116cd565b60036020526000908152604090205481565b61021061020b3660046116cd565b610a28565b6040516101729190611790565b61019961022b3660046116cd565b60026020526000908152604090205481565b61018e61024b3660046116cd565b610add565b61028661025e3660046116cd565b6001600160a01b03166000908152600260209081526040808320546003909252909120549091565b60408051928352602083019190915201610172565b610199603281565b6102b66102b136600461180d565b610bb8565b604080516001600160a01b03968716815295909416602086015260ff909216928401929092526060830191909152608082015260a001610172565b600654610304906001600160a01b031681565b6040516001600160a01b039091168152602001610172565b61032f61032a366004611837565b610c17565b60408051921515835260ff909116602083015201610172565b610376610356366004611837565b600460209081526000928352604080842090915290825290205460ff1681565b6040519015158152602001610172565b6103766103943660046116cd565b60056020526000908152604090205460ff1681565b6102106103b73660046116cd565b610fd1565b6101996103ca366004611837565b611076565b610199606481565b6102b66103e536600461180d565b61127c565b6103fd6103f836600461186a565b611298565b604051610172929190611883565b61018e6104193660046116cd565b611388565b6001600160a01b0381166000908152600260205260409020546060906103208110610466575050604080518082019091526005815264456c69746560d81b6020820152919050565b6101f48110610494575050604080518082019091526007815266151c9d5cdd195960ca1b6020820152919050565b60c881106104c25750506040805180820190915260088152674275696c64696e6760c01b6020820152919050565b50506040805180820190915260038152624e657760e81b6020820152919050565b3360009081526005602052604090205460ff168061050b57506006546001600160a01b031633145b61054d5760405162461bcd60e51b815260206004820152600e60248201526d139bdd08185d5d1a1bdc9a5e995960921b60448201526064015b60405180910390fd5b6001600160a01b0384161580159061056d57506001600160a01b03831615155b6105ad5760405162461bcd60e51b8152602060048201526011602482015270496e76616c69642061646472657373657360781b6044820152606401610544565b826001600160a01b0316846001600160a01b0316036106025760405162461bcd60e51b815260206004820152601160248201527021b0b73737ba103a393ab9ba1039b2b63360791b6044820152606401610544565b60648260ff16111561064d5760405162461bcd60e51b81526020600482015260146024820152730576569676874206d75737420626520302d3130360641b6044820152606401610544565b60006040518060a00160405280866001600160a01b03168152602001856001600160a01b031681526020018460ff168152602001428152602001838152509050600080866001600160a01b03166001600160a01b0316815260200190815260200160002081908060018154018082558091505060019003906000526020600020906004020160009091909190915060008201518160000160006101000a8154816001600160a01b0302191690836001600160a01b0316021790555060208201518160010160006101000a8154816001600160a01b0302191690836001600160a01b0316021790555060408201518160010160146101000a81548160ff021916908360ff1602179055506060820151816002015560808201518160030155505060016000856001600160a01b03166001600160a01b0316815260200190815260200160002081908060018154018082558091505060019003906000526020600020906004020160009091909190915060008201518160000160006101000a8154816001600160a01b0302191690836001600160a01b0316021790555060208201518160010160006101000a8154816001600160a01b0302191690836001600160a01b0316021790555060408201518160010160146101000a81548160ff021916908360ff16021790555060608201518160020155608082015181600301555050610859848460ff166113f0565b61086385856114e4565b6040805160ff8516815260208101849052428183015290516001600160a01b0386811692908816917f3cc734f216db6c4fc1ca41d9a780346181015294ec85fe42349b81bb7525dc3d9181900360600190a35050505050565b60008060008060016000866001600160a01b03166001600160a01b03168152602001908152602001600020805480602002602001604051908101604052809291908181526020016000905b828210156109795760008481526020908190206040805160a0810182526004860290920180546001600160a01b03908116845260018083015491821685870152600160a01b90910460ff1692840192909252600281015460608401526003015460808301529083529092019101610907565b50505050905060005b8151811015610a1f5781818151811061099d5761099d611907565b60200260200101516040015160ff166064036109c557846109bd81611933565b955050610a0d565b8181815181106109d7576109d7611907565b60200260200101516040015160ff166032036109ff57836109f781611933565b945050610a0d565b82610a0981611933565b9350505b80610a1781611933565b915050610982565b50509193909250565b6001600160a01b0381166000908152600160209081526040808320805482518185028101850190935280835260609492939192909184015b82821015610ad25760008481526020908190206040805160a0810182526004860290920180546001600160a01b03908116845260018083015491821685870152600160a01b90910460ff1692840192909252600281015460608401526003015460808301529083529092019101610a60565b505050509050919050565b6006546001600160a01b03163314610b245760405162461bcd60e51b815260206004820152600a60248201526927b7363c9037bbb732b960b11b6044820152606401610544565b6001600160a01b038116610b6c5760405162461bcd60e51b815260206004820152600f60248201526e496e76616c6964206164647265737360881b6044820152606401610544565b6001600160a01b038116600081815260056020526040808220805460ff19166001179055517f4479de34012e71ce51eb71d2e6b72750c65fadb5178819ae7182c493dc9706669190a250565b60006020528160005260406000208181548110610bd457600080fd5b600091825260209091206004909102018054600182015460028301546003909301546001600160a01b0392831695509181169350600160a01b900460ff16919085565b60008060005b6001600160a01b038516600090815260208190526040902054811015610cf7576001600160a01b03858116600090815260208190526040902080549186169183908110610c6c57610c6c611907565b60009182526020909120600160049092020101546001600160a01b031603610ce5576001600160a01b038516600090815260208190526040902080546001919083908110610cbc57610cbc611907565b906000526020600020906004020160010160149054906101000a900460ff169250925050610fca565b80610cef81611933565b915050610c1d565b506001600160a01b0380851660009081526004602090815260408083209387168352929052205460ff1615610fc3576001600160a01b038416600090815260208181526040808320805482518185028101850190935280835284938493929190849084015b82821015610dce5760008481526020908190206040805160a0810182526004860290920180546001600160a01b03908116845260018083015491821685870152600160a01b90910460ff1692840192909252600281015460608401526003015460808301529083529092019101610d5c565b50505050905060005b8151811015610fa0576000828281518110610df457610df4611907565b60200260200101516020015190506000806000836001600160a01b03166001600160a01b03168152602001908152602001600020805480602002602001604051908101604052809291908181526020016000905b82821015610eba5760008481526020908190206040805160a0810182526004860290920180546001600160a01b03908116845260018083015491821685870152600160a01b90910460ff1692840192909252600281015460608401526003015460808301529083529092019101610e48565b50505050905060005b8151811015610f8a57896001600160a01b0316828281518110610ee857610ee8611907565b6020026020010151602001516001600160a01b031603610f78576002828281518110610f1657610f16611907565b60200260200101516040015160ff16868681518110610f3757610f37611907565b60200260200101516040015160ff16610f50919061194c565b610f5a919061195f565b610f64908861194c565b965085610f7081611933565b965050610f8a565b80610f8281611933565b915050610ec3565b5050508080610f9890611933565b915050610dd7565b508115610fbf576001610fb3838561195f565b94509450505050610fca565b5050505b5060009050805b9250929050565b6001600160a01b038116600090815260208181526040808320805482518185028101850190935280835260609492939192909184018215610ad25760008481526020908190206040805160a0810182526004860290920180546001600160a01b03908116845260018083015491821685870152600160a01b90910460ff1692840192909252600281015460608401526003015460808301529083529092019101610a60565b6001600160a01b038216600090815260208181526040808320805482518185028101850190935280835284938493929190849084015b8282101561111e5760008481526020908190206040805160a0810182526004860290920180546001600160a01b03908116845260018083015491821685870152600160a01b90910460ff16928401929092526002810154606084015260030154608083015290835290920191016110ac565b5050506001600160a01b0386166000908152602081815260408083208054825181850281018501909352808352959650929490935090849084015b828210156111cb5760008481526020908190206040805160a0810182526004860290920180546001600160a01b03908116845260018083015491821685870152600160a01b90910460ff1692840192909252600281015460608401526003015460808301529083529092019101611159565b50505050905060005b825181101561126f5760005b825181101561125c578281815181106111fb576111fb611907565b6020026020010151602001516001600160a01b031684838151811061122257611222611907565b6020026020010151602001516001600160a01b03160361124a578461124681611933565b9550505b8061125481611933565b9150506111e0565b508061126781611933565b9150506111d4565b5091925050505b92915050565b60016020528160005260406000208181548110610bd457600080fd5b6060806000831180156112ac575060648311155b6112ee5760405162461bcd60e51b81526020600482015260136024820152720436f756e74206d75737420626520312d31303606c1b6044820152606401610544565b6000808467ffffffffffffffff81111561130a5761130a611981565b604051908082528060200260200182016040528015611333578160200160208202803683370190505b50905060008567ffffffffffffffff81111561135157611351611981565b60405190808252806020026020018201604052801561137a578160200160208202803683370190505b509196919550909350505050565b6006546001600160a01b031633146113cf5760405162461bcd60e51b815260206004820152600a60248201526927b7363c9037bbb732b960b11b6044820152606401610544565b6001600160a01b03166000908152600560205260409020805460ff19169055565b6001600160a01b0382166000908152600260209081526040808320546003909252822054909161142182600161194c565b61142c85600a611997565b6114368486611997565b611440919061194c565b61144a919061195f565b90506103e881111561145b57506103e85b6001600160a01b038516600090815260026020526040902081905561148182600161194c565b6001600160a01b038616600081815260036020526040908190208390555190917f15dd57e0cde9af9083c846eb39c9da382e907c0036818e4a163ecd167e5f3276916114d591858252602082015260400190565b60405180910390a25050505050565b6001600160a01b03811660009081526020818152604080832080548251818502810185019093528083529192909190849084015b8282101561158a5760008481526020908190206040805160a0810182526004860290920180546001600160a01b03908116845260018083015491821685870152600160a01b90910460ff1692840192909252600281015460608401526003015460808301529083529092019101611518565b50505050905060005b81518110156116ab5760008282815181106115b0576115b0611907565b602002602001015160200151905060005b6001600160a01b038616600090815260208190526040902054811015611696576001600160a01b0386811660009081526020819052604090208054918416918390811061161057611610611907565b60009182526020909120600160049092020101546001600160a01b031603611684576001600160a01b038681166000818152600460208181526040808420958b1684529481528483208054600160ff1991821681179092559282528584209484529390529290208054909216179055611696565b8061168e81611933565b9150506115c1565b505080806116a390611933565b915050611593565b50505050565b80356001600160a01b03811681146116c857600080fd5b919050565b6000602082840312156116df57600080fd5b6116e8826116b1565b9392505050565b600060208083528351808285015260005b8181101561171c57858101830151858201604001528201611700565b506000604082860101526040601f19601f8301168501019250505092915050565b6000806000806080858703121561175357600080fd5b61175c856116b1565b935061176a602086016116b1565b9250604085013560ff8116811461178057600080fd5b9396929550929360600135925050565b602080825282518282018190526000919060409081850190868401855b8281101561180057815180516001600160a01b0390811686528782015116878601528581015160ff1686860152606080820151908601526080908101519085015260a090930192908501906001016117ad565b5091979650505050505050565b6000806040838503121561182057600080fd5b611829836116b1565b946020939093013593505050565b6000806040838503121561184a57600080fd5b611853836116b1565b9150611861602084016116b1565b90509250929050565b60006020828403121561187c57600080fd5b5035919050565b604080825283519082018190526000906020906060840190828701845b828110156118c55781516001600160a01b0316845292840192908401906001016118a0565b5050508381038285015284518082528583019183019060005b818110156118fa578351835292840192918401916001016118de565b5090979650505050505050565b634e487b7160e01b600052603260045260246000fd5b634e487b7160e01b600052601160045260246000fd5b6000600182016119455761194561191d565b5060010190565b808201808211156112765761127661191d565b60008261197c57634e487b7160e01b600052601260045260246000fd5b500490565b634e487b7160e01b600052604160045260246000fd5b80820281158282048414176112765761127661191d56fea264697066735822122064ec97a94f45ca0fd60084154d6283b33f387108101482eb8a1721a4c821c81564736f6c63430008140033",
  "linkReferences": {},
  "deployedLinkReferences": {}
}