{
  "_format": "hh-sol-artifact-1",
  "contractName": "ZKPrivateEscrow",
  "sourceName": "contracts/ZKPrivateEscrow.sol",
  "abi": [
    {
      "inputs": [],
      "stateMutability": "nonpayable",
      "type": "constructor"
    },
    {
      "anonymous": false,
      "inputs": [
        {
          "indexed": true,
          "internalType": "uint256",
          "name": "escrowId",
          "type": "uint256"
        },
        {
          "indexed": false,
          "internalType": "string",
          "name": "reason",
          "type": "string"
        }
      ],
      "name": "DisputeFiled",
      "type": "event"
    },
    {
      "anonymous": false,
      "inputs": [
        {
          "indexed": true,
          "internalType": "uint256",
          "name": "escrowId",
          "type": "uint256"
        },
        {
          "indexed": false,
          "internalType": "uint256",
          "name": "refundAmount",
          "type": "uint256"
        }
      ],
      "name": "EscrowCancelled",
      "type": "event"
    },
    {
      "anonymous": false,
      "inputs": [
        {
          "indexed": true,
          "internalType": "uint256",
          "name": "escrowId",
          "type": "uint256"
        },
        {
          "indexed": true,
          "internalType": "bytes32",
          "name": "commitmentHash",
          "type": "bytes32"
        },
        {
          "indexed": false,
          "internalType": "enum ZKPrivateEscrow.PrivacyLevel",
          "name": "privacyLevel",
          "type": "uint8"
        },
        {
          "indexed": false,
          "internalType": "uint256",
          "name": "revealDeadline",
          "type": "uint256"
        }
      ],
      "name": "EscrowCommitted",
      "type": "event"
    },
    {
      "anonymous": false,
      "inputs": [
        {
          "indexed": true,
          "internalType": "uint256",
          "name": "escrowId",
          "type": "uint256"
        },
        {
          "indexed": true,
          "internalType": "address",
          "name": "seller",
          "type": "address"
        },
        {
          "indexed": false,
          "internalType": "uint256",
          "name": "amount",
          "type": "uint256"
        },
        {
          "indexed": false,
          "internalType": "bytes32",
          "name": "nullifier",
          "type": "bytes32"
        }
      ],
      "name": "EscrowCompleted",
      "type": "event"
    },
    {
      "anonymous": false,
      "inputs": [
        {
          "indexed": true,
          "internalType": "uint256",
          "name": "escrowId",
          "type": "uint256"
        },
        {
          "indexed": true,
          "internalType": "address",
          "name": "seller",
          "type": "address"
        },
        {
          "indexed": false,
          "internalType": "uint256",
          "name": "amount",
          "type": "uint256"
        },
        {
          "indexed": true,
          "internalType": "address",
          "name": "revealer",
          "type": "address"
        }
      ],
      "name": "EscrowRevealed",
      "type": "event"
    },
    {
      "anonymous": false,
      "inputs": [
        {
          "indexed": true,
          "internalType": "uint256",
          "name": "escrowId",
          "type": "uint256"
        },
        {
          "indexed": true,
          "internalType": "bytes32",
          "name": "proofHash",
          "type": "bytes32"
        },
        {
          "indexed": false,
          "internalType": "bool",
          "name": "verified",
          "type": "bool"
        }
      ],
      "name": "ZKProofSubmitted",
      "type": "event"
    },
    {
      "inputs": [],
      "name": "COMPLETION_WINDOW",
      "outputs": [
        {
          "internalType": "uint256",
          "name": "",
          "type": "uint256"
        }
      ],
      "stateMutability": "view",
      "type": "function"
    },
    {
      "inputs": [],
      "name": "MIN_AMOUNT",
      "outputs": [
        {
          "internalType": "uint256",
          "name": "",
          "type": "uint256"
        }
      ],
      "stateMutability": "view",
      "type": "function"
    },
    {
      "inputs": [],
      "name": "REVEAL_WINDOW",
      "outputs": [
        {
          "internalType": "uint256",
          "name": "",
          "type": "uint256"
        }
      ],
      "stateMutability": "view",
      "type": "function"
    },
    {
      "inputs": [
        {
          "internalType": "uint256",
          "name": "_escrowId",
          "type": "uint256"
        },
        {
          "internalType": "address",
          "name": "_viewer",
          "type": "address"
        }
      ],
      "name": "authorizeViewer",
      "outputs": [],
      "stateMutability": "nonpayable",
      "type": "function"
    },
    {
      "inputs": [
        {
          "internalType": "uint256",
          "name": "",
          "type": "uint256"
        },
        {
          "internalType": "address",
          "name": "",
          "type": "address"
        }
      ],
      "name": "authorizedViewers",
      "outputs": [
        {
          "internalType": "bool",
          "name": "",
          "type": "bool"
        }
      ],
      "stateMutability": "view",
      "type": "function"
    },
    {
      "inputs": [
        {
          "internalType": "uint256",
          "name": "_escrowId",
          "type": "uint256"
        }
      ],
      "name": "cancelEscrow",
      "outputs": [],
      "stateMutability": "nonpayable",
      "type": "function"
    },
    {
      "inputs": [
        {
          "internalType": "bytes32",
          "name": "_commitmentHash",
          "type": "bytes32"
        },
        {
          "internalType": "bytes32",
          "name": "_nullifier",
          "type": "bytes32"
        },
        {
          "internalType": "enum ZKPrivateEscrow.PrivacyLevel",
          "name": "_privacyLevel",
          "type": "uint8"
        },
        {
          "internalType": "string",
          "name": "_publicMetadata",
          "type": "string"
        }
      ],
      "name": "commitEscrow",
      "outputs": [],
      "stateMutability": "payable",
      "type": "function"
    },
    {
      "inputs": [
        {
          "internalType": "bytes32",
          "name": "",
          "type": "bytes32"
        }
      ],
      "name": "commitments",
      "outputs": [
        {
          "internalType": "bytes32",
          "name": "sellerHash",
          "type": "bytes32"
        },
        {
          "internalType": "bytes32",
          "name": "amountHash",
          "type": "bytes32"
        },
        {
          "internalType": "bytes32",
          "name": "nullifier",
          "type": "bytes32"
        },
        {
          "internalType": "uint256",
          "name": "timestamp",
          "type": "uint256"
        }
      ],
      "stateMutability": "view",
      "type": "function"
    },
    {
      "inputs": [
        {
          "internalType": "uint256",
          "name": "_escrowId",
          "type": "uint256"
        },
        {
          "internalType": "bytes32",
          "name": "_secret",
          "type": "bytes32"
        },
        {
          "internalType": "bytes32",
          "name": "_nullifier",
          "type": "bytes32"
        }
      ],
      "name": "completeEscrow",
      "outputs": [],
      "stateMutability": "nonpayable",
      "type": "function"
    },
    {
      "inputs": [
        {
          "internalType": "uint256",
          "name": "_escrowId",
          "type": "uint256"
        },
        {
          "internalType": "address",
          "name": "_viewer",
          "type": "address"
        }
      ],
      "name": "deauthorizeViewer",
      "outputs": [],
      "stateMutability": "nonpayable",
      "type": "function"
    },
    {
      "inputs": [
        {
          "internalType": "uint256",
          "name": "",
          "type": "uint256"
        }
      ],
      "name": "disputeEvidence",
      "outputs": [
        {
          "internalType": "string",
          "name": "",
          "type": "string"
        }
      ],
      "stateMutability": "view",
      "type": "function"
    },
    {
      "inputs": [
        {
          "internalType": "uint256",
          "name": "",
          "type": "uint256"
        }
      ],
      "name": "disputeVotesAgainst",
      "outputs": [
        {
          "internalType": "uint256",
          "name": "",
          "type": "uint256"
        }
      ],
      "stateMutability": "view",
      "type": "function"
    },
    {
      "inputs": [
        {
          "internalType": "uint256",
          "name": "",
          "type": "uint256"
        }
      ],
      "name": "disputeVotesFor",
      "outputs": [
        {
          "internalType": "uint256",
          "name": "",
          "type": "uint256"
        }
      ],
      "stateMutability": "view",
      "type": "function"
    },
    {
      "inputs": [],
      "name": "escrowCount",
      "outputs": [
        {
          "internalType": "uint256",
          "name": "",
          "type": "uint256"
        }
      ],
      "stateMutability": "view",
      "type": "function"
    },
    {
      "inputs": [
        {
          "internalType": "uint256",
          "name": "",
          "type": "uint256"
        }
      ],
      "name": "escrows",
      "outputs": [
        {
          "internalType": "uint256",
          "name": "id",
          "type": "uint256"
        },
        {
          "internalType": "bytes32",
          "name": "commitmentHash",
          "type": "bytes32"
        },
        {
          "internalType": "address payable",
          "name": "seller",
          "type": "address"
        },
        {
          "internalType": "uint256",
          "name": "amount",
          "type": "uint256"
        },
        {
          "internalType": "enum ZKPrivateEscrow.PrivacyLevel",
          "name": "privacyLevel",
          "type": "uint8"
        },
        {
          "internalType": "enum ZKPrivateEscrow.EscrowStatus",
          "name": "status",
          "type": "uint8"
        },
        {
          "internalType": "uint256",
          "name": "createdAt",
          "type": "uint256"
        },
        {
          "internalType": "uint256",
          "name": "revealDeadline",
          "type": "uint256"
        },
        {
          "internalType": "uint256",
          "name": "completionDeadline",
          "type": "uint256"
        },
        {
          "internalType": "bytes32",
          "name": "zkProofHash",
          "type": "bytes32"
        },
        {
          "internalType": "string",
          "name": "publicMetadata",
          "type": "string"
        },
        {
          "internalType": "address",
          "name": "revealer",
          "type": "address"
        },
        {
          "internalType": "uint256",
          "name": "revealedAt",
          "type": "uint256"
        }
      ],
      "stateMutability": "view",
      "type": "function"
    },
    {
      "inputs": [
        {
          "internalType": "uint256",
          "name": "_escrowId",
          "type": "uint256"
        },
        {
          "internalType": "string",
          "name": "_reason",
          "type": "string"
        }
      ],
      "name": "fileDispute",
      "outputs": [],
      "stateMutability": "nonpayable",
      "type": "function"
    },
    {
      "inputs": [
        {
          "internalType": "bytes32",
          "name": "_commitmentHash",
          "type": "bytes32"
        }
      ],
      "name": "getCommitmentStats",
      "outputs": [
        {
          "internalType": "bool",
          "name": "isUsed",
          "type": "bool"
        },
        {
          "internalType": "bytes32",
          "name": "nullifier",
          "type": "bytes32"
        },
        {
          "internalType": "uint256",
          "name": "timestamp",
          "type": "uint256"
        }
      ],
      "stateMutability": "view",
      "type": "function"
    },
    {
      "inputs": [
        {
          "internalType": "uint256",
          "name": "_escrowId",
          "type": "uint256"
        }
      ],
      "name": "getEscrowDetails",
      "outputs": [
        {
          "components": [
            {
              "internalType": "uint256",
              "name": "id",
              "type": "uint256"
            },
            {
              "internalType": "bytes32",
              "name": "commitmentHash",
              "type": "bytes32"
            },
            {
              "internalType": "address payable",
              "name": "seller",
              "type": "address"
            },
            {
              "internalType": "uint256",
              "name": "amount",
              "type": "uint256"
            },
            {
              "internalType": "enum ZKPrivateEscrow.PrivacyLevel",
              "name": "privacyLevel",
              "type": "uint8"
            },
            {
              "internalType": "enum ZKPrivateEscrow.EscrowStatus",
              "name": "status",
              "type": "uint8"
            },
            {
              "internalType": "uint256",
              "name": "createdAt",
              "type": "uint256"
            },
            {
              "internalType": "uint256",
              "name": "revealDeadline",
              "type": "uint256"
            },
            {
              "internalType": "uint256",
              "name": "completionDeadline",
              "type": "uint256"
            },
            {
              "internalType": "bytes32",
              "name": "zkProofHash",
              "type": "bytes32"
            },
            {
              "internalType": "string",
              "name": "publicMetadata",
              "type": "string"
            },
            {
              "internalType": "address",
              "name": "revealer",
              "type": "address"
            },
            {
              "internalType": "uint256",
              "name": "revealedAt",
              "type": "uint256"
            }
          ],
          "internalType": "struct ZKPrivateEscrow.PrivateEscrow",
          "name": "",
          "type": "tuple"
        }
      ],
      "stateMutability": "view",
      "type": "function"
    },
    {
      "inputs": [
        {
          "internalType": "uint256",
          "name": "_escrowId",
          "type": "uint256"
        }
      ],
      "name": "getPublicEscrowInfo",
      "outputs": [
        {
          "internalType": "uint256",
          "name": "id",
          "type": "uint256"
        },
        {
          "internalType": "bytes32",
          "name": "commitmentHash",
          "type": "bytes32"
        },
        {
          "internalType": "enum ZKPrivateEscrow.PrivacyLevel",
          "name": "privacyLevel",
          "type": "uint8"
        },
        {
          "internalType": "enum ZKPrivateEscrow.EscrowStatus",
          "name": "status",
          "type": "uint8"
        },
        {
          "internalType": "uint256",
          "name": "createdAt",
          "type": "uint256"
        },
        {
          "internalType": "uint256",
          "name": "revealDeadline",
          "type": "uint256"
        },
        {
          "internalType": "string",
          "name": "publicMetadata",
          "type": "string"
        }
      ],
      "stateMutability": "view",
      "type": "function"
    },
    {
      "inputs": [
        {
          "internalType": "address",
          "name": "_user",
          "type": "address"
        },
        {
          "internalType": "enum ZKPrivateEscrow.EscrowStatus",
          "name": "_status",
          "type": "uint8"
        }
      ],
      "name": "getUserEscrows",
      "outputs": [
        {
          "internalType": "uint256[]",
          "name": "",
          "type": "uint256[]"
        }
      ],
      "stateMutability": "view",
      "type": "function"
    },
    {
      "inputs": [
        {
          "internalType": "uint256",
          "name": "",
          "type": "uint256"
        },
        {
          "internalType": "address",
          "name": "",
          "type": "address"
        }
      ],
      "name": "hasVotedOnDispute",
      "outputs": [
        {
          "internalType": "bool",
          "name": "",
          "type": "bool"
        }
      ],
      "stateMutability": "view",
      "type": "function"
    },
    {
      "inputs": [
        {
          "internalType": "bytes32",
          "name": "_nullifier",
          "type": "bytes32"
        }
      ],
      "name": "isNullifierUsed",
      "outputs": [
        {
          "internalType": "bool",
          "name": "",
          "type": "bool"
        }
      ],
      "stateMutability": "view",
      "type": "function"
    },
    {
      "inputs": [],
      "name": "owner",
      "outputs": [
        {
          "internalType": "address",
          "name": "",
          "type": "address"
        }
      ],
      "stateMutability": "view",
      "type": "function"
    },
    {
      "inputs": [
        {
          "internalType": "uint256",
          "name": "_escrowId",
          "type": "uint256"
        },
        {
          "internalType": "address payable",
          "name": "_seller",
          "type": "address"
        },
        {
          "internalType": "bytes32",
          "name": "_secret",
          "type": "bytes32"
        },
        {
          "internalType": "uint256",
          "name": "_amount",
          "type": "uint256"
        }
      ],
      "name": "revealEscrow",
      "outputs": [],
      "stateMutability": "nonpayable",
      "type": "function"
    },
    {
      "inputs": [
        {
          "internalType": "address",
          "name": "_verifier",
          "type": "address"
        }
      ],
      "name": "setVerifierContract",
      "outputs": [],
      "stateMutability": "nonpayable",
      "type": "function"
    },
    {
      "inputs": [
        {
          "internalType": "uint256",
          "name": "_escrowId",
          "type": "uint256"
        },
        {
          "internalType": "bytes32",
          "name": "_proofHash",
          "type": "bytes32"
        },
        {
          "internalType": "bytes",
          "name": "_proof",
          "type": "bytes"
        }
      ],
      "name": "submitZKProof",
      "outputs": [],
      "stateMutability": "nonpayable",
      "type": "function"
    },
    {
      "inputs": [
        {
          "internalType": "bytes32",
          "name": "",
          "type": "bytes32"
        }
      ],
      "name": "usedCommitments",
      "outputs": [
        {
          "internalType": "bool",
          "name": "",
          "type": "bool"
        }
      ],
      "stateMutability": "view",
      "type": "function"
    },
    {
      "inputs": [
        {
          "internalType": "bytes32",
          "name": "",
          "type": "bytes32"
        }
      ],
      "name": "usedNullifiers",
      "outputs": [
        {
          "internalType": "bool",
          "name": "",
          "type": "bool"
        }
      ],
      "stateMutability": "view",
      "type": "function"
    },
    {
      "inputs": [],
      "name": "verifierContract",
      "outputs": [
        {
          "internalType": "address",
          "name": "",
          "type": "address"
        }
      ],
      "stateMutability": "view",
      "type": "function"
    },
    {
      "inputs": [
        {
          "internalType": "bytes32",
          "name": "_commitmentHash",
          "type": "bytes32"
        },
        {
          "internalType": "address",
          "name": "_seller",
          "type": "address"
        },
        {
          "internalType": "uint256",
          "name": "_amount",
          "type": "uint256"
        },
        {
          "internalType": "bytes32",
          "name": "_secret",
          "type": "bytes32"
        }
      ],
      "name": "verifyCommitment",
      "outputs": [
        {
          "internalType": "bool",
          "name": "",
          "type": "bool"
        }
      ],
      "stateMutability": "pure",
      "type": "function"
    },
    {
      "inputs": [
        {
          "internalType": "uint256",
          "name": "_escrowId",
          "type": "uint256"
        },
        {
          "internalType": "bool",
          "name": "_approve",
          "type": "bool"
        }
      ],
      "name": "voteOnDispute",
      "outputs": [],
      "stateMutability": "nonpayable",
      "type": "function"
    },
    {
      "stateMutability": "payable",
      "type": "receive"
    }
  ],
  "bytecode": "0x608060405234801561001057600080fd5b50600a80546001600160a01b0319163317905561297b806100326000396000f3fe6080604052600436106101dc5760003560e01c80639015781611610102578063c00e908811610095578063ddbcb5fa11610064578063ddbcb5fa146106e4578063e0182436146106ff578063f0ca66da1461071f578063fc64cd8d1461073f57600080fd5b8063c00e908814610649578063c3a8fb3414610669578063c6798c34146106a4578063cf695688146106c457600080fd5b8063a25da83c116100d1578063a25da83c146105a1578063a4f5df12146105c1578063b5788b49146105e1578063b996ec2a1461061c57600080fd5b806390157816146104a257806391402039146104c2578063918dd906146104f257806391baf96d1461051257600080fd5b806331b45f361161017a5780638243af1d116101495780638243af1d146103bb578063839df945146103db5780638c9c1f791461043d5780638da5cb5b1461046a57600080fd5b806331b45f36146103365780634f040f7114610363578063675ac67a146103785780637c9200021461038e57600080fd5b8063206137aa116101b6578063206137aa1461028257806322dc7b4c146102c257806330d80ab5146102f257806331359ed91461031f57600080fd5b8063012f52ee146101e857806315ba93301461022a57806317e931cf1461025d57600080fd5b366101e357005b600080fd5b3480156101f457600080fd5b5061020861020336600461215e565b61075f565b6040516102219d9c9b9a999897969594939291906121f7565b60405180910390f35b34801561023657600080fd5b5061024a61024536600461215e565b610862565b604051610221979695949392919061227f565b34801561026957600080fd5b5061027462093a8081565b604051908152602001610221565b34801561028e57600080fd5b506102b261029d36600461215e565b60036020526000908152604090205460ff1681565b6040519015158152602001610221565b3480156102ce57600080fd5b506102b26102dd36600461215e565b60009081526003602052604090205460ff1690565b3480156102fe57600080fd5b5061027461030d36600461215e565b60086020526000908152604090205481565b34801561032b57600080fd5b5061027462278d0081565b34801561034257600080fd5b506103566103513660046122e9565b610a7f565b6040516102219190612326565b61037661037136600461240d565b610c6e565b005b34801561038457600080fd5b5061027460005481565b34801561039a57600080fd5b506102746103a936600461215e565b60076020526000908152604090205481565b3480156103c757600080fd5b506103766103d6366004612474565b61105f565b3480156103e757600080fd5b5061041d6103f636600461215e565b60046020526000908152604090208054600182015460028301546003909301549192909184565b604080519485526020850193909352918301526060820152608001610221565b34801561044957600080fd5b5061045d61045836600461215e565b6111e8565b60405161022191906124bb565b34801561047657600080fd5b50600a5461048a906001600160a01b031681565b6040516001600160a01b039091168152602001610221565b3480156104ae57600080fd5b506103766104bd3660046124d5565b611282565b3480156104ce57600080fd5b506102b26104dd36600461215e565b60026020526000908152604090205460ff1681565b3480156104fe57600080fd5b5061037661050d3660046124fa565b6113ac565b34801561051e57600080fd5b5061058461052d36600461215e565b6000818152600460209081526040808320815160808101835281548152600182015481850152600280830154828501908152600390930154606090920191825295855294909252909120549051915160ff90911692565b604080519315158452602084019290925290820152606001610221565b3480156105ad57600080fd5b506103766105bc366004612537565b6115f9565b3480156105cd57600080fd5b506103766105dc366004612554565b611662565b3480156105ed57600080fd5b506102b26105fc3660046124d5565b600560209081526000928352604080842090915290825290205460ff1681565b34801561062857600080fd5b5061063c61063736600461215e565b6117c1565b604051610221919061257e565b34801561065557600080fd5b50610376610664366004612661565b611aa3565b34801561067557600080fd5b506102b26106843660046124d5565b600960209081526000928352604080842090915290825290205460ff1681565b3480156106b057600080fd5b506102b26106bf3660046124fa565b611c02565b3480156106d057600080fd5b50600b5461048a906001600160a01b031681565b3480156106f057600080fd5b5061027466038d7ea4c6800081565b34801561070b57600080fd5b5061037661071a36600461215e565b611c3b565b34801561072b57600080fd5b5061037661073a3660046126e1565b611dcb565b34801561074b57600080fd5b5061037661075a3660046124d5565b6120a5565b6001602081905260009182526040909120805491810154600282015460038301546004840154600585015460068601546007870154600888015460098901805498996001600160a01b0390981698969760ff8088169861010090980416969091906107c99061270d565b80601f01602080910402602001604051908101604052809291908181526020018280546107f59061270d565b80156108425780601f1061081757610100808354040283529160200191610842565b820191906000526020600020905b81548152906001019060200180831161082557829003601f168201915b50505050600a830154600b9093015491926001600160a01b03169190508d565b60008060008060008060608760016000828152602001908152602001600020600001546000036108ad5760405162461bcd60e51b81526004016108a490612741565b60405180910390fd5b600089815260016020818152604080842081516101a0810183528154815293810154928401929092526002808301546001600160a01b031691840191909152600382015460608401526004820154608084019160ff9091169081111561091557610915612177565b600281111561092657610926612177565b81526020016004820160019054906101000a900460ff16600481111561094e5761094e612177565b600481111561095f5761095f612177565b81526020016005820154815260200160068201548152602001600782015481526020016008820154815260200160098201805461099b9061270d565b80601f01602080910402602001604051908101604052809291908181526020018280546109c79061270d565b8015610a145780601f106109e957610100808354040283529160200191610a14565b820191906000526020600020905b8154815290600101906020018083116109f757829003601f168201915b5050509183525050600a8201546001600160a01b0316602080830191909152600b90920154604090910152815190820151608083015160a084015160c085015160e086015161014090960151949e50929c50909a509850965090945092505050919395979092949650565b6060600060015b6000548111610b3e57836004811115610aa157610aa1612177565b6000828152600160205260409020600490810154610100900460ff1690811115610acd57610acd612177565b03610b2c576000818152600160205260409020600a01546001600160a01b0386811691161480610b1957506000818152600160205260409020600201546001600160a01b038681169116145b15610b2c5781610b2881612786565b9250505b80610b3681612786565b915050610a86565b5060008167ffffffffffffffff811115610b5a57610b5a61236a565b604051908082528060200260200182016040528015610b83578160200160208202803683370190505b509050600060015b6000548111610c6157856004811115610ba657610ba6612177565b6000828152600160205260409020600490810154610100900460ff1690811115610bd257610bd2612177565b03610c4f576000818152600160205260409020600a01546001600160a01b0388811691161480610c1e57506000818152600160205260409020600201546001600160a01b038881169116145b15610c4f5780838381518110610c3657610c3661279f565b602090810291909101015281610c4b81612786565b9250505b80610c5981612786565b915050610b8b565b5090925050505b92915050565b66038d7ea4c68000341015610cb85760405162461bcd60e51b815260206004820152601060248201526f105b5bdd5b9d081d1bdbc81cdb585b1b60821b60448201526064016108a4565b60008481526002602052604090205460ff1615610d175760405162461bcd60e51b815260206004820152601760248201527f436f6d6d69746d656e7420616c7265616479207573656400000000000000000060448201526064016108a4565b60008381526003602052604090205460ff1615610d6f5760405162461bcd60e51b8152602060048201526016602482015275139d5b1b1a599a595c88185b1c9958591e481d5cd95960521b60448201526064016108a4565b6001826002811115610d8357610d83612177565b141580610d9a5750600b546001600160a01b031615155b610dda5760405162461bcd60e51b81526020600482015260116024820152701692c81b9bdd0818dbdb999a59dd5c9959607a1b60448201526064016108a4565b600080549080610de983612786565b9091555060009050610dfe62093a80426127b5565b9050604051806101a00160405280600054815260200186815260200160006001600160a01b0316815260200160008152602001846002811115610e4357610e43612177565b81526020016000815242602082015260408101839052606001610e6962278d00846127b5565b8152600060208083018290526040808401879052606080850184905260809485018490528354845260018084529382902086518155928601518385015590850151600280840180546001600160a01b0319166001600160a01b03909316929092179091559085015160038301559284015160048201805492949193909260ff1916918490811115610efc57610efc612177565b021790555060a08201518160040160016101000a81548160ff02191690836004811115610f2b57610f2b612177565b021790555060c0820151600582015560e08201516006820155610100820151600782015561012082015160088201556101408201516009820190610f6f9082612816565b50610160820151600a820180546001600160a01b0319166001600160a01b0390921691909117905561018090910151600b90910155604080516080810182526000808252602080830182815283850189815242606086019081528b85526004845286852095518655915160018681019190915590516002808701919091559151600395860155908252848320805460ff199081168317909155898452939091528382208054909316179091555490518691907f95d48746f88b294a5af17b54707a55c9f2bf5440a9a911532f0264eefef3c1769061105090879086906128d6565b60405180910390a35050505050565b60008281526001602052604081205483910361108d5760405162461bcd60e51b81526004016108a490612741565b600083815260016020819052604090912090600482810154610100900460ff16908111156110bd576110bd612177565b146110fe5760405162461bcd60e51b8152602060048201526011602482015270457363726f77206e6f742061637469766560781b60448201526064016108a4565b600a8101546000906001600160a01b031633148061113f575060028201546001600160a01b03161580159061113f575060028201546001600160a01b031633145b90508061117f5760405162461bcd60e51b815260206004820152600e60248201526d139bdd08185d5d1a1bdc9a5e995960921b60448201526064016108a4565b60048201805461ff00191661040017905560008581526006602052604090206111a88582612816565b50847fbbedace43f1a3249c1ed170f559a17d96646038c586d43d973c55fcb8a2a518a856040516111d991906124bb565b60405180910390a25050505050565b600660205260009081526040902080546112019061270d565b80601f016020809104026020016040519081016040528092919081815260200182805461122d9061270d565b801561127a5780601f1061124f5761010080835404028352916020019161127a565b820191906000526020600020905b81548152906001019060200180831161125d57829003601f168201915b505050505081565b6000828152600160205260408120548391036112b05760405162461bcd60e51b81526004016108a490612741565b600083815260016020818152604080842090920154835260029052902054839060ff1661130c5760405162461bcd60e51b815260206004820152600a60248201526927b7363c90313abcb2b960b11b60448201526064016108a4565b60008481526001602052604090206002600482015460ff16600281111561133557611335612177565b146113795760405162461bcd60e51b8152602060048201526014602482015273139bdd081cd95b1958dd1a5d99481c995d99585b60621b60448201526064016108a4565b50505060009182526005602090815260408084206001600160a01b0390931684529190529020805460ff19166001179055565b6000848152600160205260408120548591036113da5760405162461bcd60e51b81526004016108a490612741565b600085815260016020526040812090600482810154610100900460ff169081111561140757611407612177565b146114245760405162461bcd60e51b81526004016108a4906128f1565b806006015442111561146f5760405162461bcd60e51b815260206004820152601460248201527314995d99585b081dda5b991bddc818db1bdcd95960621b60448201526064016108a4565b6001600160a01b0385166114b65760405162461bcd60e51b815260206004820152600e60248201526d24b73b30b634b21039b2b63632b960911b60448201526064016108a4565b600083116114f75760405162461bcd60e51b815260206004820152600e60248201526d125b9d985b1a5908185b5bdd5b9d60921b60448201526064016108a4565b600085848660405160200161150e9392919061291b565b6040516020818303038152906040528051906020012090508160010154811461156a5760405162461bcd60e51b815260206004820152600e60248201526d125b9d985b1a59081c995d99585b60921b60448201526064016108a4565b6002820180546001600160a01b03199081166001600160a01b0389169081179092556003840186905560048401805461ff001916610100179055600a840180543392168217905542600b8501556040805187815290519192918a917fc3781a3c0809f77c7e9c1308af1a709305ecceca8593212bd7c276b83346ce79919081900360200190a450505050505050565b600a546001600160a01b031633146116405760405162461bcd60e51b815260206004820152600a60248201526927b7363c9037bbb732b960b11b60448201526064016108a4565b600b80546001600160a01b0319166001600160a01b0392909216919091179055565b6000828152600160205260408120548391036116905760405162461bcd60e51b81526004016108a490612741565b60046000848152600160205260409020600490810154610100900460ff16908111156116be576116be612177565b146116fa5760405162461bcd60e51b815260206004820152600c60248201526b139bdd08191a5cdc1d5d195960a21b60448201526064016108a4565b600083815260096020908152604080832033845290915290205460ff16156117545760405162461bcd60e51b815260206004820152600d60248201526c105b1c9958591e481d9bdd1959609a1b60448201526064016108a4565b60008381526009602090815260408083203384529091529020805460ff1916600117905581156117a257600083815260076020526040812080549161179883612786565b9190505550505050565b600083815260086020526040812080549161179883612786565b505050565b611838604080516101a08101825260008082526020820181905291810182905260608101829052906080820190815260200160008152602001600081526020016000815260200160008152602001600080191681526020016060815260200160006001600160a01b03168152602001600081525090565b6000828152600160205260408120548391036118665760405162461bcd60e51b81526004016108a490612741565b600083815260016020818152604080842081516101a0810183528154815293810154928401929092526002808301546001600160a01b031691840191909152600382015460608401526004820154608084019160ff909116908111156118ce576118ce612177565b60028111156118df576118df612177565b81526020016004820160019054906101000a900460ff16600481111561190757611907612177565b600481111561191857611918612177565b8152602001600582015481526020016006820154815260200160078201548152602001600882015481526020016009820180546119549061270d565b80601f01602080910402602001604051908101604052809291908181526020018280546119809061270d565b80156119cd5780601f106119a2576101008083540402835291602001916119cd565b820191906000526020600020905b8154815290600101906020018083116119b057829003601f168201915b5050509183525050600a8201546001600160a01b03166020820152600b9091015460409091015290506000808260a001516004811115611a0f57611a0f612177565b141580611a265750600a546001600160a01b031633145b80611a4a5750600085815260056020908152604080832033845290915290205460ff165b905080611a995760405162461bcd60e51b815260206004820152601e60248201527f4e6f7420617574686f72697a656420746f20766965772064657461696c73000060448201526064016108a4565b5091505b50919050565b600084815260016020526040812054859103611ad15760405162461bcd60e51b81526004016108a490612741565b600085815260016020819052604090912090600482015460ff166002811115611afc57611afc612177565b14611b395760405162461bcd60e51b815260206004820152600d60248201526c4e6f74205a4b20657363726f7760981b60448201526064016108a4565b6000600482810154610100900460ff1690811115611b5957611b59612177565b14611b765760405162461bcd60e51b81526004016108a4906128f1565b6020831180611bba5760405162461bcd60e51b815260206004820152601060248201526f1692c81c1c9bdbd9881a5b9d985b1a5960821b60448201526064016108a4565b6008820186905560405160018152869088907fe284f44b9bacc009f7c2e0d5058b0aa33647ba3525f7a802b461f5087141d3719060200160405180910390a350505050505050565b600084848484604051602001611c1a9392919061291b565b60405160208183030381529060405280519060200120149050949350505050565b600081815260016020526040812054829103611c695760405162461bcd60e51b81526004016108a490612741565b600082815260016020526040812090600482810154610100900460ff1690811115611c9657611c96612177565b14611cb35760405162461bcd60e51b81526004016108a4906128f1565b8060060154421115611cfe5760405162461bcd60e51b815260206004820152601460248201527314995d99585b081dda5b991bddc818db1bdcd95960621b60448201526064016108a4565b60048101805461ff0019166103001790556040514790600090339083908381818185875af1925050503d8060008114611d53576040519150601f19603f3d011682016040523d82523d6000602084013e611d58565b606091505b5050905080611d995760405162461bcd60e51b815260206004820152600d60248201526c1499599d5b990819985a5b1959609a1b60448201526064016108a4565b847fdc48a08bb890bd1b8e4261212a97a5e711e80830d96ba56b362f3ac5f427d51e836040516111d991815260200190565b600083815260016020526040812054849103611df95760405162461bcd60e51b81526004016108a490612741565b600084815260016020819052604090912090600482810154610100900460ff1690811115611e2957611e29612177565b14611e6a5760405162461bcd60e51b8152602060048201526011602482015270457363726f77206e6f742061637469766560781b60448201526064016108a4565b8060070154421115611ebe5760405162461bcd60e51b815260206004820152601860248201527f436f6d706c6574696f6e2077696e646f7720636c6f736564000000000000000060448201526064016108a4565b6001810154600090815260046020526040902060028101548414611f185760405162461bcd60e51b815260206004820152601160248201527024b73b30b634b210373ab63634b334b2b960791b60448201526064016108a4565b60028201546003830154604051600092611f42926001600160a01b0390911691899060200161291b565b60405160208183030381529060405280519060200120905082600101548114611f9e5760405162461bcd60e51b815260206004820152600e60248201526d125b9d985b1a59081cd958dc995d60921b60448201526064016108a4565b60048301805461ff001916610200179055600283015460038401546040516000926001600160a01b031691908381818185875af1925050503d8060008114612002576040519150601f19603f3d011682016040523d82523d6000602084013e612007565b606091505b505090508061204a5760405162461bcd60e51b815260206004820152600f60248201526e151c985b9cd9995c8819985a5b1959608a1b60448201526064016108a4565b6002840154600385015460408051918252602082018990526001600160a01b03909216918a917f8827f1250b8af9d70e3b50027f1aacd7d8ecf4a62d96604e49f29d720ffd94fa910160405180910390a35050505050505050565b6000828152600160205260408120548391036120d35760405162461bcd60e51b81526004016108a490612741565b600083815260016020818152604080842090920154835260029052902054839060ff1661212f5760405162461bcd60e51b815260206004820152600a60248201526927b7363c90313abcb2b960b11b60448201526064016108a4565b505060009182526005602090815260408084206001600160a01b0390931684529190529020805460ff19169055565b60006020828403121561217057600080fd5b5035919050565b634e487b7160e01b600052602160045260246000fd5b6003811061219d5761219d612177565b9052565b6005811061219d5761219d612177565b6000815180845260005b818110156121d7576020818501810151868301820152016121bb565b506000602082860101526020601f19601f83011685010191505092915050565b60006101a08f83528e602084015260018060a01b03808f1660408501528d6060850152612227608085018e61218d565b61223460a085018d6121a1565b8a60c08501528960e0850152886101008501528761012085015281610140850152612261828501886121b1565b9516610160840152505061018001529b9a5050505050505050505050565b878152866020820152612295604082018761218d565b6122a260608201866121a1565b8360808201528260a082015260e060c082015260006122c460e08301846121b1565b9998505050505050505050565b6001600160a01b03811681146122e657600080fd5b50565b600080604083850312156122fc57600080fd5b8235612307816122d1565b915060208301356005811061231b57600080fd5b809150509250929050565b6020808252825182820181905260009190848201906040850190845b8181101561235e57835183529284019291840191600101612342565b50909695505050505050565b634e487b7160e01b600052604160045260246000fd5b600082601f83011261239157600080fd5b813567ffffffffffffffff808211156123ac576123ac61236a565b604051601f8301601f19908116603f011681019082821181831017156123d4576123d461236a565b816040528381528660208588010111156123ed57600080fd5b836020870160208301376000602085830101528094505050505092915050565b6000806000806080858703121561242357600080fd5b843593506020850135925060408501356003811061244057600080fd5b9150606085013567ffffffffffffffff81111561245c57600080fd5b61246887828801612380565b91505092959194509250565b6000806040838503121561248757600080fd5b82359150602083013567ffffffffffffffff8111156124a557600080fd5b6124b185828601612380565b9150509250929050565b6020815260006124ce60208301846121b1565b9392505050565b600080604083850312156124e857600080fd5b82359150602083013561231b816122d1565b6000806000806080858703121561251057600080fd5b843593506020850135612522816122d1565b93969395505050506040820135916060013590565b60006020828403121561254957600080fd5b81356124ce816122d1565b6000806040838503121561256757600080fd5b823591506020830135801515811461231b57600080fd5b602081528151602082015260208201516040820152600060408301516125af60608401826001600160a01b03169052565b506060830151608083015260808301516125cc60a084018261218d565b5060a08301516125df60c08401826121a1565b5060c083015160e0838101919091528301516101008084019190915283015161012080840191909152830151610140808401919091528301516101a06101608085018290526126326101c08601846121b1565b90860151909250610180612650868201836001600160a01b03169052565b959095015193019290925250919050565b6000806000806060858703121561267757600080fd5b8435935060208501359250604085013567ffffffffffffffff8082111561269d57600080fd5b818701915087601f8301126126b157600080fd5b8135818111156126c057600080fd5b8860208285010111156126d257600080fd5b95989497505060200194505050565b6000806000606084860312156126f657600080fd5b505081359360208301359350604090920135919050565b600181811c9082168061272157607f821691505b602082108103611a9d57634e487b7160e01b600052602260045260246000fd5b602080825260159082015274115cd8dc9bddc8191bd95cc81b9bdd08195e1a5cdd605a1b604082015260600190565b634e487b7160e01b600052601160045260246000fd5b60006001820161279857612798612770565b5060010190565b634e487b7160e01b600052603260045260246000fd5b80820180821115610c6857610c68612770565b601f8211156117bc57600081815260208120601f850160051c810160208610156127ef5750805b601f850160051c820191505b8181101561280e578281556001016127fb565b505050505050565b815167ffffffffffffffff8111156128305761283061236a565b6128448161283e845461270d565b846127c8565b602080601f83116001811461287957600084156128615750858301515b600019600386901b1c1916600185901b17855561280e565b600085815260208120601f198616915b828110156128a857888601518255948401946001909101908401612889565b50858210156128c65787850151600019600388901b60f8161c191681555b5050505050600190811b01905550565b604081016128e4828561218d565b8260208301529392505050565b60208082526010908201526f105b1c9958591e481c995d99585b195960821b604082015260600190565b60609390931b6bffffffffffffffffffffffff19168352601483019190915260348201526054019056fea2646970667358221220b9e195e82d281888d75c863574ffdc6791176a0650a7b9a297395f3da38ae9e764736f6c63430008140033",
  "linkReferences": {},
  "deployedLinkReferences": {}
}