{
  "_format": "hh-sol-artifact-1",
  "contractName": "EscrowConditions",
  "sourceName": "contracts/EscrowConditions.sol",
  "abi": [
    {
      "inputs": [],
      "stateMutability": "nonpayable",
      "type": "constructor"
    },
    {
      "anonymous": false,
      "inputs": [
        {
          "indexed": true,
          "internalType": "uint256",
          "name": "escrowId",
          "type": "uint256"
        },
        {
          "indexed": false,
          "internalType": "bytes32",
          "name": "callbackId",
          "type": "bytes32"
        },
        {
          "indexed": false,
          "internalType": "bool",
          "name": "conditionMet",
          "type": "bool"
        }
      ],
      "name": "ApiCallbackReceived",
      "type": "event"
    },
    {
      "anonymous": false,
      "inputs": [
        {
          "indexed": true,
          "internalType": "uint256",
          "name": "escrowId",
          "type": "uint256"
        },
        {
          "indexed": false,
          "internalType": "uint256",
          "name": "conditionIndex",
          "type": "uint256"
        },
        {
          "indexed": false,
          "internalType": "enum EscrowConditions.ConditionType",
          "name": "conditionType",
          "type": "uint8"
        }
      ],
      "name": "ConditionMet",
      "type": "event"
    },
    {
      "anonymous": false,
      "inputs": [
        {
          "indexed": true,
          "internalType": "uint256",
          "name": "escrowId",
          "type": "uint256"
        },
        {
          "indexed": true,
          "internalType": "address",
          "name": "buyer",
          "type": "address"
        },
        {
          "indexed": true,
          "internalType": "address",
          "name": "seller",
          "type": "address"
        },
        {
          "indexed": false,
          "internalType": "uint256",
          "name": "amount",
          "type": "uint256"
        },
        {
          "indexed": false,
          "internalType": "enum EscrowConditions.ConditionType[]",
          "name": "conditionTypes",
          "type": "uint8[]"
        }
      ],
      "name": "ConditionalEscrowCreated",
      "type": "event"
    },
    {
      "anonymous": false,
      "inputs": [
        {
          "indexed": true,
          "internalType": "uint256",
          "name": "escrowId",
          "type": "uint256"
        },
        {
          "indexed": true,
          "internalType": "address",
          "name": "seller",
          "type": "address"
        },
        {
          "indexed": false,
          "internalType": "uint256",
          "name": "amount",
          "type": "uint256"
        },
        {
          "indexed": false,
          "internalType": "string",
          "name": "releaseReason",
          "type": "string"
        }
      ],
      "name": "EscrowReleased",
      "type": "event"
    },
    {
      "anonymous": false,
      "inputs": [
        {
          "indexed": true,
          "internalType": "address",
          "name": "oracle",
          "type": "address"
        },
        {
          "indexed": false,
          "internalType": "string",
          "name": "name",
          "type": "string"
        }
      ],
      "name": "OracleRegistered",
      "type": "event"
    },
    {
      "inputs": [],
      "name": "MAX_CONDITIONS",
      "outputs": [
        {
          "internalType": "uint256",
          "name": "",
          "type": "uint256"
        }
      ],
      "stateMutability": "view",
      "type": "function"
    },
    {
      "inputs": [],
      "name": "MAX_EXPIRY_DAYS",
      "outputs": [
        {
          "internalType": "uint256",
          "name": "",
          "type": "uint256"
        }
      ],
      "stateMutability": "view",
      "type": "function"
    },
    {
      "inputs": [
        {
          "internalType": "uint256",
          "name": "_escrowId",
          "type": "uint256"
        },
        {
          "internalType": "string",
          "name": "_apiEndpoint",
          "type": "string"
        },
        {
          "internalType": "bytes32",
          "name": "_callbackId",
          "type": "bytes32"
        }
      ],
      "name": "addApiCondition",
      "outputs": [],
      "stateMutability": "nonpayable",
      "type": "function"
    },
    {
      "inputs": [
        {
          "internalType": "uint256",
          "name": "_escrowId",
          "type": "uint256"
        },
        {
          "internalType": "address[]",
          "name": "_approvers",
          "type": "address[]"
        },
        {
          "internalType": "uint256",
          "name": "_requiredApprovals",
          "type": "uint256"
        }
      ],
      "name": "addMultisigCondition",
      "outputs": [],
      "stateMutability": "nonpayable",
      "type": "function"
    },
    {
      "inputs": [
        {
          "internalType": "uint256",
          "name": "_escrowId",
          "type": "uint256"
        },
        {
          "internalType": "bool",
          "name": "_isAbove",
          "type": "bool"
        },
        {
          "internalType": "uint256",
          "name": "_priceThreshold",
          "type": "uint256"
        },
        {
          "internalType": "string",
          "name": "_assetPair",
          "type": "string"
        }
      ],
      "name": "addPriceCondition",
      "outputs": [],
      "stateMutability": "nonpayable",
      "type": "function"
    },
    {
      "inputs": [
        {
          "internalType": "uint256",
          "name": "_escrowId",
          "type": "uint256"
        },
        {
          "internalType": "uint256",
          "name": "_targetTimestamp",
          "type": "uint256"
        }
      ],
      "name": "addTimestampCondition",
      "outputs": [],
      "stateMutability": "nonpayable",
      "type": "function"
    },
    {
      "inputs": [
        {
          "internalType": "uint256",
          "name": "",
          "type": "uint256"
        }
      ],
      "name": "approvalCount",
      "outputs": [
        {
          "internalType": "uint256",
          "name": "",
          "type": "uint256"
        }
      ],
      "stateMutability": "view",
      "type": "function"
    },
    {
      "inputs": [
        {
          "internalType": "uint256",
          "name": "_escrowId",
          "type": "uint256"
        },
        {
          "internalType": "uint256",
          "name": "_conditionIndex",
          "type": "uint256"
        }
      ],
      "name": "approveMultisig",
      "outputs": [],
      "stateMutability": "nonpayable",
      "type": "function"
    },
    {
      "inputs": [
        {
          "internalType": "uint256",
          "name": "_escrowId",
          "type": "uint256"
        }
      ],
      "name": "areConditionsMet",
      "outputs": [
        {
          "internalType": "bool",
          "name": "",
          "type": "bool"
        }
      ],
      "stateMutability": "view",
      "type": "function"
    },
    {
      "inputs": [
        {
          "internalType": "uint256",
          "name": "_escrowId",
          "type": "uint256"
        }
      ],
      "name": "checkConditions",
      "outputs": [],
      "stateMutability": "nonpayable",
      "type": "function"
    },
    {
      "inputs": [
        {
          "internalType": "address",
          "name": "_seller",
          "type": "address"
        },
        {
          "internalType": "string",
          "name": "_description",
          "type": "string"
        },
        {
          "internalType": "uint256",
          "name": "_expiryDays",
          "type": "uint256"
        }
      ],
      "name": "createConditionalEscrow",
      "outputs": [],
      "stateMutability": "payable",
      "type": "function"
    },
    {
      "inputs": [],
      "name": "defaultPriceOracle",
      "outputs": [
        {
          "internalType": "address",
          "name": "",
          "type": "address"
        }
      ],
      "stateMutability": "view",
      "type": "function"
    },
    {
      "inputs": [],
      "name": "escrowCount",
      "outputs": [
        {
          "internalType": "uint256",
          "name": "",
          "type": "uint256"
        }
      ],
      "stateMutability": "view",
      "type": "function"
    },
    {
      "inputs": [
        {
          "internalType": "uint256",
          "name": "",
          "type": "uint256"
        }
      ],
      "name": "escrows",
      "outputs": [
        {
          "internalType": "uint256",
          "name": "id",
          "type": "uint256"
        },
        {
          "internalType": "address",
          "name": "buyer",
          "type": "address"
        },
        {
          "internalType": "address",
          "name": "seller",
          "type": "address"
        },
        {
          "internalType": "uint256",
          "name": "amount",
          "type": "uint256"
        },
        {
          "internalType": "string",
          "name": "description",
          "type": "string"
        },
        {
          "internalType": "uint256",
          "name": "createdAt",
          "type": "uint256"
        },
        {
          "internalType": "uint256",
          "name": "expiryDate",
          "type": "uint256"
        },
        {
          "internalType": "enum EscrowConditions.EscrowStatus",
          "name": "status",
          "type": "uint8"
        }
      ],
      "stateMutability": "view",
      "type": "function"
    },
    {
      "inputs": [
        {
          "internalType": "address",
          "name": "_buyer",
          "type": "address"
        }
      ],
      "name": "getBuyerEscrows",
      "outputs": [
        {
          "internalType": "uint256[]",
          "name": "",
          "type": "uint256[]"
        }
      ],
      "stateMutability": "view",
      "type": "function"
    },
    {
      "inputs": [
        {
          "internalType": "uint256",
          "name": "_escrowId",
          "type": "uint256"
        }
      ],
      "name": "getConditionStatus",
      "outputs": [
        {
          "internalType": "bool[]",
          "name": "metStatus",
          "type": "bool[]"
        },
        {
          "internalType": "uint256[]",
          "name": "metTimestamps",
          "type": "uint256[]"
        }
      ],
      "stateMutability": "view",
      "type": "function"
    },
    {
      "inputs": [
        {
          "internalType": "uint256",
          "name": "_escrowId",
          "type": "uint256"
        }
      ],
      "name": "getEscrow",
      "outputs": [
        {
          "components": [
            {
              "internalType": "uint256",
              "name": "id",
              "type": "uint256"
            },
            {
              "internalType": "address",
              "name": "buyer",
              "type": "address"
            },
            {
              "internalType": "address",
              "name": "seller",
              "type": "address"
            },
            {
              "internalType": "uint256",
              "name": "amount",
              "type": "uint256"
            },
            {
              "internalType": "string",
              "name": "description",
              "type": "string"
            },
            {
              "components": [
                {
                  "internalType": "enum EscrowConditions.ConditionType",
                  "name": "conditionType",
                  "type": "uint8"
                },
                {
                  "internalType": "address",
                  "name": "oracle",
                  "type": "address"
                },
                {
                  "internalType": "bytes",
                  "name": "parameters",
                  "type": "bytes"
                },
                {
                  "internalType": "uint256",
                  "name": "threshold",
                  "type": "uint256"
                },
                {
                  "internalType": "string",
                  "name": "apiEndpoint",
                  "type": "string"
                },
                {
                  "internalType": "bool",
                  "name": "isMet",
                  "type": "bool"
                },
                {
                  "internalType": "uint256",
                  "name": "metAt",
                  "type": "uint256"
                }
              ],
              "internalType": "struct EscrowConditions.Condition[]",
              "name": "conditions",
              "type": "tuple[]"
            },
            {
              "internalType": "uint256",
              "name": "createdAt",
              "type": "uint256"
            },
            {
              "internalType": "uint256",
              "name": "expiryDate",
              "type": "uint256"
            },
            {
              "internalType": "enum EscrowConditions.EscrowStatus",
              "name": "status",
              "type": "uint8"
            },
            {
              "internalType": "uint256[]",
              "name": "subConditionIds",
              "type": "uint256[]"
            }
          ],
          "internalType": "struct EscrowConditions.ConditionalEscrow",
          "name": "",
          "type": "tuple"
        }
      ],
      "stateMutability": "view",
      "type": "function"
    },
    {
      "inputs": [
        {
          "internalType": "uint256",
          "name": "",
          "type": "uint256"
        },
        {
          "internalType": "address",
          "name": "",
          "type": "address"
        }
      ],
      "name": "hasApproved",
      "outputs": [
        {
          "internalType": "bool",
          "name": "",
          "type": "bool"
        }
      ],
      "stateMutability": "view",
      "type": "function"
    },
    {
      "inputs": [
        {
          "internalType": "address",
          "name": "",
          "type": "address"
        }
      ],
      "name": "isOracleProvider",
      "outputs": [
        {
          "internalType": "bool",
          "name": "",
          "type": "bool"
        }
      ],
      "stateMutability": "view",
      "type": "function"
    },
    {
      "inputs": [
        {
          "internalType": "address",
          "name": "",
          "type": "address"
        }
      ],
      "name": "oracleProviders",
      "outputs": [
        {
          "internalType": "address",
          "name": "oracleAddress",
          "type": "address"
        },
        {
          "internalType": "string",
          "name": "name",
          "type": "string"
        },
        {
          "internalType": "bool",
          "name": "isActive",
          "type": "bool"
        },
        {
          "internalType": "uint256",
          "name": "trustedSince",
          "type": "uint256"
        }
      ],
      "stateMutability": "view",
      "type": "function"
    },
    {
      "inputs": [],
      "name": "owner",
      "outputs": [
        {
          "internalType": "address",
          "name": "",
          "type": "address"
        }
      ],
      "stateMutability": "view",
      "type": "function"
    },
    {
      "inputs": [
        {
          "internalType": "uint256",
          "name": "_escrowId",
          "type": "uint256"
        }
      ],
      "name": "refundIfExpired",
      "outputs": [],
      "stateMutability": "nonpayable",
      "type": "function"
    },
    {
      "inputs": [
        {
          "internalType": "address",
          "name": "_oracle",
          "type": "address"
        },
        {
          "internalType": "string",
          "name": "_name",
          "type": "string"
        }
      ],
      "name": "registerOracle",
      "outputs": [],
      "stateMutability": "nonpayable",
      "type": "function"
    },
    {
      "inputs": [
        {
          "internalType": "uint256",
          "name": "_escrowId",
          "type": "uint256"
        }
      ],
      "name": "releaseIfConditionsMet",
      "outputs": [],
      "stateMutability": "nonpayable",
      "type": "function"
    },
    {
      "inputs": [
        {
          "internalType": "address",
          "name": "_oracle",
          "type": "address"
        }
      ],
      "name": "setDefaultPriceOracle",
      "outputs": [],
      "stateMutability": "nonpayable",
      "type": "function"
    },
    {
      "inputs": [
        {
          "internalType": "uint256",
          "name": "_escrowId",
          "type": "uint256"
        },
        {
          "internalType": "uint256",
          "name": "_conditionIndex",
          "type": "uint256"
        },
        {
          "internalType": "bytes32",
          "name": "_callbackId",
          "type": "bytes32"
        },
        {
          "internalType": "bool",
          "name": "_conditionMet",
          "type": "bool"
        }
      ],
      "name": "submitApiCallback",
      "outputs": [],
      "stateMutability": "nonpayable",
      "type": "function"
    },
    {
      "inputs": [
        {
          "internalType": "uint256",
          "name": "_escrowId",
          "type": "uint256"
        },
        {
          "internalType": "uint256",
          "name": "_conditionIndex",
          "type": "uint256"
        },
        {
          "internalType": "uint256",
          "name": "_currentPrice",
          "type": "uint256"
        },
        {
          "internalType": "uint256",
          "name": "_timestamp",
          "type": "uint256"
        }
      ],
      "name": "submitPriceUpdate",
      "outputs": [],
      "stateMutability": "nonpayable",
      "type": "function"
    },
    {
      "inputs": [
        {
          "internalType": "bytes32",
          "name": "",
          "type": "bytes32"
        }
      ],
      "name": "usedApiCallbacks",
      "outputs": [
        {
          "internalType": "bool",
          "name": "",
          "type": "bool"
        }
      ],
      "stateMutability": "view",
      "type": "function"
    },
    {
      "stateMutability": "payable",
      "type": "receive"
    }
  ],
  "bytecode": "0x608060405234801561001057600080fd5b50600780546001600160a01b031916331790556133cd806100326000396000f3fe6080604052600436106101bb5760003560e01c8063675ac67a116100ec578063b5daa9d61161008a578063d9b7f3ee11610064578063d9b7f3ee14610575578063da88b5e61461058a578063e2b93b84146105ba578063fdb21f2f146105d057600080fd5b8063b5daa9d6146104e7578063be56310414610517578063d0a479db1461054557600080fd5b80637e6032cf116100c65780637e6032cf1461045a5780638da5cb5b1461047a578063b094b9611461049a578063b3f197d7146104ba57600080fd5b8063675ac67a146104045780637cefbc821461041a5780637d19e5961461042d57600080fd5b806340ad01ea11610159578063576b3a6411610133578063576b3a641461036c5780635a47cd60146103a45780635da6d08c146103c4578063640739ae146103e457600080fd5b806340ad01ea146102f157806348f9356e1461032c57806353d02c431461034c57600080fd5b8063131c476f11610195578063131c476f146102465780632358d5a81461026657806325f6a4f6146102b15780633b1aa3e6146102d157600080fd5b8063012f52ee146101c7578063106deb4214610204578063116fb3441461022657600080fd5b366101c257005b600080fd5b3480156101d357600080fd5b506101e76101e23660046128df565b6105f0565b6040516101fb989796959493929190612968565b60405180910390f35b34801561021057600080fd5b5061022461021f366004612a2e565b6106cd565b005b34801561023257600080fd5b50610224610241366004612aef565b610968565b34801561025257600080fd5b50610224610261366004612b11565b610a39565b34801561027257600080fd5b506102a1610281366004612b33565b600460209081526000928352604080842090915290825290205460ff1681565b60405190151581526020016101fb565b3480156102bd57600080fd5b506102246102cc366004612bcf565b610cb9565b3480156102dd57600080fd5b506102246102ec3660046128df565b610e7d565b3480156102fd57600080fd5b5061031e61030c3660046128df565b60056020526000908152604090205481565b6040519081526020016101fb565b34801561033857600080fd5b506102246103473660046128df565b611074565b34801561035857600080fd5b50610224610367366004612b11565b611236565b34801561037857600080fd5b5060085461038c906001600160a01b031681565b6040516001600160a01b0390911681526020016101fb565b3480156103b057600080fd5b506102246103bf366004612c2f565b611428565b3480156103d057600080fd5b506102246103df366004612c6e565b6116f0565b3480156103f057600080fd5b506102a16103ff3660046128df565b6118c6565b34801561041057600080fd5b5061031e60005481565b610224610428366004612cbc565b61196e565b34801561043957600080fd5b5061044d6104483660046128df565b611b8a565b6040516101fb9190612e04565b34801561046657600080fd5b50610224610475366004612ed9565b611f3b565b34801561048657600080fd5b5060075461038c906001600160a01b031681565b3480156104a657600080fd5b506102246104b53660046128df565b61216f565b3480156104c657600080fd5b506104da6104d5366004612aef565b612316565b6040516101fb9190612f3a565b3480156104f357600080fd5b50610507610502366004612aef565b61242e565b6040516101fb9493929190612f4d565b34801561052357600080fd5b506105376105323660046128df565b6124ed565b6040516101fb929190612f84565b34801561055157600080fd5b506102a1610560366004612aef565b60036020526000908152604090205460ff1681565b34801561058157600080fd5b5061031e600581565b34801561059657600080fd5b506102a16105a53660046128df565b60066020526000908152604090205460ff1681565b3480156105c657600080fd5b5061031e61016d81565b3480156105dc57600080fd5b506102246105eb366004612fd3565b612686565b6001602081905260009182526040909120805491810154600282015460038301546004840180546001600160a01b03948516959490931693919261063390613005565b80601f016020809104026020016040519081016040528092919081815260200182805461065f90613005565b80156106ac5780601f10610681576101008083540402835291602001916106ac565b820191906000526020600020905b81548152906001019060200180831161068f57829003601f168201915b50505050600683015460078401546008909401549293909290915060ff1688565b6000838152600160205260408120548491036107045760405162461bcd60e51b81526004016106fb90613039565b60405180910390fd5b6000848152600160208190526040909120015484906001600160a01b031633146107405760405162461bcd60e51b81526004016106fb90613068565b6000858152600160205260409020600580820154106107715760405162461bcd60e51b81526004016106fb9061308c565b6000600882015460ff16600481111561078c5761078c61293e565b146107a95760405162461bcd60e51b81526004016106fb906130bc565b83855110156107f05760405162461bcd60e51b8152602060048201526013602482015272125b9d985b1a59081c995c5d5a5c995b595b9d606a1b60448201526064016106fb565b600084116108325760405162461bcd60e51b815260206004820152600f60248201526e4e656564206174206c65617374203160881b60448201526064016106fb565b6040805160e08101825260048152600060208083018290528351919383019161085f918a918a91016130e8565b60408051601f198184030181529181529082526020828101899052815180820183526000808252928401526060830182905260809092018190526005850180546001818101835591835292909120835160069384029091018054949550859490939192849260ff199092169184908111156108dc576108dc61293e565b0217905550602082015181546001600160a01b0390911661010002610100600160a81b03199091161781556040820151600182019061091b9082613188565b50606082015160028201556080820151600382019061093a9082613188565b5060a082015160048201805460ff191691151591909117905560c09091015160059091015550505050505050565b6007546001600160a01b031633146109af5760405162461bcd60e51b815260206004820152600a60248201526927b7363c9037bbb732b960b11b60448201526064016106fb565b6001600160a01b03811660009081526003602052604090205460ff16610a175760405162461bcd60e51b815260206004820152601960248201527f4d7573742062652072656769737465726564206f7261636c650000000000000060448201526064016106fb565b600880546001600160a01b0319166001600160a01b0392909216919091179055565b600082815260016020526040812054839103610a675760405162461bcd60e51b81526004016106fb90613039565b6000838152600160208190526040909120015483906001600160a01b03163314610aa35760405162461bcd60e51b81526004016106fb90613068565b600084815260016020526040902060058082015410610ad45760405162461bcd60e51b81526004016106fb9061308c565b6000600882015460ff166004811115610aef57610aef61293e565b14610b0c5760405162461bcd60e51b81526004016106fb906130bc565b428411610b4c5760405162461bcd60e51b815260206004820152600e60248201526d4d7573742062652066757475726560901b60448201526064016106fb565b8060070154841115610b965760405162461bcd60e51b8152602060048201526013602482015272416674657220657363726f772065787069727960681b60448201526064016106fb565b6040805160e08101825260028152600060208083018290528351808201899052845180820383018152908501855283850152606083018890528351808201909452818452608083019390935260a0820181905260c082018190526005840180546001808201835591835293909120825160069485029091018054939485949193849260ff1916918490811115610c2e57610c2e61293e565b0217905550602082015181546001600160a01b0390911661010002610100600160a81b031990911617815560408201516001820190610c6d9082613188565b506060820151600282015560808201516003820190610c8c9082613188565b5060a082015160048201805460ff191691151591909117905560c090910151600590910155505050505050565b600083815260016020526040812054849103610ce75760405162461bcd60e51b81526004016106fb90613039565b6000848152600160208190526040909120015484906001600160a01b03163314610d235760405162461bcd60e51b81526004016106fb90613068565b600085815260016020526040902060058082015410610d545760405162461bcd60e51b81526004016106fb9061308c565b6000600882015460ff166004811115610d6f57610d6f61293e565b14610d8c5760405162461bcd60e51b81526004016106fb906130bc565b60008481526006602052604090205460ff1615610dde5760405162461bcd60e51b815260206004820152601060248201526f10d85b1b189858dac81251081d5cd95960821b60448201526064016106fb565b6040805160e08101825260038152600060208083018290528351808201899052845180820383018152908501855283850152606083018290526080830189905260a0830182905260c0830182905287825260068082529382208054600160ff199182168117909255600587018054808401825590855292909320845192860201805494958695919485939216919084908111156108dc576108dc61293e565b600081815260016020526040812054829103610eab5760405162461bcd60e51b81526004016106fb90613039565b600082815260016020526040812090600882015460ff166004811115610ed357610ed361293e565b14610ef05760405162461bcd60e51b81526004016106fb906130bc565b600160008080805b600586015481101561101e576000866005018281548110610f1b57610f1b613248565b6000918252602090912060069091020190506002815460ff166006811115610f4557610f4561293e565b03610f9c5780600201544210610f9c5760048101805460ff1916600117905542600582015580546040518a9160008051602061337883398151915291610f9391869160ff919091169061325e565b60405180910390a25b6005815460ff166006811115610fb457610fb461293e565b03610fc2576001935061100b565b6006815460ff166006811115610fda57610fda61293e565b03610fe8576001925061100b565b600481015460ff16610ff957600095505b600481015460ff161561100b57600194505b508061101681613288565b915050610ef8565b5060008261102c578361102e565b845b905080801561105557506000600887015460ff1660048111156110535761105361293e565b145b1561106a5760088601805460ff191660011790555b5050505050505050565b6000818152600160205260408120548291036110a25760405162461bcd60e51b81526004016106fb90613039565b600082815260016020819052604090912090600882015460ff1660048111156110cd576110cd61293e565b1461110f5760405162461bcd60e51b815260206004820152601260248201527110dbdb991a5d1a5bdb9cc81b9bdd081b595d60721b60448201526064016106fb565b60088101805460ff1916600290811790915581015460038201546040516000926001600160a01b031691908381818185875af1925050503d8060008114611172576040519150601f19603f3d011682016040523d82523d6000602084013e611177565b606091505b50509050806111ba5760405162461bcd60e51b815260206004820152600f60248201526e151c985b9cd9995c8819985a5b1959608a1b60448201526064016106fb565b6002820154600383015460408051918252602082018190526014908201527310dbdb991a5d1a5bdb9cc81cd85d1a5cd99a595960621b60608201526001600160a01b039091169085907f3383ce967df75f149a052461d47484a9b08cc0df945e13855659aa7fae13c9429060800160405180910390a350505050565b6000828152600160205260408120548391036112645760405162461bcd60e51b81526004016106fb90613039565b6000838152600160205260409020600581015483106112955760405162461bcd60e51b81526004016106fb906132a1565b60008160050184815481106112ac576112ac613248565b6000918252602090912060069091020190506004815460ff1660068111156112d6576112d661293e565b146113125760405162461bcd60e51b815260206004820152600c60248201526b4e6f74206d756c746973696760a01b60448201526064016106fb565b600085815260046020908152604080832033845290915290205460ff161561136f5760405162461bcd60e51b815260206004820152601060248201526f105b1c9958591e48185c1c1c9bdd995960821b60448201526064016106fb565b60008581526004602090815260408083203384528252808320805460ff19166001179055878352600590915281208054916113a983613288565b90915550506002810154600086815260056020526040902054108015906113d55750600481015460ff16155b156114215760048101805460ff19166001179055426005820155805460405186916000805160206133788339815191529161141891889160ff919091169061325e565b60405180910390a25b5050505050565b3360009081526003602052604090205460ff166114805760405162461bcd60e51b81526020600482015260166024820152754f6e6c792072656769737465726564206f7261636c6560501b60448201526064016106fb565b6000848152600160205260408120548591036114ae5760405162461bcd60e51b81526004016106fb90613039565b6000858152600160205260409020600581015485106114df5760405162461bcd60e51b81526004016106fb906132a1565b60008160050186815481106114f6576114f6613248565b6000918252602090912060069091020190506003815460ff1660068111156115205761152061293e565b146115615760405162461bcd60e51b81526020600482015260116024820152702737ba1020a8249031b7b73234ba34b7b760791b60448201526064016106fb565b600081600101805461157290613005565b80601f016020809104026020016040519081016040528092919081815260200182805461159e90613005565b80156115eb5780601f106115c0576101008083540402835291602001916115eb565b820191906000526020600020905b8154815290600101906020018083116115ce57829003601f168201915b505050505080602001905181019061160391906132cc565b905085811461164b5760405162461bcd60e51b8152602060048201526014602482015273086c2d8d8c4c2c6d640928840dad2e6dac2e8c6d60631b60448201526064016106fb565b84801561165d5750600482015460ff16155b156116a95760048201805460ff1916600117905542600583015581546040518991600080516020613378833981519152916116a0918b9160ff919091169061325e565b60405180910390a25b60408051878152861515602082015289917f14595ca7baabd77057654fc73de06615279979b2660d68e908457c17ce74056d91015b60405180910390a25050505050505050565b6007546001600160a01b031633146117375760405162461bcd60e51b815260206004820152600a60248201526927b7363c9037bbb732b960b11b60448201526064016106fb565b6001600160a01b03821661177e5760405162461bcd60e51b815260206004820152600e60248201526d496e76616c6964206f7261636c6560901b60448201526064016106fb565b6001600160a01b03821660009081526003602052604090205460ff16156117dc5760405162461bcd60e51b8152602060048201526012602482015271105b1c9958591e481c9959da5cdd195c995960721b60448201526064016106fb565b604080516080810182526001600160a01b03848116808352602080840186815260018587018190524260608701526000938452600290925294909120835181546001600160a01b0319169316929092178255925191929091908201906118429082613188565b5060408281015160028301805491151560ff199283161790556060909301516003928301556001600160a01b038516600081815260209390935291819020805490931660011790925590517ff545a9af646b70163c1732c00973245b51468b9158282edf881a20b200f4ad1f906118ba9084906132e5565b60405180910390a25050565b600081815260016020526040812054829082036118f55760405162461bcd60e51b81526004016106fb90613039565b6000838152600160205260408120905b600582015481101561195e5781600501818154811061192657611926613248565b600091825260209091206004600690920201015460ff1661194c57600093505050611968565b8061195681613288565b915050611905565b5060050154151591505b50919050565b6001600160a01b0383166119b55760405162461bcd60e51b815260206004820152600e60248201526d24b73b30b634b21039b2b63632b960911b60448201526064016106fb565b336001600160a01b03841603611a055760405162461bcd60e51b815260206004820152601560248201527421b0b73737ba1032b9b1b937bb903a379039b2b63360591b60448201526064016106fb565b60003411611a455760405162461bcd60e51b815260206004820152600d60248201526c09aeae6e840e6cadcc8408aa89609b1b60448201526064016106fb565b600081118015611a57575061016d8111155b611a945760405162461bcd60e51b815260206004820152600e60248201526d496e76616c69642065787069727960901b60448201526064016106fb565b600080549080611aa383613288565b9091555050600080548082526001602081905260409092209081559081018054336001600160a01b0319918216179091556002820180549091166001600160a01b03861617905534600382015560048101611afe8482613188565b50426006820155611b1282620151806132f8565b611b1c904261330f565b600782015560088101805460ff19169055600080546040805192835260208301908190526001600160a01b038716923392917ff6ebc51a094a58560dee0637a5b00633c5f4c643190d6602eef9878319a1e2a391611b7c91349190613322565b60405180910390a450505050565b611b92612869565b600082815260016020818152604080842081516101408101835281548152938101546001600160a01b039081169385019390935260028101549092169083015260038101546060830152600481018054608084019190611bf190613005565b80601f0160208091040260200160405190810160405280929190818152602001828054611c1d90613005565b8015611c6a5780601f10611c3f57610100808354040283529160200191611c6a565b820191906000526020600020905b815481529060010190602001808311611c4d57829003601f168201915b5050505050815260200160058201805480602002602001604051908101604052809291908181526020016000905b82821015611e6857838290600052602060002090600602016040518060e00160405290816000820160009054906101000a900460ff166006811115611cdf57611cdf61293e565b6006811115611cf057611cf061293e565b8152815461010090046001600160a01b03166020820152600182018054604090920191611d1c90613005565b80601f0160208091040260200160405190810160405280929190818152602001828054611d4890613005565b8015611d955780601f10611d6a57610100808354040283529160200191611d95565b820191906000526020600020905b815481529060010190602001808311611d7857829003601f168201915b5050505050815260200160028201548152602001600382018054611db890613005565b80601f0160208091040260200160405190810160405280929190818152602001828054611de490613005565b8015611e315780601f10611e0657610100808354040283529160200191611e31565b820191906000526020600020905b815481529060010190602001808311611e1457829003601f168201915b5050509183525050600482015460ff1615156020808301919091526005909201546040909101529082526001929092019101611c98565b505050908252506006820154602082015260078201546040820152600882015460609091019060ff166004811115611ea257611ea261293e565b6004811115611eb357611eb361293e565b815260200160098201805480602002602001604051908101604052809291908181526020018280548015611f0657602002820191906000526020600020905b815481526020019060010190808311611ef2575b50505050508152505090508060000151600003611f355760405162461bcd60e51b81526004016106fb90613039565b92915050565b600084815260016020526040812054859103611f695760405162461bcd60e51b81526004016106fb90613039565b6000858152600160208190526040909120015485906001600160a01b03163314611fa55760405162461bcd60e51b81526004016106fb90613068565b600086815260016020526040902060058082015410611fd65760405162461bcd60e51b81526004016106fb9061308c565b6000600882015460ff166004811115611ff157611ff161293e565b1461200e5760405162461bcd60e51b81526004016106fb906130bc565b60006040518060e001604052808861202757600161202a565b60005b600681111561203b5761203b61293e565b81526008546001600160a01b031660208083019190915260408051920191612065918991016132e5565b60408051601f1981840301815291815290825260208281018a9052815180820183526000808252928401526060830182905260809092018190526005850180546001818101835591835292909120835160069384029091018054949550859490939192849260ff199092169184908111156120e2576120e261293e565b0217905550602082015181546001600160a01b0390911661010002610100600160a81b0319909116178155604082015160018201906121219082613188565b5060608201516002820155608082015160038201906121409082613188565b5060a082015160048201805460ff191691151591909117905560c0909101516005909101555050505050505050565b60008181526001602052604081205482910361219d5760405162461bcd60e51b81526004016106fb90613039565b6000828152600160205260409020600781015442116121ec5760405162461bcd60e51b815260206004820152600b60248201526a139bdd08195e1c1a5c995960aa1b60448201526064016106fb565b6000600882015460ff1660048111156122075761220761293e565b148061222b57506001600882015460ff1660048111156122295761222961293e565b145b6122685760405162461bcd60e51b815260206004820152600e60248201526d496e76616c69642073746174757360901b60448201526064016106fb565b60088101805460ff19166004179055600181015460038201546040516000926001600160a01b031691908381818185875af1925050503d80600081146122ca576040519150601f19603f3d011682016040523d82523d6000602084013e6122cf565b606091505b50509050806123105760405162461bcd60e51b815260206004820152600d60248201526c1499599d5b990819985a5b1959609a1b60448201526064016106fb565b50505050565b6060600060015b600054811161236b57600081815260016020819052604090912001546001600160a01b03808616911603612359578161235581613288565b9250505b8061236381613288565b91505061231d565b5060008167ffffffffffffffff811115612387576123876129cb565b6040519080825280602002602001820160405280156123b0578160200160208202803683370190505b509050600060015b600054811161242457600081815260016020819052604090912001546001600160a01b0380881691160361241257808383815181106123f9576123f9613248565b60209081029190910101528161240e81613288565b9250505b8061241c81613288565b9150506123b8565b5090949350505050565b600260205260009081526040902080546001820180546001600160a01b03909216929161245a90613005565b80601f016020809104026020016040519081016040528092919081815260200182805461248690613005565b80156124d35780601f106124a8576101008083540402835291602001916124d3565b820191906000526020600020905b8154815290600101906020018083116124b657829003601f168201915b505050506002830154600390930154919260ff1691905084565b60008181526001602052604081205460609182918491036125205760405162461bcd60e51b81526004016106fb90613039565b6000848152600160205260409020600581015467ffffffffffffffff81111561254b5761254b6129cb565b604051908082528060200260200182016040528015612574578160200160208202803683370190505b50600582015490945067ffffffffffffffff811115612595576125956129cb565b6040519080825280602002602001820160405280156125be578160200160208202803683370190505b50925060005b600582015481101561267e578160050181815481106125e5576125e5613248565b906000526020600020906006020160040160009054906101000a900460ff1685828151811061261657612616613248565b60200260200101901515908115158152505081600501818154811061263d5761263d613248565b90600052602060002090600602016005015484828151811061266157612661613248565b60209081029190910101528061267681613288565b9150506125c4565b505050915091565b3360009081526003602052604090205460ff166126de5760405162461bcd60e51b81526020600482015260166024820152754f6e6c792072656769737465726564206f7261636c6560501b60448201526064016106fb565b60008481526001602052604081205485910361270c5760405162461bcd60e51b81526004016106fb90613039565b60008581526001602052604090206005810154851061273d5760405162461bcd60e51b81526004016106fb906132a1565b600081600501868154811061275457612754613248565b6000918252602082206006909102019150815460ff16600681111561277b5761277b61293e565b148061279c57506001815460ff16600681111561279a5761279a61293e565b145b6127de5760405162461bcd60e51b81526020600482015260136024820152722737ba10383934b1b29031b7b73234ba34b7b760691b60448201526064016106fb565b600080825460ff1660068111156127f7576127f761293e565b0361280a57506002810154851015612814565b5060028101548511155b8080156128265750600482015460ff16155b1561106a5760048201805460ff1916600117905542600583015581546040518991600080516020613378833981519152916116de918b9160ff919091169061325e565b6040518061014001604052806000815260200160006001600160a01b0316815260200160006001600160a01b031681526020016000815260200160608152602001606081526020016000815260200160008152602001600060048111156128d2576128d261293e565b8152602001606081525090565b6000602082840312156128f157600080fd5b5035919050565b6000815180845260005b8181101561291e57602081850181015186830182015201612902565b506000602082860101526020601f19601f83011685010191505092915050565b634e487b7160e01b600052602160045260246000fd5b600581106129645761296461293e565b9052565b8881526001600160a01b0388811660208301528716604082015260608101869052610100608082018190526000906129a2838201886128f8565b9150508460a08301528360c08301526129be60e0830184612954565b9998505050505050505050565b634e487b7160e01b600052604160045260246000fd5b604051601f8201601f1916810167ffffffffffffffff81118282101715612a0a57612a0a6129cb565b604052919050565b80356001600160a01b0381168114612a2957600080fd5b919050565b600080600060608486031215612a4357600080fd5b8335925060208085013567ffffffffffffffff80821115612a6357600080fd5b818701915087601f830112612a7757600080fd5b813581811115612a8957612a896129cb565b8060051b9150612a9a8483016129e1565b818152918301840191848101908a841115612ab457600080fd5b938501935b83851015612ad957612aca85612a12565b82529385019390850190612ab9565b979a979950505050604095909501359450505050565b600060208284031215612b0157600080fd5b612b0a82612a12565b9392505050565b60008060408385031215612b2457600080fd5b50508035926020909101359150565b60008060408385031215612b4657600080fd5b82359150612b5660208401612a12565b90509250929050565b600082601f830112612b7057600080fd5b813567ffffffffffffffff811115612b8a57612b8a6129cb565b612b9d601f8201601f19166020016129e1565b818152846020838601011115612bb257600080fd5b816020850160208301376000918101602001919091529392505050565b600080600060608486031215612be457600080fd5b83359250602084013567ffffffffffffffff811115612c0257600080fd5b612c0e86828701612b5f565b925050604084013590509250925092565b80358015158114612a2957600080fd5b60008060008060808587031215612c4557600080fd5b843593506020850135925060408501359150612c6360608601612c1f565b905092959194509250565b60008060408385031215612c8157600080fd5b612c8a83612a12565b9150602083013567ffffffffffffffff811115612ca657600080fd5b612cb285828601612b5f565b9150509250929050565b600080600060608486031215612cd157600080fd5b612cda84612a12565b9250602084013567ffffffffffffffff811115612c0257600080fd5b600781106129645761296461293e565b600081518084526020808501808196508360051b8101915082860160005b85811015612dbc578284038952815160e0612d40868351612cf6565b818701516001600160a01b031686880152604080830151818801839052612d69838901826128f8565b92505050606080830151818801525060808083015187830382890152612d8f83826128f8565b60a0858101511515908a015260c09485015194909801939093525050509784019790840190600101612d24565b5091979650505050505050565b600081518084526020808501945080840160005b83811015612df957815187529582019590820190600101612ddd565b509495945050505050565b602081528151602082015260006020830151612e2b60408401826001600160a01b03169052565b5060408301516001600160a01b0381166060840152506060830151608083015260808301516101408060a0850152612e676101608501836128f8565b915060a0850151601f19808685030160c0870152612e858483612d06565b935060c087015160e087015260e08701519150610100828188015280880151925050610120612eb681880184612954565b870151868503909101838701529050612ecf8382612dc9565b9695505050505050565b60008060008060808587031215612eef57600080fd5b84359350612eff60208601612c1f565b925060408501359150606085013567ffffffffffffffff811115612f2257600080fd5b612f2e87828801612b5f565b91505092959194509250565b602081526000612b0a6020830184612dc9565b6001600160a01b0385168152608060208201819052600090612f71908301866128f8565b9315156040830152506060015292915050565b604080825283519082018190526000906020906060840190828701845b82811015612fbf578151151584529284019290840190600101612fa1565b50505083810382850152612ecf8186612dc9565b60008060008060808587031215612fe957600080fd5b5050823594602084013594506040840135936060013592509050565b600181811c9082168061301957607f821691505b60208210810361196857634e487b7160e01b600052602260045260246000fd5b602080825260159082015274115cd8dc9bddc8191bd95cc81b9bdd08195e1a5cdd605a1b604082015260600190565b6020808252600a908201526927b7363c90313abcb2b960b11b604082015260600190565b60208082526016908201527513585e0818dbdb991a5d1a5bdb9cc81c995858da195960521b604082015260600190565b602080825260129082015271457363726f77206e6f742070656e64696e6760701b604082015260600190565b604080825283519082018190526000906020906060840190828701845b8281101561312a5781516001600160a01b031684529284019290840190600101613105565b50505092019290925292915050565b601f82111561318357600081815260208120601f850160051c810160208610156131605750805b601f850160051c820191505b8181101561317f5782815560010161316c565b5050505b505050565b815167ffffffffffffffff8111156131a2576131a26129cb565b6131b6816131b08454613005565b84613139565b602080601f8311600181146131eb57600084156131d35750858301515b600019600386901b1c1916600185901b17855561317f565b600085815260208120601f198616915b8281101561321a578886015182559484019460019091019084016131fb565b50858210156132385787850151600019600388901b60f8161c191681555b5050505050600190811b01905550565b634e487b7160e01b600052603260045260246000fd5b82815260408101612b0a6020830184612cf6565b634e487b7160e01b600052601160045260246000fd5b60006001820161329a5761329a613272565b5060010190565b60208082526011908201527024b73b30b634b21031b7b73234ba34b7b760791b604082015260600190565b6000602082840312156132de57600080fd5b5051919050565b602081526000612b0a60208301846128f8565b8082028115828204841417611f3557611f35613272565b80820180821115611f3557611f35613272565b6000604082018483526020604081850152818551808452606086019150828701935060005b8181101561336a5761335a838651612cf6565b9383019391830191600101613347565b509097965050505050505056fec8bf375f01e8a56bff7cd3aeab52760cc8555894c1adac6a31c3d371a757defca26469706673582212203f5e5f40a1cb8a1f4209024a2bd87f63fb1f7b6d4fa78d9c42d3fa6927b18e2564736f6c63430008140033",
  "linkReferences": {},
  "deployedLinkReferences": {}
}