{
  "_format": "hh-sol-artifact-1",
  "contractName": "EscrowPool",
  "sourceName": "contracts/EscrowPool.sol",
  "abi": [
    {
      "anonymous": false,
      "inputs": [
        {
          "indexed": true,
          "internalType": "uint256",
          "name": "poolId",
          "type": "uint256"
        },
        {
          "indexed": true,
          "internalType": "address",
          "name": "contributor",
          "type": "address"
        },
        {
          "indexed": false,
          "internalType": "uint256",
          "name": "amount",
          "type": "uint256"
        },
        {
          "indexed": false,
          "internalType": "uint256",
          "name": "newTotal",
          "type": "uint256"
        }
      ],
      "name": "ContributionMade",
      "type": "event"
    },
    {
      "anonymous": false,
      "inputs": [
        {
          "indexed": true,
          "internalType": "uint256",
          "name": "poolId",
          "type": "uint256"
        },
        {
          "indexed": true,
          "internalType": "address",
          "name": "contributor",
          "type": "address"
        },
        {
          "indexed": false,
          "internalType": "uint256",
          "name": "amount",
          "type": "uint256"
        }
      ],
      "name": "ContributionWithdrawn",
      "type": "event"
    },
    {
      "anonymous": false,
      "inputs": [
        {
          "indexed": true,
          "internalType": "uint256",
          "name": "poolId",
          "type": "uint256"
        },
        {
          "indexed": true,
          "internalType": "address",
          "name": "seller",
          "type": "address"
        },
        {
          "indexed": true,
          "internalType": "address",
          "name": "creator",
          "type": "address"
        },
        {
          "indexed": false,
          "internalType": "uint256",
          "name": "targetAmount",
          "type": "uint256"
        },
        {
          "indexed": false,
          "internalType": "uint256",
          "name": "fundingDeadline",
          "type": "uint256"
        },
        {
          "indexed": false,
          "internalType": "string",
          "name": "description",
          "type": "string"
        }
      ],
      "name": "PoolEscrowCreated",
      "type": "event"
    },
    {
      "anonymous": false,
      "inputs": [
        {
          "indexed": true,
          "internalType": "uint256",
          "name": "poolId",
          "type": "uint256"
        },
        {
          "indexed": false,
          "internalType": "uint256",
          "name": "totalAmount",
          "type": "uint256"
        },
        {
          "indexed": false,
          "internalType": "uint256",
          "name": "fundedAt",
          "type": "uint256"
        }
      ],
      "name": "PoolFunded",
      "type": "event"
    },
    {
      "anonymous": false,
      "inputs": [
        {
          "indexed": true,
          "internalType": "uint256",
          "name": "poolId",
          "type": "uint256"
        },
        {
          "indexed": false,
          "internalType": "uint256",
          "name": "totalRefunded",
          "type": "uint256"
        },
        {
          "indexed": false,
          "internalType": "uint256",
          "name": "refundedAt",
          "type": "uint256"
        }
      ],
      "name": "PoolRefunded",
      "type": "event"
    },
    {
      "anonymous": false,
      "inputs": [
        {
          "indexed": true,
          "internalType": "uint256",
          "name": "poolId",
          "type": "uint256"
        },
        {
          "indexed": false,
          "internalType": "uint256",
          "name": "totalAmount",
          "type": "uint256"
        },
        {
          "indexed": false,
          "internalType": "uint256",
          "name": "releasedAt",
          "type": "uint256"
        }
      ],
      "name": "PoolReleased",
      "type": "event"
    },
    {
      "anonymous": false,
      "inputs": [
        {
          "indexed": true,
          "internalType": "uint256",
          "name": "poolId",
          "type": "uint256"
        },
        {
          "indexed": true,
          "internalType": "address",
          "name": "voter",
          "type": "address"
        },
        {
          "indexed": false,
          "internalType": "bool",
          "name": "isReleaseVote",
          "type": "bool"
        },
        {
          "indexed": false,
          "internalType": "uint256",
          "name": "weight",
          "type": "uint256"
        }
      ],
      "name": "VoteCast",
      "type": "event"
    },
    {
      "inputs": [],
      "name": "MIN_CONTRIBUTION",
      "outputs": [
        {
          "internalType": "uint256",
          "name": "",
          "type": "uint256"
        }
      ],
      "stateMutability": "view",
      "type": "function"
    },
    {
      "inputs": [],
      "name": "REFUND_THRESHOLD_BPS",
      "outputs": [
        {
          "internalType": "uint256",
          "name": "",
          "type": "uint256"
        }
      ],
      "stateMutability": "view",
      "type": "function"
    },
    {
      "inputs": [],
      "name": "RELEASE_THRESHOLD_BPS",
      "outputs": [
        {
          "internalType": "uint256",
          "name": "",
          "type": "uint256"
        }
      ],
      "stateMutability": "view",
      "type": "function"
    },
    {
      "inputs": [
        {
          "internalType": "uint256",
          "name": "_poolId",
          "type": "uint256"
        }
      ],
      "name": "changeVoteToRelease",
      "outputs": [],
      "stateMutability": "nonpayable",
      "type": "function"
    },
    {
      "inputs": [
        {
          "internalType": "uint256",
          "name": "_poolId",
          "type": "uint256"
        }
      ],
      "name": "claimRefund",
      "outputs": [],
      "stateMutability": "nonpayable",
      "type": "function"
    },
    {
      "inputs": [
        {
          "internalType": "uint256",
          "name": "_poolId",
          "type": "uint256"
        }
      ],
      "name": "contribute",
      "outputs": [],
      "stateMutability": "payable",
      "type": "function"
    },
    {
      "inputs": [
        {
          "internalType": "uint256",
          "name": "",
          "type": "uint256"
        },
        {
          "internalType": "address",
          "name": "",
          "type": "address"
        }
      ],
      "name": "contributions",
      "outputs": [
        {
          "internalType": "uint256",
          "name": "",
          "type": "uint256"
        }
      ],
      "stateMutability": "view",
      "type": "function"
    },
    {
      "inputs": [
        {
          "internalType": "address",
          "name": "",
          "type": "address"
        },
        {
          "internalType": "uint256",
          "name": "",
          "type": "uint256"
        }
      ],
      "name": "contributorPools",
      "outputs": [
        {
          "internalType": "uint256",
          "name": "",
          "type": "uint256"
        }
      ],
      "stateMutability": "view",
      "type": "function"
    },
    {
      "inputs": [
        {
          "internalType": "address",
          "name": "_seller",
          "type": "address"
        },
        {
          "internalType": "uint256",
          "name": "_targetAmount",
          "type": "uint256"
        },
        {
          "internalType": "uint256",
          "name": "_fundingDeadlineDays",
          "type": "uint256"
        },
        {
          "internalType": "string",
          "name": "_description",
          "type": "string"
        }
      ],
      "name": "createPoolEscrow",
      "outputs": [],
      "stateMutability": "nonpayable",
      "type": "function"
    },
    {
      "inputs": [
        {
          "internalType": "uint256",
          "name": "_poolId",
          "type": "uint256"
        },
        {
          "internalType": "address",
          "name": "_contributor",
          "type": "address"
        }
      ],
      "name": "getContribution",
      "outputs": [
        {
          "internalType": "uint256",
          "name": "",
          "type": "uint256"
        }
      ],
      "stateMutability": "view",
      "type": "function"
    },
    {
      "inputs": [
        {
          "internalType": "address",
          "name": "_contributor",
          "type": "address"
        }
      ],
      "name": "getContributorPools",
      "outputs": [
        {
          "internalType": "uint256[]",
          "name": "",
          "type": "uint256[]"
        }
      ],
      "stateMutability": "view",
      "type": "function"
    },
    {
      "inputs": [
        {
          "internalType": "uint256",
          "name": "_poolId",
          "type": "uint256"
        }
      ],
      "name": "getPool",
      "outputs": [
        {
          "components": [
            {
              "internalType": "uint256",
              "name": "id",
              "type": "uint256"
            },
            {
              "internalType": "address",
              "name": "seller",
              "type": "address"
            },
            {
              "internalType": "uint256",
              "name": "targetAmount",
              "type": "uint256"
            },
            {
              "internalType": "uint256",
              "name": "currentAmount",
              "type": "uint256"
            },
            {
              "internalType": "uint256",
              "name": "fundingDeadline",
              "type": "uint256"
            },
            {
              "internalType": "string",
              "name": "description",
              "type": "string"
            },
            {
              "internalType": "enum EscrowPool.PoolStatus",
              "name": "status",
              "type": "uint8"
            },
            {
              "internalType": "uint256",
              "name": "releaseVotesWeight",
              "type": "uint256"
            },
            {
              "internalType": "uint256",
              "name": "refundVotesWeight",
              "type": "uint256"
            },
            {
              "internalType": "uint256",
              "name": "voterCount",
              "type": "uint256"
            },
            {
              "internalType": "address",
              "name": "creator",
              "type": "address"
            },
            {
              "internalType": "uint256",
              "name": "createdAt",
              "type": "uint256"
            }
          ],
          "internalType": "struct EscrowPool.PoolEscrow",
          "name": "",
          "type": "tuple"
        }
      ],
      "stateMutability": "view",
      "type": "function"
    },
    {
      "inputs": [
        {
          "internalType": "enum EscrowPool.PoolStatus",
          "name": "_status",
          "type": "uint8"
        }
      ],
      "name": "getPoolsByStatus",
      "outputs": [
        {
          "internalType": "uint256[]",
          "name": "",
          "type": "uint256[]"
        }
      ],
      "stateMutability": "view",
      "type": "function"
    },
    {
      "inputs": [
        {
          "internalType": "uint256",
          "name": "_start",
          "type": "uint256"
        },
        {
          "internalType": "uint256",
          "name": "_count",
          "type": "uint256"
        }
      ],
      "name": "getPoolsPaginated",
      "outputs": [
        {
          "components": [
            {
              "internalType": "uint256",
              "name": "id",
              "type": "uint256"
            },
            {
              "internalType": "address",
              "name": "seller",
              "type": "address"
            },
            {
              "internalType": "uint256",
              "name": "targetAmount",
              "type": "uint256"
            },
            {
              "internalType": "uint256",
              "name": "currentAmount",
              "type": "uint256"
            },
            {
              "internalType": "uint256",
              "name": "fundingDeadline",
              "type": "uint256"
            },
            {
              "internalType": "string",
              "name": "description",
              "type": "string"
            },
            {
              "internalType": "enum EscrowPool.PoolStatus",
              "name": "status",
              "type": "uint8"
            },
            {
              "internalType": "uint256",
              "name": "releaseVotesWeight",
              "type": "uint256"
            },
            {
              "internalType": "uint256",
              "name": "refundVotesWeight",
              "type": "uint256"
            },
            {
              "internalType": "uint256",
              "name": "voterCount",
              "type": "uint256"
            },
            {
              "internalType": "address",
              "name": "creator",
              "type": "address"
            },
            {
              "internalType": "uint256",
              "name": "createdAt",
              "type": "uint256"
            }
          ],
          "internalType": "struct EscrowPool.PoolEscrow[]",
          "name": "",
          "type": "tuple[]"
        }
      ],
      "stateMutability": "view",
      "type": "function"
    },
    {
      "inputs": [
        {
          "internalType": "address",
          "name": "_seller",
          "type": "address"
        }
      ],
      "name": "getSellerPools",
      "outputs": [
        {
          "internalType": "uint256[]",
          "name": "",
          "type": "uint256[]"
        }
      ],
      "stateMutability": "view",
      "type": "function"
    },
    {
      "inputs": [
        {
          "internalType": "uint256",
          "name": "_poolId",
          "type": "uint256"
        }
      ],
      "name": "getVotePercentages",
      "outputs": [
        {
          "internalType": "uint256",
          "name": "releasePercentBps",
          "type": "uint256"
        },
        {
          "internalType": "uint256",
          "name": "refundPercentBps",
          "type": "uint256"
        }
      ],
      "stateMutability": "view",
      "type": "function"
    },
    {
      "inputs": [
        {
          "internalType": "uint256",
          "name": "",
          "type": "uint256"
        },
        {
          "internalType": "address",
          "name": "",
          "type": "address"
        }
      ],
      "name": "hasVotedRefund",
      "outputs": [
        {
          "internalType": "bool",
          "name": "",
          "type": "bool"
        }
      ],
      "stateMutability": "view",
      "type": "function"
    },
    {
      "inputs": [
        {
          "internalType": "uint256",
          "name": "",
          "type": "uint256"
        },
        {
          "internalType": "address",
          "name": "",
          "type": "address"
        }
      ],
      "name": "hasVotedRelease",
      "outputs": [
        {
          "internalType": "bool",
          "name": "",
          "type": "bool"
        }
      ],
      "stateMutability": "view",
      "type": "function"
    },
    {
      "inputs": [
        {
          "internalType": "uint256",
          "name": "_poolId",
          "type": "uint256"
        }
      ],
      "name": "isExpired",
      "outputs": [
        {
          "internalType": "bool",
          "name": "",
          "type": "bool"
        }
      ],
      "stateMutability": "view",
      "type": "function"
    },
    {
      "inputs": [],
      "name": "poolCount",
      "outputs": [
        {
          "internalType": "uint256",
          "name": "",
          "type": "uint256"
        }
      ],
      "stateMutability": "view",
      "type": "function"
    },
    {
      "inputs": [
        {
          "internalType": "uint256",
          "name": "",
          "type": "uint256"
        }
      ],
      "name": "pools",
      "outputs": [
        {
          "internalType": "uint256",
          "name": "id",
          "type": "uint256"
        },
        {
          "internalType": "address",
          "name": "seller",
          "type": "address"
        },
        {
          "internalType": "uint256",
          "name": "targetAmount",
          "type": "uint256"
        },
        {
          "internalType": "uint256",
          "name": "currentAmount",
          "type": "uint256"
        },
        {
          "internalType": "uint256",
          "name": "fundingDeadline",
          "type": "uint256"
        },
        {
          "internalType": "string",
          "name": "description",
          "type": "string"
        },
        {
          "internalType": "enum EscrowPool.PoolStatus",
          "name": "status",
          "type": "uint8"
        },
        {
          "internalType": "uint256",
          "name": "releaseVotesWeight",
          "type": "uint256"
        },
        {
          "internalType": "uint256",
          "name": "refundVotesWeight",
          "type": "uint256"
        },
        {
          "internalType": "uint256",
          "name": "voterCount",
          "type": "uint256"
        },
        {
          "internalType": "address",
          "name": "creator",
          "type": "address"
        },
        {
          "internalType": "uint256",
          "name": "createdAt",
          "type": "uint256"
        }
      ],
      "stateMutability": "view",
      "type": "function"
    },
    {
      "inputs": [
        {
          "internalType": "address",
          "name": "",
          "type": "address"
        },
        {
          "internalType": "uint256",
          "name": "",
          "type": "uint256"
        }
      ],
      "name": "sellerPools",
      "outputs": [
        {
          "internalType": "uint256",
          "name": "",
          "type": "uint256"
        }
      ],
      "stateMutability": "view",
      "type": "function"
    },
    {
      "inputs": [
        {
          "internalType": "uint256",
          "name": "_poolId",
          "type": "uint256"
        }
      ],
      "name": "voteRefund",
      "outputs": [],
      "stateMutability": "nonpayable",
      "type": "function"
    },
    {
      "inputs": [
        {
          "internalType": "uint256",
          "name": "_poolId",
          "type": "uint256"
        }
      ],
      "name": "voteRelease",
      "outputs": [],
      "stateMutability": "nonpayable",
      "type": "function"
    },
    {
      "inputs": [
        {
          "internalType": "uint256",
          "name": "_poolId",
          "type": "uint256"
        }
      ],
      "name": "withdrawContribution",
      "outputs": [],
      "stateMutability": "nonpayable",
      "type": "function"
    }
  ],
  "bytecode": "0x608060405234801561001057600080fd5b50612b99806100206000396000f3fe6080604052600436106101665760003560e01c80635abda0d0116100d1578063c12e63321161008a578063d9548e5311610064578063d9548e531461049a578063e081dbf9146104ba578063e4c4c55a146104fd578063f525cb681461051d57600080fd5b8063c12e633214610309578063c1cbbca714610467578063d25090ff1461047a57600080fd5b80635abda0d01461038f5780635b7baf64146103af5780635f75e359146103cf5780636c8a0f6e146103ef5780638c08d36e1461040f578063ac4afa381461042f57600080fd5b80633d891f59116101235780633d891f591461026b57806340650c91146102a3578063466b823a146102be5780634bfc833c146103095780635015de3a1461031f57806351dcabe51461035457600080fd5b8063068bcd8d1461016b578063134c213f146101a15780631dce7b8b146101cf57806320f87401146101fc578063216352771461021c57806322c1baf41461023e575b600080fd5b34801561017757600080fd5b5061018b610186366004612460565b610533565b60405161019891906125ad565b60405180910390f35b3480156101ad57600080fd5b506101c16101bc3660046125e3565b6106c2565b604051908152602001610198565b3480156101db57600080fd5b506101ef6101ea36600461260d565b6106f3565b604051610198919061262f565b34801561020857600080fd5b506101c16102173660046125e3565b6109df565b34801561022857600080fd5b5061023c610237366004612460565b6109fb565b005b34801561024a57600080fd5b5061025e610259366004612691565b610c19565b60405161019891906126ac565b34801561027757600080fd5b506101c16102863660046126f0565b600260209081526000928352604080842090915290825290205481565b3480156102af57600080fd5b506101c166038d7ea4c6800081565b3480156102ca57600080fd5b506102f96102d93660046126f0565b600460209081526000928352604080842090915290825290205460ff1681565b6040519015158152602001610198565b34801561031557600080fd5b506101c161138881565b34801561032b57600080fd5b5061033f61033a366004612460565b610c85565b60408051928352602083019190915201610198565b34801561036057600080fd5b506102f961036f3660046126f0565b600360209081526000928352604080842090915290825290205460ff1681565b34801561039b57600080fd5b5061023c6103aa366004612732565b610e76565b3480156103bb57600080fd5b5061023c6103ca366004612460565b6111cf565b3480156103db57600080fd5b5061025e6103ea366004612807565b61136e565b3480156103fb57600080fd5b5061025e61040a366004612691565b6114b6565b34801561041b57600080fd5b5061023c61042a366004612460565b611520565b34801561043b57600080fd5b5061044f61044a366004612460565b61176d565b6040516101989c9b9a99989796959493929190612828565b61023c610475366004612460565b61186b565b34801561048657600080fd5b5061023c610495366004612460565b611b63565b3480156104a657600080fd5b506102f96104b5366004612460565b611e02565b3480156104c657600080fd5b506101c16104d53660046126f0565b60009182526002602090815260408084206001600160a01b0393909316845291905290205490565b34801561050957600080fd5b5061023c610518366004612460565b611fcd565b34801561052957600080fd5b506101c160005481565b61053b6123dc565b600082815260016020818152604080842081516101808101835281548152938101546001600160a01b031692840192909252600282015490830152600381015460608301526004810154608083015260058101805460a08401919061059f906128a8565b80601f01602080910402602001604051908101604052809291908181526020018280546105cb906128a8565b80156106185780601f106105ed57610100808354040283529160200191610618565b820191906000526020600020905b8154815290600101906020018083116105fb57829003601f168201915b5050509183525050600682015460209091019060ff16600381111561063f5761063f6124bf565b6003811115610650576106506124bf565b8152600782015460208201526008820154604082015260098201546060820152600a8201546001600160a01b03166080820152600b9091015460a09091015280519091506000036106bc5760405162461bcd60e51b81526004016106b3906128dc565b60405180910390fd5b92915050565b600560205281600052604060002081815481106106de57600080fd5b90600052602060002001600091509150505481565b60606001831015801561070857506000548311155b6107445760405162461bcd60e51b815260206004820152600d60248201526c125b9d985b1a59081cdd185c9d609a1b60448201526064016106b3565b600082118015610755575060648211155b6107975760405162461bcd60e51b81526020600482015260136024820152720436f756e74206d75737420626520312d31303606c1b60448201526064016106b3565b600060016107a5848661291f565b6107af9190612932565b90506000548111156107c057506000545b60006107cc8583612932565b6107d790600161291f565b905060008167ffffffffffffffff8111156107f4576107f461271c565b60405190808252806020026020018201604052801561082d57816020015b61081a6123dc565b8152602001906001900390816108125790505b50905060005b828110156109d55760016000610849838a61291f565b815260208082019290925260409081016000208151610180810183528154815260018201546001600160a01b031693810193909352600281015491830191909152600381015460608301526004810154608083015260058101805460a0840191906108b3906128a8565b80601f01602080910402602001604051908101604052809291908181526020018280546108df906128a8565b801561092c5780601f106109015761010080835404028352916020019161092c565b820191906000526020600020905b81548152906001019060200180831161090f57829003601f168201915b5050509183525050600682015460209091019060ff166003811115610953576109536124bf565b6003811115610964576109646124bf565b8152600782015460208201526008820154604082015260098201546060820152600a8201546001600160a01b03166080820152600b9091015460a09091015282518390839081106109b7576109b7612945565b602002602001018190525080806109cd9061295b565b915050610833565b5095945050505050565b600660205281600052604060002081815481106106de57600080fd5b600081815260016020526040812054829103610a295760405162461bcd60e51b81526004016106b3906128dc565b81600160008281526001602052604090206006015460ff166003811115610a5257610a526124bf565b14610a6f5760405162461bcd60e51b81526004016106b390612974565b60008381526002602090815260408083203384529091529020548390610aa75760405162461bcd60e51b81526004016106b39061299d565b600084815260036020908152604080832033845290915290205460ff1615610ae15760405162461bcd60e51b81526004016106b3906129c8565b600084815260046020908152604080832033845290915290205460ff1615610b425760405162461bcd60e51b8152602060048201526014602482015273105b1c9958591e481d9bdd1959081c99599d5b9960621b60448201526064016106b3565b60008481526001602090815260408083206002835281842033855290925282205460088201805492939192839290610b7b90849061291f565b9091555050600086815260046020908152604080832033808552908352818420805460ff191660011790558151938452918301849052909188917fcbdf6214089cba887ecbf35a0b6a734589959c9763342c756bb2a80ca2bc9f6e910160405180910390a36113888260030154610bf291906129f7565b6008830154610c03906127106129f7565b10610c1157610c11866121b1565b505050505050565b6001600160a01b038116600090815260066020908152604091829020805483518184028101840190945280845260609392830182828015610c7957602002820191906000526020600020905b815481526020019060010190808311610c65575b50505050509050919050565b600081815260016020526040812054819083908203610cb65760405162461bcd60e51b81526004016106b3906128dc565b600084815260016020818152604080842081516101808101835281548152938101546001600160a01b031692840192909252600282015490830152600381015460608301526004810154608083015260058101805460a084019190610d1a906128a8565b80601f0160208091040260200160405190810160405280929190818152602001828054610d46906128a8565b8015610d935780601f10610d6857610100808354040283529160200191610d93565b820191906000526020600020905b815481529060010190602001808311610d7657829003601f168201915b5050509183525050600682015460209091019060ff166003811115610dba57610dba6124bf565b6003811115610dcb57610dcb6124bf565b815260078201546020820152600882015460408201526009820154606080830191909152600a8301546001600160a01b03166080830152600b9092015460a090910152810151909150600003610e28576000809350935050610e70565b606081015160e0820151610e3e906127106129f7565b610e489190612a0e565b93508060600151816101000151612710610e6291906129f7565b610e6c9190612a0e565b9250505b50915091565b6001600160a01b038416610ecc5760405162461bcd60e51b815260206004820152601d60248201527f53656c6c65722063616e6e6f74206265207a65726f206164647265737300000060448201526064016106b3565b336001600160a01b03851603610f245760405162461bcd60e51b815260206004820152601f60248201527f43616e6e6f742063726561746520706f6f6c20666f7220796f757273656c660060448201526064016106b3565b610f3666038d7ea4c68000600a6129f7565b831015610f785760405162461bcd60e51b815260206004820152601060248201526f15185c99d95d081d1bdbc81cdb585b1b60821b60448201526064016106b3565b60018210158015610f8a5750605a8211155b610fd65760405162461bcd60e51b815260206004820152601a60248201527f446561646c696e65206d75737420626520312d3930206461797300000000000060448201526064016106b3565b600080549080610fe58361295b565b9091555060009050610ffa83620151806129f7565b611004904261291f565b90506040518061018001604052806000548152602001866001600160a01b031681526020018581526020016000815260200182815260200183815260200160006003811115611055576110556124bf565b81526000602080830182905260408084018390526060808501849052336080808701919091524260a09687015284548552600180855294839020875181559387015194840180546001600160a01b0319166001600160a01b039096169590951790945590850151600283015584015160038201559083015160048201559082015160058201906110e59082612a7b565b5060c082015160068201805460ff19166001836003811115611109576111096124bf565b021790555060e0820151600782015561010082015160088201556101208201516009820155610140820151600a820180546001600160a01b0319166001600160a01b0392831617905561016090920151600b909101558516600081815260066020908152604080832083548154600181018355918552928420019190915590549051339291907f4309417f9585a04a6539077cacfb1412ea6d61d81dfecf5c46b9108d11ffe824906111c090899087908990612b3b565b60405180910390a45050505050565b6000818152600160205260408120548291036111fd5760405162461bcd60e51b81526004016106b3906128dc565b60008281526001602052604090206003600682015460ff166003811115611226576112266124bf565b146112675760405162461bcd60e51b8152602060048201526011602482015270141bdbdb081b9bdd081c99599d5b991959607a1b60448201526064016106b3565b6000838152600260209081526040808320338452909152902054806112c05760405162461bcd60e51b815260206004820152600f60248201526e27379031b7b73a3934b13aba34b7b760891b60448201526064016106b3565b60008481526002602090815260408083203380855292528083208390555183908381818185875af1925050503d8060008114611318576040519150601f19603f3d011682016040523d82523d6000602084013e61131d565b606091505b50509050806113675760405162461bcd60e51b81526020600482015260166024820152751499599d5b99081d1c985b9cd9995c8819985a5b195960521b60448201526064016106b3565b5050505050565b6060600060015b60005481116113db57836003811115611390576113906124bf565b60008281526001602052604090206006015460ff1660038111156113b6576113b66124bf565b036113c957816113c58161295b565b9250505b806113d38161295b565b915050611375565b5060008167ffffffffffffffff8111156113f7576113f761271c565b604051908082528060200260200182016040528015611420578160200160208202803683370190505b509050600060015b60005481116114ac57856003811115611443576114436124bf565b60008281526001602052604090206006015460ff166003811115611469576114696124bf565b0361149a578083838151811061148157611481612945565b6020908102919091010152816114968161295b565b9250505b806114a48161295b565b915050611428565b5090949350505050565b6001600160a01b038116600090815260056020908152604091829020805483518184028101840190945280845260609392830182828015610c795760200282019190600052602060002090815481526020019060010190808311610c655750505050509050919050565b60008181526001602052604081205482910361154e5760405162461bcd60e51b81526004016106b3906128dc565b81600160008281526001602052604090206006015460ff166003811115611577576115776124bf565b146115945760405162461bcd60e51b81526004016106b390612974565b600083815260026020908152604080832033845290915290205483906115cc5760405162461bcd60e51b81526004016106b39061299d565b600084815260046020908152604080832033845290915290205460ff166116285760405162461bcd60e51b815260206004820152601060248201526f139bdd081d9bdd1959081c99599d5b9960821b60448201526064016106b3565b600084815260036020908152604080832033845290915290205460ff16156116625760405162461bcd60e51b81526004016106b3906129c8565b6000848152600160209081526040808320600283528184203385529092528220546008820180549293919283929061169b908490612932565b92505081905550808260070160008282546116b6919061291f565b9091555050600086815260046020908152604080832033808552908352818420805460ff199081169091558a855260038452828520828652845293829020805490941660019081179094558151938452918301849052909188917fcbdf6214089cba887ecbf35a0b6a734589959c9763342c756bb2a80ca2bc9f6e91015b60405180910390a3611388826003015461174e91906129f7565b600783015461175f906127106129f7565b10610c1157610c118661226f565b60016020819052600091825260409091208054918101546002820154600383015460048401546005850180546001600160a01b03909516959394929391926117b4906128a8565b80601f01602080910402602001604051908101604052809291908181526020018280546117e0906128a8565b801561182d5780601f106118025761010080835404028352916020019161182d565b820191906000526020600020905b81548152906001019060200180831161181057829003601f168201915b5050506006840154600785015460088601546009870154600a880154600b90980154969760ff90941696929550909350916001600160a01b0316908c565b6000818152600160205260408120548291036118995760405162461bcd60e51b81526004016106b3906128dc565b816000808281526001602052604090206006015460ff1660038111156118c1576118c16124bf565b1461190e5760405162461bcd60e51b815260206004820152601960248201527f506f6f6c206e6f7420696e2066756e64696e672070686173650000000000000060448201526064016106b3565b6000838152600160205260409020600481015442106119665760405162461bcd60e51b8152602060048201526014602482015273119d5b991a5b99c81c195c9a5bd908195b99195960621b60448201526064016106b3565b66038d7ea4c680003410156119b65760405162461bcd60e51b815260206004820152601660248201527510dbdb9d1c9a589d5d1a5bdb881d1bdbc81cdb585b1b60521b60448201526064016106b3565b6064816002015460786119c991906129f7565b6119d39190612a0e565b3482600301546119e3919061291f565b1115611a315760405162461bcd60e51b815260206004820152601b60248201527f576f756c64206578636565642031323025206f6620746172676574000000000060448201526064016106b3565b600084815260026020908152604080832033845290915281208054801592349291611a5d90849061291f565b9250508190555034826003016000828254611a78919061291f565b90915550508015611abc57336000908152600560209081526040822080546001810182559083529082200186905560098301805491611ab68361295b565b91905055505b6003820154604080513481526020810192909252339187917ff9b7589b7a8d939b9da5dae90770378fe5fd7802be5d66432e85bedbdbfbcb7a910160405180910390a381600201548260030154106113675760068201805460ff1916600117905560038201546040805191825242602083015286917fbf59838198f4ea92f663f5c1fc697f151a1b746b7dff86d564f250a55cbb4851910160405180910390a25050505050565b600081815260016020526040812054829103611b915760405162461bcd60e51b81526004016106b3906128dc565b600082815260016020526040812090600682015460ff166003811115611bb957611bb96124bf565b14611c065760405162461bcd60e51b815260206004820181905260248201527f43616e206f6e6c7920776974686472617720647572696e672066756e64696e6760448201526064016106b3565b8060040154421015611c515760405162461bcd60e51b815260206004820152601460248201527346756e64696e67207374696c6c2061637469766560601b60448201526064016106b3565b8060020154816003015410611c9a5760405162461bcd60e51b815260206004820152600f60248201526e141bdbdb081dd85cc8199d5b991959608a1b60448201526064016106b3565b600083815260026020908152604080832033845290915290205480611d015760405162461bcd60e51b815260206004820152601b60248201527f4e6f20636f6e747269627574696f6e20746f207769746864726177000000000060448201526064016106b3565b60008481526002602090815260408083203384529091528120819055600383018054839290611d31908490612932565b9091555050604051600090339083908381818185875af1925050503d8060008114611d78576040519150601f19603f3d011682016040523d82523d6000602084013e611d7d565b606091505b5050905080611dc45760405162461bcd60e51b8152602060048201526013602482015272115512081d1c985b9cd9995c8819985a5b1959606a1b60448201526064016106b3565b604051828152339086907fa182b2a9c58fae7e4827fbe3ac2fa1c5711191ef3f58b1fa19631feb97273bb29060200160405180910390a35050505050565b60008181526001602052604081205482908203611e315760405162461bcd60e51b81526004016106b3906128dc565b600083815260016020818152604080842081516101808101835281548152938101546001600160a01b031692840192909252600282015490830152600381015460608301526004810154608083015260058101805460a084019190611e95906128a8565b80601f0160208091040260200160405190810160405280929190818152602001828054611ec1906128a8565b8015611f0e5780601f10611ee357610100808354040283529160200191611f0e565b820191906000526020600020905b815481529060010190602001808311611ef157829003601f168201915b5050509183525050600682015460209091019060ff166003811115611f3557611f356124bf565b6003811115611f4657611f466124bf565b8152600782015460208201526008820154604082015260098201546060820152600a8201546001600160a01b03166080820152600b9091015460a090910152905060008160c001516003811115611f9f57611f9f6124bf565b148015611fb0575080608001514210155b8015611fc3575080604001518160600151105b9250505b50919050565b600081815260016020526040812054829103611ffb5760405162461bcd60e51b81526004016106b3906128dc565b81600160008281526001602052604090206006015460ff166003811115612024576120246124bf565b146120415760405162461bcd60e51b81526004016106b390612974565b600083815260026020908152604080832033845290915290205483906120795760405162461bcd60e51b81526004016106b39061299d565b600084815260036020908152604080832033845290915290205460ff16156120b35760405162461bcd60e51b81526004016106b3906129c8565b600084815260046020908152604080832033845290915290205460ff16156121145760405162461bcd60e51b8152602060048201526014602482015273105b1c9958591e481d9bdd1959081c99599d5b9960621b60448201526064016106b3565b6000848152600160209081526040808320600283528184203385529092528220546007820180549293919283929061214d90849061291f565b909155505060008681526003602090815260408083203380855290835292819020805460ff19166001908117909155815190815291820184905288917fcbdf6214089cba887ecbf35a0b6a734589959c9763342c756bb2a80ca2bc9f6e9101611734565b600081815260016020819052604090912090600682015460ff1660038111156121dc576121dc6124bf565b1461221c5760405162461bcd60e51b815260206004820152601060248201526f105b1c9958591e481c995cdbdb1d995960821b60448201526064016106b3565b60068101805460ff191660039081179091558101546040805191825242602083015283917f9e667e4d080e3ccc6729d3c44289885f6b934adb5a2c1e76319dabf5595a3366910160405180910390a25050565b600081815260016020819052604090912090600682015460ff16600381111561229a5761229a6124bf565b146122da5760405162461bcd60e51b815260206004820152601060248201526f105b1c9958591e481c995cdbdb1d995960821b60448201526064016106b3565b60068101805460ff1916600217905560038101805460009182905560018301546040519192916001600160a01b039091169083908381818185875af1925050503d8060008114612346576040519150601f19603f3d011682016040523d82523d6000602084013e61234b565b606091505b505090508061239c5760405162461bcd60e51b815260206004820152601d60248201527f455448207472616e7366657220746f2073656c6c6572206661696c656400000060448201526064016106b3565b6040805183815242602082015285917f0b09e69a32485e35bf0a7c12d464d57601c1ead58bd8fcccfca19c1305df7127910160405180910390a250505050565b6040518061018001604052806000815260200160006001600160a01b03168152602001600081526020016000815260200160008152602001606081526020016000600381111561242e5761242e6124bf565b815260200160008152602001600081526020016000815260200160006001600160a01b03168152602001600081525090565b60006020828403121561247257600080fd5b5035919050565b6000815180845260005b8181101561249f57602081850181015186830182015201612483565b506000602082860101526020601f19601f83011685010191505092915050565b634e487b7160e01b600052602160045260246000fd5b600481106124f357634e487b7160e01b600052602160045260246000fd5b9052565b600061018082518452602083015161251a60208601826001600160a01b03169052565b5060408301516040850152606083015160608501526080830151608085015260a08301518160a086015261255082860182612479565b91505060c083015161256560c08601826124d5565b5060e0838101519085015261010080840151908501526101208084015190850152610140808401516001600160a01b0316908501526101609283015192909301919091525090565b6020815260006125c060208301846124f7565b9392505050565b80356001600160a01b03811681146125de57600080fd5b919050565b600080604083850312156125f657600080fd5b6125ff836125c7565b946020939093013593505050565b6000806040838503121561262057600080fd5b50508035926020909101359150565b6000602080830181845280855180835260408601915060408160051b870101925083870160005b8281101561268457603f198886030184526126728583516124f7565b94509285019290850190600101612656565b5092979650505050505050565b6000602082840312156126a357600080fd5b6125c0826125c7565b6020808252825182820181905260009190848201906040850190845b818110156126e4578351835292840192918401916001016126c8565b50909695505050505050565b6000806040838503121561270357600080fd5b82359150612713602084016125c7565b90509250929050565b634e487b7160e01b600052604160045260246000fd5b6000806000806080858703121561274857600080fd5b612751856125c7565b93506020850135925060408501359150606085013567ffffffffffffffff8082111561277c57600080fd5b818701915087601f83011261279057600080fd5b8135818111156127a2576127a261271c565b604051601f8201601f19908116603f011681019083821181831017156127ca576127ca61271c565b816040528281528a60208487010111156127e357600080fd5b82602086016020830137600060208483010152809550505050505092959194509250565b60006020828403121561281957600080fd5b8135600481106125c057600080fd5b60006101808e835260018060a01b03808f1660208501528d60408501528c60608501528b60808501528160a08501526128638285018c612479565b925061287260c085018b6124d5565b60e08401989098525061010082019590955261012081019390935293166101408201526101600191909152979650505050505050565b600181811c908216806128bc57607f821691505b602082108103611fc757634e487b7160e01b600052602260045260246000fd5b602080825260139082015272141bdbdb08191bd95cc81b9bdd08195e1a5cdd606a1b604082015260600190565b634e487b7160e01b600052601160045260246000fd5b808201808211156106bc576106bc612909565b818103818111156106bc576106bc612909565b634e487b7160e01b600052603260045260246000fd5b60006001820161296d5761296d612909565b5060010190565b6020808252600f908201526e141bdbdb081b9bdd08199d5b991959608a1b604082015260600190565b6020808252601190820152702737ba10309031b7b73a3934b13aba37b960791b604082015260600190565b602080825260159082015274416c726561647920766f7465642072656c6561736560581b604082015260600190565b80820281158282048414176106bc576106bc612909565b600082612a2b57634e487b7160e01b600052601260045260246000fd5b500490565b601f821115612a7657600081815260208120601f850160051c81016020861015612a575750805b601f850160051c820191505b81811015610c1157828155600101612a63565b505050565b815167ffffffffffffffff811115612a9557612a9561271c565b612aa981612aa384546128a8565b84612a30565b602080601f831160018114612ade5760008415612ac65750858301515b600019600386901b1c1916600185901b178555610c11565b600085815260208120601f198616915b82811015612b0d57888601518255948401946001909101908401612aee565b5085821015612b2b5787850151600019600388901b60f8161c191681555b5050505050600190811b01905550565b838152826020820152606060408201526000612b5a6060830184612479565b9594505050505056fea2646970667358221220395bf30c227d6cc5a298c39654c4ead587a64f0d829e12047eca525bac9d4bf264736f6c63430008140033",
  "linkReferences": {},
  "deployedLinkReferences": {}
}